:0400000077EF40F066
:1000080000C016F001C015F0E1CF17F0E2CF18F0EC
:100018009EAA25D05CEC3EF000C01BF404011151EF
:10002800000A04E11B51AA0A01E104D01151000A97
:1000380001E10BD0820EE16E090EE26E1151E1264C
:10004800D8B0E22A1BC4E6FF112B1B51BB0A03E1FF
:10005800010E1D6F116B11511208D8A0116BF2A47B
:100068006AD00401E04BE12BE54BE62BE1513D0A58
:1000780002E1090EE01954E11251010A08E10F2BBF
:100088000F51B20A03E10F6B126B106B01D00F6BAB
:10009800E92BE951200A03E1E96B010EE36F000146
:1000A8008051010A06E1FA0E0601395D02E2392B98
:1000B80002D00601396B010E04012A27000E2B23FA
:1000C8002C232D23010EEE27000EEF23F023F1231E
:1000D800E06BE16B800E006E800E090A005C03E1A4
:1000E800FB0E0001775D03E20001772B02D00001CF
:1000F800776B0401242B24513C0A02E1246B282B42
:1001080028513C0A02E1286B252B1551010AD8B465
:10011800162B2651010A04E1C80E275DD8A0272B0B
:10012800E6510C0A02E1350EE51904E1010EE26F11
:10013800E56BE66BF29416C000F015C001F017C02D
:08014800E1FF18C0E2FF110005
:0E015000ACB202D00000FCD76FCCADFF1200A5
:10015E006FCCC9FFC7B002D00000FCD7C9CF00F0EA
:02016E0012007D
:10017000F250026EF29E0500FF6A0150FE6E0050C2
:08018000FD6E02BEF28E1200BA
:1001880069CCC9FFC7B002D00000FCD7C9CF00F0C6
:02019800120053
:10019A001EC46BFC1FC46CFC20C46DFC21C46EFC25
:1001AA009E96C5869EB620D004011E511F112011AD
:1001BA00211119E00C016B516C116D116E110CE1DA
:1001CA0099C9E1FF9AC9E2FF030EE66E97C900F0EA
:1001DA0098C901F0C8DF08D0010E0C016B5F000E50
:1001EA006C5B6D5B6E5BDED70C01C9CF6AFC695133
:1001FA00000A02E1C58A01D0C59A9E96C5881EC426
:10020A006BFC1FC46CFC20C46DFC21C46EFC9EB642
:10021A0020D004011E511F112011211119E00C01D7
:10022A006B516C116D116E110CE199C9E1FF9AC9FC
:10023A00E2FF030EE66E97C900F098C901F093DF5A
:10024A0008D0010E0C016B5F000E6C5B6D5B6E5B80
:08025A00DED76ACC00F01200AF
:100262009E9669CCC9FF1EC46AFC1FC46BFC20C4E5
:100272006CFC21C46DFCC7A422D004011E511F11C5
:10028200201121111BE00C016A516B116C116D11CF
:100292000EE199C9E1FF9AC9E2FF040EE66E97C921
:1002A20000F098C901F063DF010E006E3BD0010E31
:1002B2000C016A5F000E6B5B6C5B6D5BDCD71EC46E
:1002C2006AFC1FC46BFC20C46CFC21C46DFC9EB68E
:1002D20022D004011E511F11201121111BE00C011B
:1002E2006A516B116C116D110EE199C9E1FF9AC946
:1002F200E2FF040EE66E97C900F098C901F037DFFD
:10030200010E006E0FD0010E0C016A5F000E6B5BD6
:100312006C5B6D5BDCD7C5BC02D0006A03D0C584C0
:06032200020E006E120045
:100328008998400E0C016611006E9EC9E1FF9FC9B5
:10033800E2FF00C0E6FF9CC900F09DC901F014DF90
:100348009EC9E1FF9FC9E2FF67CCE6FF9CC900F0A8
:100358009DC901F009DF9EC9E1FF9FC9E2FF68CC92
:10036800E6FF9CC900F09DC901F0FEDE89881200F5
:100378000450085E0550D8A0053C095E0650D8A078
:10038800063C0A5E0750D8A0073C0B5E0336070EF2
:100398000C6E0334083609360A360B36045003A0AF
:1003A8000ED0085E0550D8A0053C095E0650D8A0BE
:1003B800063C0A5E0750D8A0073C0B5E0DD0082605
:1003C8000550D8B0053C09260650D8B0063C0A2688
:1003D8000750D8B0073C0B2603360C2EDAD7023468
:1003E800083609360A360B36045003A00ED0085ECC
:1003F8000550D8A0053C095E0650D8A0063C0A5E08
:100408000750D8A0073C0B5E0DD008260550D8B081
:10041800053C09260650D8B0063C0A260750D8B035
:10042800073C0B260236070E0C6E023408360936D6
:100438000A360B36045002A00ED0085E0550D8A02C
:10044800053C095E0650D8A0063C0A5E0750D8A0B5
:10045800073C0B5E0DD008260550D8B0053C092690
:100468000650D8B0063C0A260750D8B0073C0B26E1
:1004780002360C2EDAD70134083609360A360B361E
:10048800045002A00ED0085E0550D8A0053C095EB5
:100498000650D8A0063C0A5E0750D8A0073C0B5E61
:1004A8000DD008260550D8B0053C09260650D8B00E
:1004B800063C0A260750D8B0073C0B260136070E23
:1004C8000C6E0134083609360A360B36045001A082
:1004D8000ED0085E0550D8A0053C095E0650D8A08D
:1004E800063C0A5E0750D8A0073C0B5E0DD00826D4
:1004F8000550D8B0053C09260650D8B0063C0A2657
:100508000750D8B0073C0B2601360C2EDAD700343A
:10051800083609360A360B36045001A00ED0085E9C
:100528000550D8A0053C095E0650D8A0063C0A5ED6
:100538000750D8A0073C0B5E0DD008260550D8B050
:10054800053C09260650D8B0063C0A260750D8B004
:10055800073C0B260036070E0C6E003408360936A9
:100568000A360B36045000A00ED0085E0550D8A0FD
:10057800053C095E0650D8A0063C0A5E0750D8A084
:10058800073C0B5E0DD008260550D8B0053C09265F
:100598000650D8B0063C0A260750D8B0073C0B26B0
:1005A80000360C2EDAD700B00ED0045008260550BD
:1005B800D8B0053C09260650D8B0063C0A26075094
:0805C800D8B0073C0B2612001D
:1005D0000B1E0A1E091E081E082AD8B4092AD8B400
:0805E0000A2AD8B40B2A12000C
:1005E8008998800E0C016311006E9EC9E1FF9FC9B6
:1005F800E2FF00C0E6FF9CC900F09DC901F0B4DD30
:100608009EC9E1FF9FC9E2FF64CCE6FF9CC900F0E8
:0A0618009DC901F0A9DD89881200D8
:10062200020E0C01666F63CC67FC64CC68FC7BDE57
:1006320089989EC9E1FF9FC9E2FF7A0EE66E9CC9C6
:1006420000F09DC901F093DD9EC9E1FF9FC9E2FF61
:1006520065CCE6FF9CC900F09DC901F088DD898860
:02066200120084
:1006640089989EC9E1FF9FC9E2FF63CCE6FF9CC95C
:1006740000F09DC901F07ADD9EC9E1FF9FC9E2FF48
:10068400E66A9CC900F09DC901F070DD89881200FA
:100694008998A00E0C016311006E9EC9E1FF9FC9E9
:1006A400E2FF00C0E6FF9CC900F09DC901F05EDDD9
:1006B4009EC9E1FF9FC9E2FF64CCE6FF9CC900F03C
:0A06C4009DC901F053DD8988120082
:1006CE000C01666B63CC67FC64CC68FC26DE8998F3
:1006DE009EC9E1FF9FC9E2FF3A0EE66E9CC900F08B
:1006EE009DC901F03EDD9EC9E1FF9FC9E2FFE66AAA
:0E06FE009CC900F09DC901F034DD898812000E
:10070C0089989EC9E1FF9FC9E2FF7A0EE66E9CC9EB
:10071C0000F09DC901F026DD9EC9E1FF9FC9E2FFF3
:10072C0063CCE6FF9CC900F09DC901F01BDD8988F4
:02073C001200A9
:10073E000B6A0A6A096A00500402F4CF09F0F3CF7B
:10074E0008F001500502F4CF0BF0F3CF0AF0005081
:10075E000502F3500926F4500A22E86A0B220150D2
:10076E000402F3500926F4500A22E86A0B2208C04C
:10077E0000F009C001F00AC002F00BC003F0120035
:10078E0089989EC9E1FF9FC9E2FF7A0EE66E9CC969
:10079E0000F09DC901F0E5DC5ECC00F05FCC01F00D
:1007AE00010E0C015E5F000E5F5B0050011013E046
:1007BE009EC9E1FF9FC9E2FF5CCCE9FF5DCCEAFF79
:1007CE00EECFE6FF9CC900F09DC901F0CADC0C011A
:0A07DE005C4B5D2BE1D78988120007
:1007E800086A096A100E0C6E01340836093604507E
:1007F800085E0550D8A0053C095ED8B007D0045063
:1008080008260550D8B0053C0926D8900036013690
:060818000C2EEAD71200CD
:10081E000450000A12E10550000A0FE10650000ACA
:10082E000CE10750000A09E1FF0E006EFF0E016E8B
:10083E00FF0E026E7F0E036E97D00C6A07BE0C2A57
:10084E000D6A0B6A0A6A096A086A035002100110DF
:10085E000010D8B484D0035007180E6E0EBE0D1EB5
:10086E0007AE0BD0041E051E061E071E042AD8B4A2
:10087E00052AD8B4062AD8B4072A03AE0BD0001E18
:10088E00011E021E031E002AD8B4012AD8B4022A61
:10089E00D8B4032A035007100E6E0EBE1CD065DDB1
:1008AE000CBE36D00DAE5BD0001E011E021E031E06
:1008BE00002AD8B4012AD8B4022AD8B4032A081EB2
:1008CE00091E0A1E0B1E082AD8B4092AD8B40A2AF1
:1008DE00D8B40B2A44D007AE15D003BE0DD00350AA
:1008EE000B6E02500A6E0150096E0050086E036ABC
:1008FE00026A016A006AD6D7036A026A016A006A4E
:10090E00002A000C031E021E011E001E0C8EC7D7ED
:10091E00082AD8B4092AD8B40A2AD8B40B2A045003
:10092E00085CD8A4BFD70550095CD8A4BBD7065025
:10093E000A5CD8A4B7D707500B5CD8A4B3D70B6A00
:10094E000A6A096A086A002AD8B4012AD8B4022AA7
:10095E00D8B4032A03AEA6D70E6A0E88FF0C0E6A11
:0A096E000CA001D02EDE000F1200D5
:10097800220E0C6E086A096A0A6A0B6A0C06D8B459
:100988001FD0D8900B320A320932083203320232B1
:1009980001320032D8A0F2D70C06D8B409D00450DE
:1009A80008260550092206500A2207500B22EAD7CA
:1009B800045008260550092206500A2207500B2227
:0209C80012001B
:1009CA00086A080E0C6E003408360450085ED8B067
:0E09DA0002D00826D89000360C2EF5D7120059
:1009E800AE0E0C01636F190E646F656B16DEAE0EEA
:1009F8000C015C25006E190E5D21016E00C05CFCC7
:100A080001C05DFC060E666F00C067FC01C068FC93
:100A180087DC1F0E0C01636F800E646FE1DD1F0E13
:100A28000C01636F800E646F31DE0901C251050A43
:100A380004E0C251070A01E006D01C0E0C01636FE6
:100A48000A0E646F23DE1F0E0C01636F080E646FBD
:100A5800C7DD0901C251050A04E0C251070A01E0D5
:100A680080D00C01616B626B1C0E636FF7DD0A0EA0
:100A7800001600520AE10C01614B622B030E625D05
:100A880002E1E80E615D01E2EFD70C011C0E636F15
:100A9800E5DD00B208D0030E0C01625D02E1E80E4C
:100AA800615D01E25DD00C011F0E636F080E646F7B
:100AB800EDDD040E0C015C25636F000E5D21646F93
:100AC80002DE00C060FC0C015E6B100E5E5D48E249
:100AD8001C0E636FC3DD00A23FD00C0160AB3CD09D
:100AE8001F0E636F800E646F7BDD1F0E0C01636F3A
:100AF800800E646FCBDD1C0E0C01636F0A0E646FF1
:100B0800C5DD1F0E0C01636F080E646F69DD0C01F3
:100B1800616B626B1C0E636FA1DD0A0E001600523A
:100B28000AE10C01614B622B030E625D02E1E80EE3
:100B3800615D01E2EFD70C011F0E636F080E646F51
:100B4800A5DD040E0C015C25636F000E5D21646F4A
:100B5800BADD00C060FC01D003D00C015E2BB5D714
:100B680007D00C011F0E636F79DD00A601D0F9D7FD
:100B78001D0E0C01636F72DD060E0016005203E0B5
:100B88000C015F6B03D00C01010E5F6F5FCC00F0AE
:020B9800120049
:100B9A005CCC63FC5DCC64FC5ECC65FC3DDD5FCC6B
:060BAA0063FCAFDD120048
:100BB0000C015E515C25606F5F515D21616F010E1C
:100BC000605F000E615B100E666F5CCC67FC5DCCF5
:100BD00068FC94EC01F0120E0C01666F60CC67FCAF
:100BE00061CC68FC94EC01F01F0E0C01636F300EB9
:100BF000646FFADC1F0E0C01636F34DD00AA01D0B4
:040C0000F9D712000E
:100C04004CCC04F04DCC05F004C002F005C003F058
:100C1400044A052A4ECC00F04FCC01F00C014E4B97
:100C24004F2B00C0E9FF01C0EAFF02C0E1FF03C08F
:100C3400E2FFEECFE6FF02C0E9FF03C0EAFFEE5297
:0E0C440001E0E2D74CCC00F04DCC01F01200E4
:100C52004CCC04F04DCC05F004C0E9FF05C0EAFF1E
:100C6200EE5203E0044A052AF7D704C002F005C099
:100C720003F0044A052A4ECC00F04FCC01F00C01DF
:100C82004E4B4F2B00C0E9FF01C0EAFF02C0E1FF5B
:100C920003C0E2FFEECFE6FF02C0E9FF03C0EAFFB6
:100CA200EE5201E0E2D74CCC00F04DCC01F0120044
:100CB2000C01506B050E505D0AE250514E25E16E5B
:100CC200000E4F21E26E200EE66E502BF3D75051EC
:100CD2004E25E16E000E4F21E26EE66A500750513A
:100CE2004E25516F000E4F21526F0A0E046E000EF8
:100CF200056E4CCC00F04DCC01F075DD08C000F063
:100D020009C001F0300E002651CCE1FF52CCE2FFC7
:100D120000C0E6FF0A0E046E000E056E4CCC00F019
:100D22004DCC01F060DD00C04CFC01C04DFC000E5A
:100D3200011802E1000E001801E102D05007CFD7DE
:020D420012009D
:100D44000C014F6B030E4F5D0AE24F514D25E16ECE
:100D5400000E4E21E26E200EE66E4F2BF3D74F515C
:100D64004D25E16E000E4E21E26EE66A4F074F51AB
:100D74004D25506F000E4E21516F0A0E046E4CCC5F
:100D840000F021DE08C000F0300E002650CCE1FF58
:100D940051CCE2FF00C0E6FF0A0E046E4CCC00F01A
:100DA40012DE00C04CFC0050000A01E102D04F07E3
:040DB400DED7120074
:100DB800000E006E0C014F1908E100504E1905E1B4
:100DC80000504D1902E14C51000A0EE150CCE1FFF0
:100DD80051CCE2FF300EE66E010E5025E16E000E9A
:100DE8005121E26EE66AC0D0800E4F19006E800E67
:100DF800005C08E1000E4E5D05E1000E4D5D02E16C
:100E0800000E4C5D1AE24CCC00F04DCC01F04ECCFB
:100E180002F04FCC03F0FF0E046EFF0E056E066E57
:100E2800076EA6DD00C04CFC01C04DFC02C04EFCA4
:100E380003C04FFC010E546F01D0546B50CCE1FF3E
:100E480051CCE2FFE66A526B0C01800E006E800EF8
:100E58004F19005C08E14E51000805E14D510008AA
:100E680002E14C5100085CE25251010F536F53519B
:100E7800000815E253515025E16E000E5121E26E33
:100E88005305006E016A000E015A00505025E96EA4
:100E980001505121EA6EEECFE6FF5307E8D70A0E5C
:100EA800046E000E056E066E076E4CCC00F04DCC3D
:100EB80001F04ECC02F04FCC03F0ADDC08C000F0DE
:100EC80009C001F00AC002F00BC003F050CCE1FFEA
:100ED80051CCE2FF00C0E6FF50CCE9FF51CCEAFF5D
:100EE80050CCE1FF51CCE2FF300EEE260C01522B24
:100EF8000A0E046E000E056E066E076E4CCC00F0EE
:100F08004DCC01F04ECC02F04FCC03F084DC00C095
:100F18004CFC01C04DFC02C04EFC03C04FFC94D7F2
:100F28000C01545321E05251010F536F53510008E3
:100F380015E253515025E16E000E5121E26E530522
:100F4800006E016A000E015A00505025E96E0150EA
:100F58005121EA6EEECFE6FF5307E8D750CCE1FF08
:0A0F680051CCE2FF2D0EE66E1200E0
:100F72004CCC02F04DCC03F002C000F003C001F0F3
:100F8200024A032A00C0E9FF01C0EAFFEE5201E073
:100F9200F3D70C014C51025C006E4D510358016EA7
:0A0FA200010E005E000E015A12005D
:100FAC004ECC04F04FCC05F04CCC02F04DCC03F001
:100FBC0050CC00F051CC01F0010E0C01505F000E32
:100FCC00515B005001100FE004C0E9FF05C0EAFFBF
:100FDC0002C0E1FF03C0E2FFEECFE6FF024A032AA4
:100FEC00044A052AE5D74CCC00F04DCC01F0120098
:100FFC0089989EC9E1FF9FC9E2FF7A0EE66E9CC9F3
:10100C0000F09DC901F0B8EC00F09EC9E1FF9FC94A
:10101C00E2FF4DCCE6FF9CC900F09DC901F0B8EC95
:10102C0000F09EC9E1FF9FC9E2FF4CCCE6FF9CC9D2
:0E103C0000F09DC901F0B8EC00F089881200A8
:10104A000C01596B010E4E5F000E4F5B52530DE0BF
:10105A004F51190802E14E51AD0807E2592BAD0E66
:10106A004E5D576F190E4F59586F595305E0AD0E23
:10107A00536F190E546F04D04ECC53FC4FCC54FC12
:10108A004D51541902E153514C190FE14CCC63FCF8
:10109A004DCC64FC67EC03F000C065FC50CC63FCEB
:1010AA0051CC64FC11EC03F03CD0100E0C01666FBD
:1010BA004CCC67FC4DCC68FC94EC01F0120E0C0190
:1010CA00666F595305E0AD0E556F190E566F04D071
:1010DA004ECC55FC4FCC56FC55CC67FC56CC68FC24
:1010EA0094EC01F0140E0C01666F50CC67FC51CCE5
:1010FA0068FC94EC01F01F0E0C01636F100E646F14
:10110A004AEC03F01F0E0C01636F200E646FF4ECBF
:10111A0002F01F0E0C01636F32EC03F000AA01D03B
:10112A00F8D70C0159531AE04C514E5D006E4D51DF
:10113A004F59016E5751005E5851015A004A012A0F
:10114A000050502701505123010E575D4E6F000E7B
:0E115A0058594F6F4C6B4D6B596B87D7120075
:10116800020E0C01666F4CCC67FC4DCC68FC94EC0D
:1011780001F089989EC9E1FF9FC9E2FF7A0EE66EE9
:101188009CC900F09DC901F0B8EC00F00C01505169
:10119800511118E09EC9E1FF9FC9E2FF4ECCE9FF5B
:1011A8004FCCEAFFEECFE6FF9CC900F09DC901F0E5
:1011B800B8EC00F00C014E4B4F2B010E505F000EA7
:0811C800515BE4D78988120095
:1011D0004ECC04F04FCC05F04CCC02F04DCC03F0DB
:1011E00050CC00F051CC01F0010E0C01505F000E0C
:1011F000515B005001100FE004C0E9FF05C0EAFF99
:1012000002C0E1FF03C0E2FFEECFE6FF024A032A7D
:10121000044A052AE5D74CCC00F04DCC01F0120071
:10122000020E0C014C15016E0150000A05E01C0E67
:10123000506F000E516F04D0140E506F000E516F9E
:10124000500E586F596B330E006E000E016E4DCC70
:1012500004F0000E056E9FEC03F0D50E00260A0E7A
:1012600001222E0E0024E96E000E0120EA6EEECF60
:1012700001F0EECF02F0000E006E0250005C02E1C1
:101280000150000802E2080E596F010E4C15016E64
:101290000150000AD8A45981100E4C15016E01505E
:1012A000000AD8A45989020E4C15016E0150000A9B
:1012B00003E0700E586F5983040E4C15016E0150F7
:1012C000000AD8A45985AF0E636F190E646F330EF0
:1012D000006E000E016E4DCC04F0000E056E9FEC0A
:1012E00003F0D50E00260A0E0122040E0024E96E3A
:1012F000000E0120EA6EEECF65FC11EC03F0330E18
:10130000006E000E016E4DCC04F0000E056E9FECD9
:1013100003F0D50E00240C015C6F0A0E01205D6FF6
:10132000040E5C27000E5D235C4B5D2B050E5E6F8B
:10133000000E5F6FC7EC03F0C30E5C6F090E5D6FAC
:10134000060E5E6F000E5F6FC7EC03F0080E636F52
:1013500086EC03F00C01636B86EC03F0450E0C0188
:10136000636F86EC03F00C01636B86EC03F0330EC5
:10137000006E000E016E4DCC04F0000E056E9FEC69
:1013800003F0D50E00260A0E01222E0E0024D96E7F
:10139000000E0120DA6EDE500C015025526FDE5037
:1013A0005121536F140E5227000E532353CC63FC6C
:1013B00086EC03F052CC63FC86EC03F0330E006E37
:1013C000000E016E4DCC04F0000E056E9FEC03F094
:1013D000D50E00260A0E0122200E0026000E012244
:1013E000010E0024E96E000E0120EA6EEECF63FCD0
:1013F00086EC03F0330E006E000E016E4DCC04F04F
:10140000000E056E9FEC03F0D50E00260A0E012299
:10141000200E00240C015A6F000E01205B6F5ACC85
:10142000E9FF5BCCEAFFEECF63FC86EC03F05ACC1D
:10143000E9FF5BCCEAFF010EEE24006E000EEE2009
:10144000016E5ACCE1FF5BCCE2FF00C0E6FF01C0B9
:10145000E6FF400E0C01636F86EC03F00C01636B3A
:1014600086EC03F0800E0C01636F86EC03F0060E31
:101470000C01636F86EC03F00C01636B86EC03F0E8
:101480000C01636B86EC03F0A00E0C015C6F090E7F
:101490005D6F040E5E6F000E5F6FC7EC03F0330EDE
:1014A000006E000E016E4DCC04F0000E056E9FEC38
:1014B00003F0D50E00245C6F0A0E01205D6F040E50
:1014C0005E6F000E5F6FC7EC03F0BD0E5C6F190E10
:1014D0005D6F140E5E6F000E5F6FD8EC05F0160E98
:1014E0000C01636F32EC03F000C05AFC170E0C01C4
:1014F000636F32EC03F000C05EFCC70E0C015C6F42
:10150000190E5D6F5ACC5FFCCDEC05F0D10E0C01CD
:10151000636F190E646F330E006E000E016E4DCCBA
:1015200004F0000E056E9FEC03F0D50E00260A0EA7
:1015300001220C0E0026000E0122010E0024E96E8D
:10154000000E0120EA6EEECF65FC11EC03F0330EC5
:10155000006E000E016E4DCC04F0000E056E9FEC87
:1015600003F0D50E00260A0E01220C0E0024E96EAF
:10157000000E0120EA6EEECF63FC86EC03F0330E22
:10158000006E000E016E4DCC04F0000E056E9FEC57
:1015900003F0D50E00260A0E01220A0E0026000EC8
:1015A0000122010E0024E96E000E0120EA6EEECF4A
:1015B00063FC86EC03F0330E006E000E016E4DCC22
:1015C00004F0000E056E9FEC03F0D50E00260A0E07
:1015D00001220A0E0024E96E000E0120EA6EEECF11
:1015E00063FC86EC03F0330E006E000E016E4DCCF2
:1015F00004F0000E056E9FEC03F0D50E00260A0ED7
:101600000122160E0026000E0122030E0024E96EB0
:10161000000E0120EA6EEECF63FC86EC03F0330E81
:10162000006E000E016E4DCC04F0000E056E9FECB6
:1016300003F0D50E00260A0E0122160E0026000E1B
:101640000122020E0024E96E000E0120EA6EEECFA8
:1016500063FC86EC03F0330E006E000E016E4DCC81
:1016600004F0000E056E9FEC03F0D50E00260A0E66
:101670000122160E0026000E0122010E0024E96E42
:10168000000E0120EA6EEECF63FC86EC03F0330E11
:10169000006E000E016E4DCC04F0000E056E9FEC46
:1016A00003F0D50E00260A0E0122160E0024E96E64
:1016B000000E0120EA6EEECF63FC86EC03F0330EE1
:1016C000006E000E016E4DCC04F0000E056E9FEC16
:1016D00003F0D50E00260A0E01221A0E0026000E77
:1016E0000122030E0024E96E000E0120EA6EEECF07
:1016F00063FC86EC03F0330E006E000E016E4DCCE1
:1017000004F0000E056E9FEC03F0D50E00260A0EC5
:1017100001221A0E0026000E0122020E0024E96E9C
:10172000000E0120EA6EEECF63FC86EC03F0330E70
:10173000006E000E016E4DCC04F0000E056E9FECA5
:1017400003F0D50E00260A0E01221A0E0026000E06
:101750000122010E0024E96E000E0120EA6EEECF98
:1017600063FC86EC03F0330E006E000E016E4DCC70
:1017700004F0000E056E9FEC03F0D50E00260A0E55
:1017800001221A0E0024E96E000E0120EA6EEECF4F
:1017900063FC86EC03F058CC63FC86EC03F059CC78
:1017A00063FC86EC03F0330E006E000E016E4DCC30
:1017B00004F0000E056E9FEC03F0D50E00260A0E15
:1017C0000122120E0026000E0122010E0024E96EF5
:1017D000000E0120EA6EEECF63FC86EC03F0330EC0
:1017E000006E000E016E4DCC04F0000E056E9FECF5
:1017F00003F0D50E00260A0E0122120E0024E96E17
:10180000000E0120EA6EEECF63FC86EC03F00C01C3
:10181000636B86EC03F00C01636B86EC03F00C0148
:10182000636B86EC03F00C01636B86EC03F0020E35
:101830000C014C15016E0150000A51E0020E636F5D
:1018400086EC03F0040E0C01636F86EC03F0330E9C
:10185000006E000E016E4DCC04F0000E056E9FEC84
:1018600003F0D50E00260A0E0122140E0026000EEB
:101870000122010E0024E96E000E0120EA6EEECF77
:1018800063FC86EC03F0330E006E000E016E4DCC4F
:1018900004F0000E056E9FEC03F0D50E00260A0E34
:1018A0000122140E0024E96E000E0120EA6EEECF34
:1018B00063FC86EC03F0010E0C01636F86EC03F011
:1018C000010E0C01636F86EC03F0040E0C01636FD4
:1018D00086EC03F0020E0C01636F86EC03F0330E0E
:1018E000006E000E016E4DCC04F0000E056E9FECF4
:1018F00003F0D50E00260A0E01222E0E0024E96EFA
:10190000000E0120EA6EEECF01F0EECF02F0000EE5
:10191000006E0250005C02E10150000861E20C011F
:10192000566B576B330E006E000E016E4DCC04F0FB
:10193000000E056E9FEC03F0D50E00260A0E012264
:101940002E0E0024D96E000E0120DA6EDECF01F0DB
:10195000DECF02F00250575D02E10150565D40E2D9
:10196000330E006E000E016E4DCC04F0000E056EBD
:101970009FEC03F0D50E0024046E0A0E0120056EC4
:10198000260E0424E96E000E0520EA6E5651EE2460
:10199000026E5751EE20036E000E006E020E016EB5
:1019A000010E005E000E015A00500216015003168F
:1019B000310E0424E96E000E0520EA6EEECF00F031
:1019C000EECF01F002500024E96E03500120EA6ED0
:1019D000EECF63FC86EC03F00C01564B572BA2D7DD
:1019E0000C01D10E50255A6F190E51215B6F330E29
:1019F000006E000E016E4DCC04F0000E056E9FECE3
:101A000003F0D50E00260A0E01222E0E0024026ECF
:101A1000000E0120036E02C0D9FF03C0DAFFDE50C2
:101A20005A25006EDE505B21016E00C04EFC01C0E5
:101A30004FFC02C0E9FF03C0EAFF010EEE14546F31
:101A4000EECF55FC000E551700C063FC01C064FCCE
:101A5000656B11EC03F00C0154514E255C6F555130
:101A60004F215D6FA0C95EFCA1C95FFCCDEC05F004
:101A70000C0154514E255C6F55514F215D6F020E84
:101A80005C27000E5D23A2C95EFCA3C95FFCCDEC00
:101A900005F00C0154514E255C6F55514F215D6F7F
:101AA000040E5C27000E5D23330E006E000E016EE7
:101AB0004DCC04F0000E056E9FEC03F0D50E002611
:101AC0000A0E012200C0E9FF01C0EAFFEECF5EFC72
:101AD000010E0024E96E000E0120EA6EEECF5FFCDD
:101AE000CDEC05F00C0154514E255C6F55514F2142
:101AF0005D6F060E5C27000E5D23330E006E000E38
:101B0000016E4DCC04F0000E056E9FEC03F0D50E77
:101B100000260A0E0122020E0024E96E000E0120AA
:101B2000EA6EEECF5EFC030E0024E96E000E01208B
:101B3000EA6EEECF5FFCCDEC05F0080E0C014E25F1
:101B40005C6F000E4F215D6F54515C2755515D2332
:101B50005E6B060E5F6FCDEC05F00A0E0C014E2594
:101B60005C6F000E4F215D6F54515C2755515D2312
:101B7000330E006E000E016E4DCC04F0000E056EAB
:101B80009FEC03F0D50E00260A0E01222E0E002433
:101B9000E96E000E0120EA6EEECF05F0EECF06F002
:101BA00005505025036E06505121046E04C000F00C
:101BB000016A00C05EFC055050255F6FCDEC05F05A
:101BC000D10E0C015C6F190E5D6F330E006E000EAE
:101BD000016E4DCC04F0000E056E9FEC03F0D50EA7
:101BE00000260A0E01222E0E0024D96E000E0120BE
:101BF000DA6EDE5050255E6FDE5051215F6F0C0EA5
:101C00005E27000E5F2354515E2755515F23D8ECA9
:101C100005F0160E0C01636F32EC03F000C05AFCA5
:101C2000170E0C01636F32EC03F000C05EFCE10E96
:101C30000C015C6F190E5D6F5ACC5FFCCDEC05F0AA
:101C4000220E0C0150255C6F000E51215D6F330E8A
:101C5000006E000E016E4DCC04F0000E056E9FEC80
:101C600003F0D50E00260A0E01222E0E0024D96E96
:101C7000000E0120DA6EDE505C27DE505D23F4ECAE
:041C800004F012005A
:101C84000134083609360450085E0550D8A0053CD6
:101C9400095E003601360F0E0C6E01340836093623
:101CA400045000A006D0085E0550D8A0053C095E8B
:101CB40005D008260550D8B0053C09260036013663
:101CC4000C2EEBD700B006D0045008260550D8B02F
:081CD400053C09260000120086
:101CDC0039CC4CFC3ACC4DFCA00E0C014E6F090ECD
:101CEC004F6F040E506F000E516FE8EC08F03B6B19
:101CFC003B51030821E33B513925026E000E3A217A
:101D0C00036E02C0E9FF03C0EAFFEECF01F0330E11
:101D1C00E96E090EEA6E3B51E926D8B0EA2AFF0EAD
:101D2C00EE18006E0150001202C0E1FF03C0E2FF8A
:0A1D3C0000C0E6FF3B2BDCD71200CD
:101D46000C013DA118D139CC4CFC3ACC4DFC040E0B
:101D56003B25E96E000E3C21EA6EEECF03F003C090
:101D660000F0000E016E003600900136550E00247C
:101D7600E96E050E0120EA6EEECF4EFCEECF4FFC6B
:101D860002EC06F0040E3B25E96E000E3C21EA6EDD
:101D9600EECFE2F939CC4CFC3ACC4DFCB80E4E6F86
:101DA600050E4F6F29EC06F0030E3B25E96E000E7B
:101DB6003C21EA6EEECF4CFC3E0E4D6F0C0E4E6F84
:101DC600A2EC06F0030E3B25E96E000E3C21EA6EFE
:101DD600EECFE1F939CC4CFC3ACC4DFC3F0E4E6FC0
:101DE6000C0E4F6F29EC06F039CC4CFC3ACC4DFC6E
:101DF600B60E4E6F050E4F6F29EC06F039CC4CFC33
:101E06003ACC4DFC050E3B25E96E000E3C21EA6EF0
:101E1600EECF03F003C000F0000E016E0036009016
:101E26000136C60E0024E96E040E0120EA6EEECFDE
:101E36004EFCEECF4FFC29EC06F0050E3B25E96E75
:101E4600000E3C21EA6EEECFD7F939CC4CFC3ACCE9
:101E56004DFCC40E4E6F040E4F6F29EC06F0060EB5
:101E66003B25E96E000E3C21EA6EEECF4CFCEECF30
:101E76004DFC3E0E4E6F0C0E4F6F59EC06F0060EE3
:101E86003B25E96E000E3C21EA6EEECF48FCEECF14
:101E960049FC48CCD5F949CCD6F9E80E046E030EB8
:101EA600056E48CC00F049CC01F0F4EC03F000C01C
:101EB600DAF9000E016EE80E046E030E056E9FEC55
:101EC60003F000C046FC01C047FC4651485D006E69
:101ED60047514959016E640E046E000E056EF4EC0E
:101EE60003F000C0DBF946CC02F0000E036E025090
:101EF600485D026E03504959036E640E0002F3CF2B
:101F060044FCF4CF45FC4451025C006E4551035835
:101F1600016E0A0E046E000E056EF4EC03F000C0AE
:101F2600D8F94651485D026E4451025E0A0E00021F
:101F3600F3CF01F00150025C006E00C0D9F901C078
:101F4600D4F9005001240901D46F39CC4CFC3ACCA9
:101F56004DFC3F0E0C014E6F0C0E4F6F29EC06F038
:101F660039CC4CFC3ACC4DFC340E4E6F040E4F6F00
:101F760029EC06F005D039CCE1FF3ACCE2FFE66A5F
:101F86003DA37AD0020E3B25E96E000E3C21EA6E97
:101F9600EECF4CFC3E0E4D6F0C0E4E6FA2EC06F0D3
:101FA600020E3B25E96E000E3C21EA6EEECFD2F919
:101FB60039CC4CFC3ACC4DFC3F0E4E6F0C0E4F6F9D
:101FC60029EC06F039CC4CFC3ACC4DFC320E4E6F67
:101FD600040E4F6F29EC06F0010E3B25E96E000E4C
:101FE6003C21EA6EEECF4CFC3E0E4D6F0C0E4E6F52
:101FF600A2EC06F0010E3B25E96E000E3C21EA6ECE
:10200600EECFD1F93F51200A02E1300E3F6F39CCB5
:102016004CFC3ACC4DFC3F0E4E6F0C0E4F6F29EC2C
:1020260006F039CC4CFC3ACC4DFCC20E4E6F040E79
:102036004F6F29EC06F03BCCE9FF3CCCEAFFEECF34
:102046004CFC3E0E4D6F0C0E4E6FA2EC06F03BCCD8
:10205600E9FF3CCCEAFFEECFD3F93F51200A02E17B
:10206600300E3F6F39CC4CFC3ACC4DFC3F0E4E6FD8
:102076000C0E4F6F29EC06F03DA535D039CC4CFC43
:102086003ACC4DFC360E4E6F040E4F6F29EC06F01F
:10209600800E000A006E800E04013D19005C0BE202
:1020A60039CC4CFC3ACC4DFCEB0E0C014E6F040EB9
:1020B6004F6F29EC06F039CC4CFC3ACC4DFCB9EC10
:1020C60007F000503925506F01503A21516F3DC439
:1020D6004CFC000E04013DBFFF0E0C014D6F4E6F10
:0820E6004F6FDCEC06F0120064
:1020EE00036A046A080E045C22E203C001F039CCD4
:1020FE0000F0015004E000360090FF0FFBD7800E79
:10210E000014016E01C002F00150800AD8B4808222
:10211E000250000AD8B480920000000000008094A3
:10212E000000000000008084032A042ADBD712007E
:10213E003DCC01F03ECC02F0010E0C013D5F000ED5
:10214E003E5B000E021802E1000E01181FE039CCB2
:10215E00E9FF3ACCEAFF3BCCD9FF3CCCDAFFEE509C
:10216E00DE180FE039CCE9FF3ACCEAFF3BCCD9FFC1
:10217E003CCCDAFFDE50EE5C006E016A000E015AB6
:10218E0007D0394B3A2B3B4B3C2BD2D7006A016A16
:02219E0012002D
:1021A0000C013951000A03E17E0E3A11016E3951DA
:1021B000010A03E1180E3A11016E3951020A03E1D6
:1021C000B60E3A11016E3951030A03E1BC0E3A1101
:1021D000016E3951040A03E1D80E3A11016E3951EA
:1021E000050A03E1EC0E3A11016E3951060A03E1CA
:1021F000EE0E3A11016E3951070A03E1380E3A1119
:10220000016E3951080A03E1FE0E3A11016E39518F
:10221000090A03E1FC0E3A11016E39510A0A03E181
:10222000F20E3A11016E39510B0A03E1720E3A11A6
:10223000016E39510C0A03E1780E3A11016E3951E1
:102240000D0A03E1E60E3A11016E39510E0A03E15F
:10225000040E3A11016E39510F0AD8B4016A39518E
:10226000100A02E1010E016E3951110A02E1800EDD
:08227000016E01C000F0120034
:1022780039CC02F03ACC03F03CCC00F03DCC01F074
:10228800010E0C013C5F000E3D5B0050011009E09F
:1022980002C0E1FF03C0E2FF3BCCE6FF024A032A8B
:0C22A800EBD739CC00F03ACC01F012006A
:1022B4000450000A08E10550000A05E1FF0E006E13
:1022C4007F0E016E57D00D6A096A086A015000102A
:1022D400D8B4000C015005180A6E0ABE0D1E0B6A14
:1022E40005AE05D0041E051E042AD8B4052A01AE85
:1022F40005D0001E011E002AD8B4012A0150051081
:102304000A6E0ABE10D0BCDC0BB020D00DAE000C9F
:10231400001E011E002AD8B4012A081E091E082A1C
:10232400D8B4092A000C05AE0DD001BE07D0015067
:10233400096E0050086E016A006AE8D7016A006AF3
:10234400002A000C011E001E0B2ADDD7082AD8B46F
:10235400092A0450085CD8A4D9D70550095CD8A42C
:10236400D5D7096A086A002AD8B4012A01AECED7A3
:062374000000FF0C120046
:10237A000C013C51FF0A02E1FF0E3B1907E0666BB4
:10238A003BCC67FC3CCC68FC94EC01F089989EC974
:10239A00E1FF9FC9E2FF3A0EE66E9CC900F09DC9B3
:1023AA0001F0B8EC00F03DCC00F03ECC01F0010E9B
:1023BA000C013D5F000E3E5B0050011015E09EC906
:1023CA00E1FF9FC9E2FFE66A9CC900F09DC901F0DE
:1023DA00B8EC00F039CCE1FF3ACCE2FF00C0E6FFEE
:0C23EA000C01394B3A2BDFD78988120018
:1023F60039CCE1FF3ACCE2FFE66A0C013D6B040EF4
:102406003D5D2FE23D513B25E96E000E3C21EA6E13
:10241600EECF4CFC000E4D6F4E6F4F6F000E4D6FA2
:102426004E6F4F6F3E0E506F0C0E516FDCEC06F088
:1024360039CC4CFC3ACC4DFC3E0E4E6F0C0E4F6F19
:1024460029EC06F03D51030A0AE039CC4CFC3ACCA3
:102456004DFCA20E4E6F000E4F6F29EC06F03D2B81
:04246600CED71200BB
:10246A00F2C4E9FFF3C4EAFFEE50000A08E0000EE6
:10247A000401F31902E1000EF21901E005D004018A
:10248A00E30EF26F090EF36FF2C44CFCF3C44DFC79
:10249A00B9EC07F000C03AFC100E005C23E23B0ED8
:1024AA004C6F0C0E4D6FF2C44EFCF3C44FFC3ACC89
:1024BA0050FC000E516FD6EC07F03B0E4C6F0C0E21
:1024CA004D6F3A514C27D8B04D2BE30E4E6F090E83
:1024DA004F6F3A511008506F516B000E515BD6EC9A
:1024EA0007F00ED03B0E4C6F0C0E4D6FF2C44EFC33
:1024FA00F3C44FFC100E506F000E516FD6EC07F06C
:04250A004B6B120005
:10250E0089989EC9E1FF9FC9E2FF3A0EE66E9CC90B
:10251E0000F09DC901F0B8EC00F09EC9E1FF9FC923
:10252E00E2FFE66A9CC900F09DC901F0B8EC00F02C
:04253E008988120076
:1025420089989EC9E1FF9FC9E2FF7A0EE66E9CC997
:1025520000F09DC901F0B8EC00F03CCC00F03DCC9D
:1025620001F0010E0C013C5F000E3D5B00500110BA
:102572001CE09EC9E1FF9FC9E2FF39CCF6FF3ACCCD
:10258200F7FF3BCCF8FF0900F5CF00F000C0E6FFF3
:102592009CC900F09DC901F0B8EC00F0010E0C01DD
:0E25A2003927000E3A233B23D8D78988120030
:1025B000AF0E0C014C6F190E4D6F39CC4EFC3ACC5E
:1025C0004FFC060E506F000E516FB4EC08F0C30EB6
:1025D0005C6F090E5D6F060E5E6F000E5F6FC7ECDD
:1025E00003F0000E4C6F080E4D6FFEEC07F01C0E52
:1025F0000C014125446F000E4221456F000E4C6FC7
:10260000450E4D6FFEEC07F044CC4CFC45CC4DFC28
:10261000FEEC07F068C94CFC69C94DFCFEEC07F004
:102620000901684B692B0C014C6B4D6BFEEC07F0FC
:10263000110E0C014C6F800E4D6FFEEC07F00C017B
:102640004C6B4D6BFEEC07F0A00E0C015C6F090E9D
:102650005D6F040E5E6F000E5F6FC7EC03F03BCC46
:102660005CFC3CCC5DFC040E5E6F000E5F6FC7EC43
:1026700003F0080E4125446F000E4221456F3DCC0A
:102680004CFC3ECC4DFCFEEC07F03FCC4CFC40CC6F
:102690004DFCFEEC07F044CC4CFC45CC4DFCFEEC74
:1026A00007F00C014C6B4D6BFEEC07F0BD0E0C01FE
:1026B0005C6F190E5D6F140E5E6F000E5F6FD8ECCD
:1026C00005F0160E0C01636F32EC03F000C046FCFF
:1026D000170E0C01636F32EC03F000C05EFCC70EF6
:1026E0000C015C6F190E5D6F46CC5FFCCDEC05F004
:1026F000010E0C014415436FD90E4125636F190E6D
:102700004221646F656B11EC03F0C90E0C014C6F34
:10271000190E4D6FD10E4E6F190E4F6FD90E412508
:10272000506F190E4221516F43515027000E512313
:10273000526B25EC08F0D90E41255C6F190E422131
:102740005D6F43515C27000E5D23080E5C27000E71
:102750005D235E6B110E5F6FCDEC05F045CC63FC25
:1027600086EC03F044CC63FC86EC03F0D10E0C0144
:102770005C6F190E5D6F0C0E44255E6F000E4521D7
:102780005F6F43515E27000E5F23D8EC05F0160EF5
:102790000C01636F32EC03F000C046FC170E0C0115
:1027A000636F32EC03F000C05EFCD70E0C015C6F6F
:1027B000190E5D6F46CC5FFCCDEC05F02A0E0C01C6
:1027C00041255C6F000E42215D6FF4EC04F0000EB9
:0427D000016E120084
:1027D4000C013A51020AD8B497D0330E006E000EA1
:1027E400016E3BCC04F0000E056E9FEC03F0D50E99
:1027F4000024066E0A0E0120076E2C0E0624E96ED4
:10280400000E0720EA6E010EEE24026E000EEE208A
:10281400036E000E006E020E016E010E005E000ECD
:10282400015A00500214046E03500114056E04C0D2
:102834003CFC05C03DFC280E0624D96E000E072082
:10284400DA6EDECF01F0DECF02F00550021802E1AD
:102854000150041819E1330E006E000E016E3BCCDA
:1028640004F0000E056E9FEC03F0D50E00260A0E50
:102874000122300E0024E16E000E0120E26E010EF2
:10288400E66E020E006EACD1330E006E000E016EC9
:102894003BCC04F0000E056E9FEC03F0D50E002433
:1028A400026E0A0E0120036E310E0224006E000E29
:1028B4000320016E2C0E0224D96E000E0320DA6E62
:1028C40000C0E9FF01C0EAFFDE50EE24E16EDE50F5
:1028D400EE20E26E39CCE6FF330E006E000E016E80
:1028E4003BCC04F0000E056E9FEC03F0D50E0026E1
:1028F4000A0E01222C0E0024E16E000E0120E26E6D
:102904003CCCE6FF3DCCE6FF3A510008D8B066D196
:10291400330E006E000E016E3BCC04F0000E056E0B
:102924009FEC03F0D50E00260A0E01222C0E002483
:10293400E96E000E0120EA6EEECF03F0EECF04F054
:102944002A0E0024D96E000E0120DA6EDECF01F0CB
:10295400DECF02F00250045C02E10150035C25E288
:10296400330E006E000E016E3BCC04F0000E056EBB
:102974009FEC03F0D50E00260A0E01222C0E002433
:10298400E96E000E0120EA6E000EEE243C6F020E8A
:10299400EE203D6F2A0E0024D96E000E0120DA6E5F
:1029A400DE503C5FDE503D5B20D0330E006E000EE7
:1029B400016E3BCC04F0000E056E9FEC03F0D50EC7
:1029C40000260A0E01222C0E0024E96E000E0120BE
:1029D400EA6E2A0E0024D96E000E0120DA6EDE5053
:1029E400EE5C3C6FDE50EE583D6F330E006E000E11
:1029F400016E3BCC04F0000E056E9FEC03F0D50E87
:102A040000260A0E0122100E0024D96E000E0120A9
:102A1400DA6EDECF01F0DECF02F03D51025C02E15E
:102A24003C51015C18E2330E006E000E016E3BCC8B
:102A340004F0000E056E9FEC03F0D50E00260A0E7E
:102A44000122100E0024E96E000E0120EA6EEECF82
:102A54003CFCEECF3DFC330E006E000E016E3BCC11
:102A640004F0000E056E9FEC03F0D50E00260A0E4E
:102A740001222E0E0024E16E000E0120E26E3CCCF9
:102A8400E6FF3DCCE6FF330E006E000E016E3BCC3C
:102A940004F0000E056E9FEC03F0D50E00260A0E1E
:102AA4000122260E0024E16E000E0120E26E2A0EA1
:102AB4000024E96E000E0120EA6EEECFE6FFEECFB1
:102AC400E6FF330E006E000E016E3BCC04F0000EE8
:102AD400056E9FEC03F0D50E00260A0E01222A0E85
:102AE4000024046E000E0120056E04C0E9FF05C039
:102AF400EAFF3C51EE24026E3D51EE20036E000EBF
:102B0400006E020E016E010E005E000E015A0250AC
:102B140000160350011604C0E1FF05C0E2FF00C027
:102B2400E6FF01C0E6FF330E006E000E016E3BCCE3
:102B340004F0000E056E9FEC03F0D50E00260A0E7D
:102B440001222A0E0024E96E000E0120EA6EEECF67
:102B540003F0EECF04F02C0E0024D96E000E0120F9
:102B6400DA6EDECF01F0DECF02F00450021802E18B
:102B74000150031816E0330E006E000E016E3BCCBC
:102B840004F0000E056E9FEC03F0D50E00260A0E2D
:102B94000122300E0024E16E000E0120E26E010ECF
:102BA400E66E330E006E000E016E3BCC04F0000E98
:102BB400056E9FEC03F0D50E00260A0E01221F0EAF
:102BC4000024E16E000E0120E26E030EE66E100E8C
:102BD4004C6F3BCC4DFC10EC09F002D0030E006EA0
:022BE4001200DD
:102BE60013CC02F014CC03F016CC00F017CC01F095
:102BF600010E0C01165F000E175B0050011009E074
:102C060002C0E1FF03C0E2FF15CCE6FF024A032A39
:0C2C1600EBD713CC00F014CC01F012003E
:102C2200330E0C014C6F090E4D6F13CC4EFC14CCBD
:102C32004FFC040E506F000E516FE8EC08F0A60E28
:102C42004C6F090E4D6F15CC4EFC16CC4FFC040E8A
:102C5200506F000E516FE8EC08F0AA0E4C6F090E8F
:102C62004D6F17CC4EFC18CC4FFC040E506F000E6B
:102C7200516FE8EC08F02D0E396F090E3A6F6EECC9
:042C82000EF012003E
:102C8600640E046EBDC500F0E5EC04F000C013FC54
:102C9600640E0002F3CF00F0F4CF01F000500501FE
:102CA600BD5D0C01166F01C017FC000E17570A0E0A
:102CB600046E000E056E16CC00F017CC01F05AEC2F
:102CC60011F000C014FC0A0E0002F3CF00F0005011
:102CD6000C01165D156F80960F0E396F3A6BD0ECAE
:102CE60010F000C039FC77EC10F00F0E0C01396FB4
:102CF6003A6BD0EC10F000C039FC77EC10F00F0EF8
:102D06000C01396F3A6BD0EC10F000C039FC77EC4F
:102D160010F015CC39FC0C013A6BD0EC10F000C069
:102D260039FC77EC10F014CC39FC0C013A6BD0EC82
:102D360010F000C039FC77EC10F013CC39FC0C0114
:102D46003A6BD0EC10F000C039FC77EC10F08086BE
:102D56000400520E0B6E2B0E0C6E000E0D6E0D2E19
:102D6600FED70C2EFCD70B2EFAD700000400809657
:102D76000F0E0C01396F3A6BD0EC10F000C039FC25
:102D860077EC10F00F0E0C01396F3A6BD0EC10F0A7
:102D960000C039FC77EC10F00F0E0C01396F3A6B5E
:102DA600D0EC10F000C039FC77EC10F00F0E0C01DF
:102DB600396F3A6BD0EC10F000C039FC77EC10F0AC
:102DC6000F0E0C01396F3A6BD0EC10F000C039FCD5
:102DD60077EC10F00F0E0C01396F3A6BD0EC10F057
:102DE60000C039FC77EC10F080860400150E0B6EDF
:102DF6004B0E0C6EBE0E0D6E0D2EFED70C2EFCD796
:0A2E06000B2EFAD7000004001200A2
:102E100013CC39FC0C013A6B230E1425E96E000E1D
:102E20001521EA6EEECF3BFCD5DC020E005E1200EF
:102E30000C01156B3C0E0901AE6F000EAF6FB06F49
:102E4000B16F87EC12F000C013FC0050020AD8A446
:102E50002FD10C01146B0F0E145D05E287EC12F0FC
:102E60000C01142BF8D7370E396F090E3A6FFF0E8D
:102E70003B6FFF0E3C6F040E3D6F000E3E6FBDECCE
:102E800011F0146B080E145D05E287EC12F00C01D2
:102E9000142BF8D7146B060E145D13E287EC12F0B6
:102EA00000C013FCC30ED96E090EDA6E0C0114516A
:102EB000D926D8B0DA2A0050DE1801E025D1142B2B
:102EC000EAD7146BCE0E145D05E287EC12F00C010C
:102ED000142BF8D7166B87EC12F000C013FCC9D086
:102EE00087EC12F000C013FC0050010A05E187ECEA
:102EF00012F000C015FC01D007D1D6D087EC12F03B
:102F000000C013FC0050040A10E1070E0C01396FD9
:102F1000070E3A6FFF0E3B6FFF0E3C6F040E3D6FC6
:102F2000000E3E6FBDEC11F001D0EED0BDD087ECAD
:102F300012F000C013FC040E005C10E30B0E0C0139
:102F4000396F070E3A6FFF0E3B6FFF0E3C6F040E9A
:102F50003D6F000E3E6FBDEC11F001D0D5D00C01DD
:102F6000040E135F0C0113CC00F01307005203E0B2
:102F700087EC12F0F7D798D087EC12F000C013FC62
:102F8000040E005C10E3250E0C01396F090E3A6F38
:102F9000FF0E3B6FFF0E3C6F040E3D6F000E3E6F49
:102FA000BDEC11F001D0B0D00C01040E135F0C0188
:102FB00013CC00F01307005203E087EC12F0F7D7B0
:102FC00073D087EC12F000C013FC0050040A10E12B
:102FD000170E0C01396F0C0E3A6FFF0E3B6FFF0E90
:102FE0003C6F040E3D6F000E3E6FBDEC11F001D042
:102FF0008BD05AD00C01010E166F56D087EC12F010
:1030000000C013FC0050040A24E1AE0E0C01396F1D
:10301000090E3A6FFF0E3B6FFF0E3C6F040E3D6FC3
:10302000000E3E6FBDEC11F00901B151000808E13E
:10303000B051000805E1AF51070802E1AE510808A0
:1030400007E2080EAE5F070EAF5B000EB05BB15B30
:1030500001D05AD029D087EC12F000C013FC13CC59
:1030600000F00C011307005203E087EC12F0F7D7D1
:103070001BD00C011351350AD8B432D71351010AB1
:10308000D8B43CD71351030AD8B451D71351060A08
:10309000D8B472D71351360A94E01351FF0AAAE04C
:1030A0001351330AABE0D7D70C011653D8B413D75A
:1030B0000C011551020A0FE1290E4C6F090E4D6FDC
:1030C000170E4E6F0C0E4F6F040E506F000E516FA7
:1030D000E8EC08F016D0290E396F090E3A6F170E7A
:1030E0003B6F0C0E3C6F040E3D6F000E3E6F9FEC6D
:1030F00010F0000E011802E1000E001802E00C01B1
:0C310000156B15CC00F001D0006A120025
:10310C00F90E0C01166F000E176F020E666FD90EBA
:10311C00676F190E686F94EC01F0E00E0C01396FBB
:10312C00990E3A6F000E3B6F0C0E3C6F000E3D6F0C
:10313C00A1EC12F01351030A0DE114530BE0370EFE
:10314C005C6F090E5D6F040E5E6F000E5F6FC7EC57
:10315C0003F00AD0156B040E155D06E2636B86EC6A
:10316C0003F00C01152BF7D7156B0C0E155D06E251
:10317C00636B86EC03F00C01152BF7D7C30E5C6F59
:10318C00090E5D6F060E5E6F000E5F6FC7EC03F0ED
:10319C00156BCA0E155D06E2636B86EC03F00C0131
:1031AC00152BF7D73B0E396F9A0E3A6F000E3B6F0B
:1031BC00060E3C6F000E3D6FA1EC12F013CC63FCBD
:1031CC0086EC03F00C011351030A1AE1145318E1B5
:1031DC00360E636F86EC03F0040E0C01636F86EC05
:1031EC0003F0290E0C015C6F090E5D6F040E5E6F0F
:1031FC00000E5F6FC7EC03F0060E1627000E1723A8
:10320C00410E396F9A0E3A6F000E3B6F050E3C6FF4
:10321C00000E3D6FA1EC12F01351030A23E114537D
:10322C0021E1320E636F86EC03F0040E0C01636F28
:10323C0086EC03F00C01156B040E155D0FE2370ED6
:10324C00E96E090EEA6E1551E926D8B0EA2AEECFDE
:10325C0063FC86EC03F00C01152BEED7060E16273B
:10326C00000E1723FF0E636F86EC03F0080E0C01A3
:10327C00396F040E3A6F080E3B6F040E3C6F440E10
:10328C003D6F000E3E6F430E3F6F000E406F16CC2D
:0C329C0041FC17CC42FCD8EC12F01200F0
:1032A80017CC01F018CC02F0010E0C01175F000ECC
:1032B800185B000E021802E1000E01181FE013CC83
:1032C800E9FF14CCEAFF15CCD9FF16CCDAFFEE5093
:1032D800DE180FE013CCE9FF14CCEAFF15CCD9FFB8
:1032E80016CCDAFFDE50EE5C006E016A000E015A61
:1032F80007D0134B142B154B162BD2D7006A016A33
:023308001200B1
:10330A000C01196B1A6B13CC00F014CC01F0134B9F
:10331A00142B00C0E9FF01C0EAFFEECF17FC000E34
:10332A00186F000E186F1751181114E017CC39FCDA
:10333A003A6B230E1525E96E000E1621EA6EEECFC2
:10334A003BFCEAEC13F00050020A01E103D0194BEE
:0E335A001A2BD9D719CC00F01ACC01F01200B2
:10336800280E0C011325E96E000E1421EA6EEECF2B
:1033780003F0EECF04F02C0E1325D96E000E1421A5
:10338800DA6EDECF01F0DECF02F00450021802E15F
:103398000150031803E1010E006E01D0006A12000B
:0833A800020E0401E46F1200A3
:1033B00013CC19FC14CC1AFC15CC1BFC16CC1CFC31
:1033C000800E046E510E056E010E066E000E076E25
:1033D00013CC00F014CC01F015CC02F016CC03F0A5
:1033E0000FEC04F000C019FC01C01AFC02C01BFC69
:1033F00003C01CFC0401175100240C01196F0401C7
:10340000185101200C011A6F0401195102200C01FE
:103410001B6F04011A5103200C011C6F800E16193A
:10342000006E800E005C08E1000E155D05E1000EE7
:10343000145D02E1000E135D06E2010E195F000E3D
:103440001A5B1B5B1C5B040E1725296F000E1821ED
:103450002A6F070E046E000E056E066E076E19CCFD
:1034600000F01ACC01F01BCC02F01CCC03F00FECE6
:1034700004F008C000F009C001F00AC002F00BC05F
:1034800003F029CCE1FF2ACCE2FF00C0E6FFD90E11
:103490000C011925296F0B0E1A212A6F010E1B2111
:1034A0002B6F000E1C212C6F29CC25FC2ACC26FC6E
:1034B0002BCC27FC2CCC28FC29CC00F02ACC01F00A
:1034C0002BCC02F02CCC03F00036009001360236F3
:1034D000033600360090013602360336B10E046E14
:1034E0003A0E056E020E066E000E076E0FEC04F02B
:1034F00000C035FC01C036FC02C037FC03C038FCFC
:10350000B10E006E3A0E016E020E026E000E036ED8
:1035100035CC04F036CC05F037CC06F038CC07F0CB
:10352000BCEC04F0030E0026000E0122022203224E
:10353000040E046E000E056E066E076E0FEC04F0AE
:1035400029CC2DFC2ACC2EFC2BCC2FFC2CCC30FCF7
:1035500000500C012D5F01502E5B02502F5B035079
:10356000305B2DCC25FC2ECC26FC2FCC27FC30CC80
:1035700028FC010E2D25006E000E2E21016E000E7E
:103580002F21026E000E3021036EA00E046E0F0E6E
:10359000056E000E066E076EBCEC04F0090E046E9C
:1035A0004B0E056E160E066E000E076E0FEC04F045
:1035B00000C031FC01C032FC02C033FC03C034FC4B
:1035C000B50E006E050E016E000E026E036E31CC5C
:1035D00004F032CC05F033CC06F034CC07F0BCEC70
:1035E00004F0040E046E000E056E066E076E0FECFE
:1035F00004F01F0E005E000E015A025A035A2DCC31
:1036000029FC2ECC2AFC2FCC2BFC30CC2CFC0050DF
:103610000C01295F01502A5B02502B5B03502C5B8D
:1036200029CC25FC2ACC26FC2BCC27FC2CCC28FC36
:10363000500E006E000E016E026E036E29CC04F077
:103640002ACC05F02BCC06F02CCC07F0BCEC04F017
:1036500000C01DFC01C01EFC02C01FFC03C020FCFA
:103660008F0E046E090E056E000E066E076E0FECCF
:1036700004F000C02DFC01C02EFC02C02FFC03C0D2
:1036800030FC2DCC1DFC2ECC1EFC2FCC1FFC30CCD6
:1036900020FC8F0E006E090E016E000E026E036E8E
:1036A0002DCC04F02ECC05F02FCC06F030CC07F05A
:1036B000BCEC04F0500E046E000E056E066E076E34
:1036C0000FEC04F029CC21FC2ACC22FC2BCC23FCCF
:1036D0002CCC24FC00500C01215F0150225B0250D5
:1036E000235B0350245B0B0E046E000E056E066E0A
:1036F000076E2DCC00F02ECC01F02FCC02F030CC98
:1037000003F00FEC04F000C029FC01C02AFC02C049
:103710002BFC03C02CFC29CC25FC2ACC26FC2BCC72
:1037200027FC2CCC28FC020E0C012D251D6F000E51
:103730002E211E6F000E2F211F6F000E3021206FD3
:103740000C0E006E000E016E026E036E29CC04F0AA
:103750002ACC05F02BCC06F02CCC07F0BCEC04F006
:1037600000501D5F01501E5B02501F5B0350205B29
:1037700035CC00F036CC01F037CC02F038CC03F079
:10378000310E005E000E015A025A035A640E046E96
:10379000000E056E066E076EBCEC04F0315100267B
:1037A0003251012233510222345103222951002681
:1037B0002A5101222B5102222C510322060E1725D9
:1037C000E16E000E1821E26E00C0E6FF01C0E6FFC8
:1037D000050E1725E16E000E1821E26E1DCCE6FFE6
:1037E000030E1725E16E000E1821E26E21CCE6FFD4
:1037F000800E1619006E800E005C08E1000E155D4B
:1038000005E1000E145D02E1000E135D43E213CCEE
:1038100000F014CC01F015CC02F016CC03F0FF0E32
:10382000046EFF0E056E066E076EBCEC04F000C061
:1038300013FC01C014FC02C015FC03C016FC800E72
:10384000046E510E056E010E066E000E076E0FEC33
:1038500004F008C000F009C001F00AC002F00BC07B
:1038600003F000C013FC01C014FC02C015FC03C02F
:1038700016FC800E0C01136F510E146F010E156FA4
:10388000000E166F0050135F0150145B0250155B61
:103890000350165B800E046E510E056E010E066E0F
:1038A000000E076E13CC00F014CC01F015CC02F022
:1038B00016CC03F00FEC04F008C000F009C001F0D2
:1038C0000AC002F00BC003F000C025FC01C026FCBA
:1038D00002C027FC03C028FC100E046E0E0E056EFD
:1038E000000E066E000E076E0FEC04F000C021FC07
:1038F00001C022FC02C023FC03C024FC020E0C0108
:103900001725E16E000E1821E26E00C0E6FF25CCFF
:1039100021FC26CC22FC27CC23FC28CC24FC020E44
:103920001725E96E000E1821EA6EEECF00F0000EAA
:10393000016E026E036E100E046E0E0E056E000E0A
:10394000066E000E076EBCEC04F025CC04F026CC0D
:1039500005F027CC06F028CC07F00050045E01509B
:10396000055A0250065A0350075A04C021FC05C0EC
:1039700022FC06C023FC07C024FC04C000F005C0E4
:1039800001F006C002F007C003F03C0E046E000E0A
:10399000056E000E066E000E076E0FEC04F000C000
:1039A00021FC01C022FC02C023FC03C024FC010E48
:1039B0000C011725E16E000E1821E26E00C0E6FF33
:1039C0003C0E046E000E056E000E066E000E076EB5
:1039D00025CC00F026CC01F027CC02F028CC03F057
:1039E0000FEC04F008C000F009C001F00AC002F0BA
:1039F0000BC003F000C021FC01C022FC02C023FC6C
:103A000003C024FC17CCE1FF18CCE2FF00C0E6FFA6
:023A10001200A2
:103A1200250E0C011325E16E000E1421E26E050E37
:103A2200E66E1E0E1325E16E000E1421E26E030EE9
:103A3200E66E280E1325E16E000E1421E26EE66A90
:103A4200E66A2A0E1325E16E000E1421E26EE66A82
:103A5200E66A2C0E1325E16E000E1421E26EE66A70
:103A6200E66A110E4C6F230E1325E96E000E142127
:0C3A7200EA6EEECF4DFC10EC09F01200E3
:103A7E000A0E046ED3C900F0E5EC04F000C0CDFAD6
:103A8E000A0E0002F3CF00F000500901D35D0A01C7
:103A9E00CC6F0A0E046ED1C900F0E5EC04F000C044
:103AAE00B7FA0A0E0002F3CF00F000500901D15D03
:103ABE000A01B46F0A0E046ED2C900F0E5EC04F0F0
:103ACE0000C0B3FA0A0E0002F3CF00F00050090155
:103ADE00D25D0A01B66F0A0E046EE1C900F0E5EC84
:103AEE0004F000C0B5FA0A0E0002F3CF00F0005049
:103AFE000901E15D0A01CE6F0A0E046ED7C900F00E
:103B0E00E5EC04F000C0D2FA0A0E0002F3CF00F08A
:103B1E0000500901D75D0A01D16F0A0E046ED4C997
:103B2E0000F0E5EC04F000C0D4FA0A0E0002F3CF68
:103B3E0000F000500901D45D0A01D36F06018E51C9
:103B4E00010A44E180960000000000003AC639FCEC
:103B5E000C013A6BD0EC10F000C039FC77EC10F091
:103B6E003AC639FC0C013A6BD0EC10F000C039FCAF
:103B7E0077EC10F03AC639FC0C013A6BD0EC10F031
:103B8E0000C039FC77EC10F03AC639FC0C013A6BE8
:103B9E00D0EC10F000C039FC77EC10F03AC639FCCE
:103BAE000C013A6BD0EC10F000C039FC77EC10F041
:103BBE003AC639FC0C013A6BD0EC10F000C039FC5F
:103BCE0077EC10F0000000000000808606018E5198
:103BDE00020A44E18096000000000000D3CA39FCBE
:103BEE000C013A6BD0EC10F000C039FC77EC10F001
:103BFE00D4CA39FC0C013A6BD0EC10F000C039FC81
:103C0E0077EC10F0D1CA39FC0C013A6BD0EC10F005
:103C1E0000C039FC77EC10F0D2CA39FC0C013A6BBB
:103C2E00D0EC10F000C039FC77EC10F0CECA39FCA5
:103C3E00A6C63AFCD0EC10F000C039FC77EC10F0C0
:103C4E00B5CA39FCA5C63AFCD0EC10F000C039FC60
:0E3C5E0077EC10F000000000000080861200DD
:103C6C009ED0E30E0C01396F090E3A6F3B6BC80EF8
:103C7C003C6F000E3D6F3CEC11F006012B512C11EA
:103C8C002D112E1146E0E30E0C014C6F090E4D6FF9
:103C9C002F0E4E6F060E4F6F02EC06F0E30E4C6FBC
:103CAC00090E4D6FB9EC07F0E30E0024396F090EC5
:103CBC0001203A6FAB0E3B6F0A0E3C6F010E3D6F4D
:103CCC00A3EC0EF0E30E4C6F090E4D6FCA0E4E6F47
:103CDC00050E4F6F29EC06F0E30E4C6F090E4D6F7D
:103CEC00B9EC07F0E30E0024396F090E01203A6F8E
:103CFC00BA0E3B6F050E3C6FFBEC11F0E30E4C6FF4
:103D0C00090E4D6F630E4E6F050E4F6F29EC06F0CA
:103D1C0027D00C01E30E4C6F090E4D6F860E4E6FC3
:103D2C00050E4F6F02EC06F0E30E4C6F090E4D6F53
:103D3C00B9EC07F0E30E0024396F090E01203A6F3D
:103D4C00BA0E3B6F050E3C6FFBEC11F0E30E4C6FA3
:103D5C00090E4D6F370E4E6F050E4F6F29EC06F0A6
:103D6C0013CC39FC35EC12F025D0E30E396F090E6B
:103D7C003A6FAB0E3B6F0A0E3C6F010E3D6FA3EC1E
:103D8C000EF018D0E30E396F090E3A6FAB0E3B6F85
:103D9C000A0E3C6F020E3D6FA3EC0EF00BD00C0123
:103DAC001451000AD8B45DD71451010ADEE0145145
:063DBC00020AE8E012001B
:103DC200B50E0C014C6F190E4D6FBB0E4E6F190ED6
:103DD2004F6FAF0E506F190E516F526B25EC08F0FA
:103DE200B50E4C6F190E4D6FC30E4E6F090E4F6F0D
:0E3DF200060E506F000E516FB4EC08F0120078
:103E00000C01636B32EC03F000C091FB010E0C015E
:103E1000636F32EC03F000C092FB0C01666B8CCB3D
:103E200067FC8DCB68FC94EC01F089989EC9E1FF9A
:103E30009FC9E2FF3A0EE66E9CC900F09DC901F0F1
:103E4000B8EC00F00B01905318E09EC9E1FF9FC948
:103E5000E2FFE66A9CC900F09DC901F0B8EC00F0F1
:103E60008ECBD9FF8FCBDAFF0050DE1801E005D0F2
:103E70000B018E4B8F2B9007E5D789880C01666B61
:103E800091CB67FC92CB68FC94EC01F090CB00F0F6
:023E900012001E
:103E92000B018D51190802E18C51AD0808E2AD0EFB
:103EA2008C5F190E8D5B010E8C5F000E8D5B0C0119
:103EB200666B8CCB67FC8DCB68FC94EC01F0120036
:103EC200BBD0A00E0C01136F090E146F156B040EFC
:103ED200166F000E176FF3EC15F0010E136F146BD3
:103EE20086EC18F02AC421F92BC422F92CC423F938
:103EF2002DC424F9030E0401296FB1D0050E090166
:103F02002125016E000E2221026E000E2321036E76
:103F1200000E2421046E04012D51045C08E12C5191
:103F2200035C05E12B51025C02E12A51015C02E2D1
:103F3200020E296F18EC17F00050020A04E1040E79
:103F42000401296F01D08BD0030E0C01136FFFC344
:103F520014FC86EC18F02AC421F92BC422F92CC4D3
:103F620023F92DC424F9050E0401296F78D018EC29
:103F720017F000C08CFB0050060A04E1040E040195
:103F8200296F2FD00B018C51050A2BE12AC421F98C
:103F92002BC422F92CC423F92DC424F9060E0401E2
:103FA200296FA00E0C014C6F090E4D6F370E4E6F2C
:103FB200090E4F6F040E506F000E516FE8EC08F0BF
:103FC200070E136F070E146F0B0E156F070E166F89
:103FD200250E176F090E186F11EC16F00301FF6B17
:103FE2003ED03DD0010E09012125016E000E222195
:103FF200026E000E2321036E000E2421046E045073
:1040020004012D5D08E103502C5D05E102502B5D9A
:1040120002E101502A5D0FE3010E0901AE5F000EBD
:10402200AF5BB05BB15B2AC421F92BC422F92CC46B
:1040320023F92DC424F913D004012951020AD8B45A
:1040420040D72951030AD8B459D72951040AD8B400
:104052007BD72951050A8BE02951060AC3E01200D9
:1040620087EC12F087EC12F087EC12F000C08DFBA7
:1040720087EC12F000C08CFB87EC12F000C08FFBC3
:1040820087EC12F000C08EFB87EC12F000C091FBAF
:1040920087EC12F000C090FB87EC12F087EC12F074
:1040A20087EC12F087EC12F08ECB00F08FCB01F090
:1040B200010E0B018E5F000E8F5B005001100EE0AF
:1040C20087EC12F0005201E0FBD787EC12F087EC8C
:1040D20012F087EC12F087EC12F0E6D790CB00F0EA
:1040E20091CB01F0010E0B01905F000E915B00502D
:1040F200011048E087EC12F087EC12F087EC12F026
:1041020000C095FB87EC12F000C094FB87EC12F024
:1041120087EC12F087EC12F087EC12F087EC12F0C9
:1041220087EC12F087EC12F000C093FB87EC12F0E0
:1041320000C092FB000E0B01951902E1010E9419C9
:1041420011E187EC12F000C06EF987EC12F000C0AA
:104152006FF987EC12F000C070F987EC12F000C022
:1041620071F910D092CB00F093CB01F0010E0B014C
:10417200925F000E935B0050011003E087EC12F097
:06418200F1D7ACD71200DA
:104188008CCB39FC8DCB3AFC080E0C013B6F040E2E
:104198003C6F040E3D6F000E3E6F9FEC10F0000E5A
:1041A800011802E1000E001803E1020E006E19D09A
:1041B8008CCB39FC8DCB3AFC2D0E0C013B6F090ED4
:1041C8003C6F040E3D6F000E3E6F9FEC10F0000E2A
:1041D800011802E1000E001803E1010E006E01D083
:0441E800006A120057
:1041EC000C0E0B018C25E96E000E8D21EA6EEECFC4
:1041FC0001F0EECF02F00250270A02E1110E011875
:10420C0044E10E0E8C25E96E000E8D21EA6EEECF88
:10421C0001F0EECF02F0000E021802E1090E0118B7
:10422C0034E1926B090E925D13E2930EA76F0B0EA5
:10423C00A86F9251A727D8B0A82B87EC12F0A7CB68
:10424C00E1FFA8CBE2FF00C0E6FF0B01922BEAD7FF
:10425C009351490A1AE19451440A17E19551450AC0
:10426C0014E196514E0A11E19751540A0EE19851FE
:10427C00490A0BE19951460A08E19A51590A05E19C
:10428C009B51210A02E143EC16F00C0E0B018C251C
:10429C00E96E000E8D21EA6EEECF01F0EECF02F04A
:1042AC00000E021802E17B0E0118D8A4AED00E0E3F
:1042BC008C25E96E000E8D21EA6EEECF01F0EECF6B
:1042CC0002F0000E021802E1300E0118D8A499D0A9
:1042DC0087EC12F000C0EAF487EC12F000C0F4F4A2
:1042EC0087EC12F087EC12F000C0F5F40B01926B26
:1042FC00240E925D05E287EC12F00B01922BF8D79D
:10430C0087EC12F000C091FB87EC12F000C090FB20
:10431C0087EC12F000C08FFB87EC12F000C08EFB14
:10432C008ECBA7FB8FCBA8FB90CBA9FB91CBAAFB89
:10433C00800E0B01A75F7E0EA85BAA0EA95B830EF5
:10434C00AA5BA7CBEEF4A8CBEFF4A9CBF0F4AACBE5
:10435C00F1F4A7CB2BF6A8CB2CF6A9CB2DF6AACB38
:10436C002EF6E30E0401F26F090EF36FE96BE36BAB
:10437C00E4C400F0000EE4BFFF0E016E026E036E8B
:10438C00100E046E0E0E056E000E066E000E076EFD
:10439C00BCEC04F000500B01A7250C01136F01506D
:1043AC000B01A8210C01146F02500B01A9210C0167
:1043BC00156F03500B01AA210C01166FAB0E176F72
:1043CC000A0E186FD8EC19F00401E06BE16BD4EC19
:1043DC0019F0E2530FE0010E0C01136F3BC414FCF7
:1043EC003FDC020E136F3CC414FC3ADC0401E26B9C
:1043FC00F24BF32BE06BE16BE56BE66B3FEC1DF0E6
:10440C0003D0006A016A04D003D0006A016A00D0AC
:02441C0012008C
:10441E00330E006E000E016E8CCB04F0000E056E96
:10442E009FEC03F0D50E00260A0E0122220E002468
:10443E00E16E000E0120E26E010EE66E330E006E8E
:10444E00000E016E8CCB04F0000E056E9FEC03F097
:10445E00D50E00260A0E0122230E0024E16E000E58
:10446E000120E26E8CCBE6FF330E006E000E016E65
:10447E008CCB04F0000E056E9FEC03F0D50E0026DB
:10448E000A0E0122260E0024E16E000E0120E26EBD
:10449E00E66AE66A330E006E000E016E8CCB04F0F7
:1044AE00000E056E9FEC03F0D50E00260A0E0122BB
:1044BE00280E0024E16E000E0120E26EE66AE66A26
:1044CE00330E006E000E016E8CCB04F0000E056EE6
:1044DE009FEC03F0D50E00260A0E01222A0E0024B0
:1044EE00E16E000E0120E26EE66AE66A330E006EA1
:1044FE00000E016E8CCB04F0000E056E9FEC03F0E7
:10450E00D50E00260A0E01222C0E0024E16E000E9E
:10451E000120E26EE66AE66A330E006E000E016E50
:10452E008CCB04F0000E056E9FEC03F0D50E00262A
:10453E000A0E01222E0E0024E16E000E0120E26E04
:10454E00E66AE66A330E006E000E016E8CCB04F046
:10455E00000E056E9FEC03F0D50E00260A0E01220A
:10456E00200E0024E16E000E0120E26E010EE66EBA
:10457E00010EE66E330E006E000E016E8CCB04F053
:10458E00000E056E9FEC03F0D50E00260A0E0122DA
:10459E000A0E0024E16E000E0120E26EE66AE66A63
:1045AE00330E006E000E016E8CCB04F0000E056E05
:1045BE009FEC03F0D50E00260A0E01220C0E0024ED
:1045CE00E16E000E0120E26EE66AE66A330E006EC0
:1045DE00000E016E8CCB04F0000E056E9FEC03F006
:1045EE00D50E00260A0E01221F0E0024E16E000ECB
:1045FE000120E26EE66A330E006E000E016E8CCB69
:10460E0004F0000E056E9FEC03F0D50E00260A0E88
:10461E0001221E0E0024E16E000E0120E26EE66AFB
:10462E00330E006E000E016E8CCB04F0000E056E84
:10463E009FEC03F0D50E00260A0E0122250E002453
:10464E00E16E000E0120E26EE66A330E006E000E81
:10465E00016E8CCB04F0000E056E9FEC03F0D50EB0
:10466E0000260A0E01221A0E0024E16E000E012011
:10467E00E26EE66AE66AE66AE66A330E006E000EDF
:10468E00016E8CCB04F0000E056E9FEC03F0D50E80
:10469E0000260A0E0122160E0024E16E000E0120E5
:1046AE00E26EE66AE66AE66AE66A330E006E000EAF
:1046BE00016E8CCB04F0000E056E9FEC03F0D50E50
:1046CE0000260A0E0122140E0024E16E000E0120B7
:1046DE00E26E1E0EE66E000EE66E330E006E000EDD
:1046EE00016E8CCB04F0000E056E9FEC03F0D50E20
:1046FE0000260A0E0122120E0024E16E000E012089
:10470E00E26E1E0EE66E000EE66E330E006E000EAC
:10471E00016E8CCB04F0000E056E9FEC03F0D50EEF
:10472E0000260A0E0122240E0024E16E000E012046
:06473E00E26EE66A1200C3
:104744000C010F6B106B0C0E0B018C25E96E000E27
:104754008D21EA6EEECF01F0EECF02F0000E0218CA
:1047640002E1500E011801E0ABD10C010F6B106B8C
:10477400000E105D02E10A0E0F5D12E28E0E0F258F
:10478400116F0B0E1021126F87EC12F011CCE1FFA8
:1047940012CCE2FF00C0E6FF0C010F4B102BE8D750
:1047A4008E0E0F25E16E0B0E1021E26EE66A8E0E60
:1047B400136F0B0E146F9F0E156F060E166F050EFA
:1047C400176F000E186F54EC19F0005001100BE035
:1047D400250E0B018C25E96E000E8D21EA6EEE503C
:1047E400030A01E06DD18E0E0C01136F0B0E146FD2
:1047F4008F0E156F060E166F090E176F000E186FC9
:1048040054EC19F0000E011802E1000E001807E143
:10481400010E06018D6F8CCBCFFA8DCBD0FA060139
:104824008D51010AD8A44CD10A01D0510B018D1924
:1048340003E18C510A01CF19D8A442D1230E0B01F4
:104844008C25E96E000E8D21EA6EEECF03F003C0D5
:1048540000F0000E016E003600900136B80E002400
:10486400E96E0A0E0120EA6EEECF01F0EECF02F0FF
:10487400000E021802E1000E011818E1010E0601F3
:104884003A6F3B0E0C01136F060E146F8CCB15FCA4
:104894008DCB16FC85EC19F0810E136F060E146F88
:1048A4008CCB15FC8DCB16FC85EC19F0230E0B017B
:1048B4008C25E96E000E8D21EA6EEECF03F003C065
:1048C40000F0000E016E003600900136B80E002490
:1048D400E96E0A0E0120EA6EEECF11FCEECF12FC57
:1048E400A50E0C014C6F000E4D6FB9EC07F0015092
:1048F400125D02E10050115D6DE2020E06013A6F95
:10490400230E0B018C25E96E000E8D21EA6EEECF8D
:1049140003F003C000F0000E016E00360090013673
:10492400B80E0024046E0A0E0120056E04C0E9FFCF
:1049340005C0EAFFEECF02F0EECF03F0010E022431
:10494400006E000E0320016E04C0E1FF05C0E2FF0B
:1049540000C0E6FF01C0E6FFA40E0224E96E000ECB
:104964000320EA6EEECF13FC8CCB14FC8DCB15FC2C
:1049740008EC17F00050000A2CE1230E0B018C25E3
:10498400E96E000E8D21EA6EEECF03F003C000F055
:10499400000E016E003600900136B80E0024026E3F
:1049A4000A0E0120036E02C0E9FF03C0EAFF010EF4
:1049B400EE5C006E000EEE58016E02C0E1FF03C013
:1049C400E2FF00C0E6FF01C0E6FF030E06013A6FF6
:1049D40001D06CD78CCB13FC8DCB14FCB4EC19F048
:1049E400005269E0230E0B018C25E96E000E8D2127
:1049F400EA6EEECF03F003C000F0000E016E003645
:104A040000900136B80E0024E96E0A0E0120EA6E09
:104A1400EECF11FCEECF12FCA40E0C014C6F000E75
:104A24004D6FB9EC07F0010E0024026E000E012058
:104A3400036E0350125D02E10250115D3CE38CCB26
:104A440013FC8DCB14FC09EC1DF0230E0B018C25FB
:104A5400D96E000E8D21DA6EDECF00F0000E016EED
:104A6400330E046E000E056E9FEC03F0D50E002687
:104A74000A0E0122250E0024E16E000E0120E26ED2
:104A8400E66A06018D6B230E0B018C25E96E000E80
:104A94008D21EA6EEECF03F003C000F0000E016E2C
:104AA400003600900136B80E0024E16E0A0E012093
:104AB400E26EE66AE66A0301F34BF42B0601DD6B52
:024AC4001200DE
:104AC600C40E0C01636F190E646F67EC03F000C02F
:104AD6002AFBE8D0D50E0B018C6F190E8D6FA00E38
:104AE6008E6F090E8F6F040E906F00EC1FF0005052
:104AF600000A4BE1C40E0C01636F190E646F020EBF
:104B0600656F11EC03F0E1EC1EF0CB0E4C6F190E45
:104B16004D6FCF0E4E6F190E4F6FD50E506F190E8B
:104B2600516F526B25EC08F0CB0E4C6F190E4D6F82
:104B3600A00E4E6F090E4F6F040E506F000E516F90
:104B4600B4EC08F0C50E4C6F190E4D6FCB0E4E6FC0
:104B5600190E4F6FCF0E506F190E516F526B25EC19
:104B660008F0C50E4C6F190E4D6FC30E4E6F090E31
:104B76004F6F060E506F000E516FB4EC08F03C0EEE
:104B86005C6F000E5D6FF4EC04F095D0AF0E0B0178
:104B96008C6F190E8D6FC30E8E6F090E8F6F060EFA
:104BA600906F00EC1FF00050000A7BE1CB0E0B016A
:104BB6008C6F190E8D6F31C98EFB32C98FFB040EB7
:104BC600906F00EC1FF00050000A6BE10F0E006EB4
:104BD600000E016E0EC404F0000E056E9FEC03F08D
:104BE6003B0E00240C01396F090E01203A6F090EA5
:104BF6003927000E3A23C50E3B6F190E3C6F060E81
:104C06003D6F000E3E6FBDEC11F00F0E006E000EF4
:104C1600016E0EC404F0000E056E9FEC03F03B0E11
:104C260000244C6F090E01204D6F050E4C27000E17
:104C36004D2331C94EFC32C94FFC040E506F000E95
:104C4600516FE8EC08F00F0E006E000E016E0EC4F8
:104C560004F0000E056E9FEC03F03B0E0024E16E9F
:104C6600090E0120E26E010EE66E0F0E006E000EBA
:104C7600016E0EC404F0000E056E9FEC03F03B0EB1
:104C86000026090E0122010E0024E16E000E01200D
:104C9600E26E2AC4E6FF2BC4E6FF2CC4E6FF2DC451
:104CA600E6FF09D00B012A51010AD8B413D72A51BD
:084CB600020AD8B46BD712000A
:104CBE00C90E0C014C6F190E4D6FCD0E4E6F190EA5
:104CCE004F6FCD0E506F190E516F526B25EC08F0D1
:104CDE00C90E4C6F190E4D6FA00E4E6F090E4F6F11
:0E4CEE00040E506F000E516FB4EC08F012006F
:104CFC000B01786B816B866B876B886B896B7D0E78
:104D0C000C01396F0B0E3A6F0E0E0B012A250C019C
:104D1C003B6F000E0B012B210C013C6F100E3B273F
:104D2C00000E3C23040E3D6F000E3E6FBDEC11F0E7
:104D3C00790E396F0B0E3A6F0E0E0B012A250C01F2
:104D4C003B6F000E0B012B210C013C6F0C0E3B2713
:104D5C00000E3C23040E3D6F000E3E6FBDEC11F0B7
:104D6C002ECB63FC2FCB64FC67EC03F000C03DFB47
:104D7C0087EC12F000C03CFB87EC12F000C03FFB4C
:104D8C0087EC12F000C03EFB0B01826B836B800E34
:104D9C008319006E000E800A005C02E1010E825D38
:104DAC00D8B0C7D0330E006E000E016E82CB04F06B
:104DBC0083CB05F09FEC03F0D50E00260A0E0122E2
:104DCC00220E0024E96E000E0120EA6EEE50000A5D
:104DDC000FE1000E891902E1000E881908E182CB5F
:104DEC0084FB83CB85FB010E886F000E896F9ED0F0
:104DFC00330E006E000E016E82CB04F083CB05F0F7
:104E0C009FEC03F0D50E0024D96E0A0E0120DA6E49
:104E1C00DECF01F079510118D8A488D0330E006E82
:104E2C00000E016E82CB04F083CB05F09FEC03F0F7
:104E3C00D50E00260A0E0122010E0024D96E000E9A
:104E4C000120DA6E7A51DE1871E1330E006E000E1D
:104E5C00016E82CB04F083CB05F09FEC03F0D50EF2
:104E6C0000260A0E0122020E0024D96E000E01202B
:104E7C00DA6E7B51DE185AE1330E006E000E016EB5
:104E8C0082CB04F083CB05F09FEC03F0D50E00260B
:104E9C000A0E0122030E0024D96E000E0120DA6ED8
:104EAC007C51DE1843E1330E006E000E016E82CB96
:104EBC0004F083CB05F09FEC03F0D50E00260A0E10
:104ECC0001220A0E0024D96E000E0120DA6EDECF0C
:104EDC0001F0DECF02F03D51021802E101503C1905
:104EEC0025E1330E006E000E016E82CB04F083CBF5
:104EFC0005F09FEC03F0D50E00260A0E01220C0ED5
:104F0C000024D96E000E0120DA6EDECF01F0DECF68
:104F1C0002F03F51021802E101503E1907E182CB29
:104F2C0081FB010E866F000E876F03D0824B832BA3
:104F3C002ED7000E871902E1000E8619D8A491D045
:104F4C00000E891902E1010E8819D8A48AD084CBED
:104F5C008CFB0FEC22F084CB81FB330E006E000E29
:104F6C00016E84CB04F0000E056E9FEC03F0D50EA1
:104F7C000024E16E0A0E0120E26E79CBE6FF330EBF
:104F8C00006E000E016E81CB04F0000E056E9FECDE
:104F9C0003F0D50E00260A0E0122010E0024E16E4C
:104FAC00000E0120E26E7ACBE6FF330E006E000E8F
:104FBC00016E81CB04F0000E056E9FEC03F0D50E54
:104FCC0000260A0E0122020E0024E16E000E0120C2
:104FDC00E26E7BCBE6FF330E006E000E016E81CBD2
:104FEC0004F0000E056E9FEC03F0D50E00260A0EA1
:104FFC000122030E0024E16E000E0120E26E7CCB38
:10500C00E6FF330E006E000E016E81CB04F0000E35
:10501C00056E9FEC03F0D50E00260A0E01220C0E35
:10502C000024E16E000E0120E26E3ECBE6FF3FCB8A
:10503C00E6FF330E006E000E016E81CB04F0000E05
:10504C00056E9FEC03F0D50E00260A0E01220A0E07
:10505C000024E16E000E0120E26E3CCBE6FF3DCB5E
:10506C00E6FF000E871902E1000E86190AE1000E18
:10507C00891902E1000E881904E1060E006E71EF29
:10508C0031F0330E006E000E016E81CB04F0000E79
:10509C00056E9FEC03F0D50E00260A0E0122240E9D
:1050AC0000248A6F000E01208B6F7D0E8C6F0B0E0F
:1050BC008D6FC4EC20F08ACBE1FF8BCBE2FF00C0FC
:1050CC00E6FF330E006E000E016E81CB04F0000E75
:1050DC00056E9FEC03F0D50E00240C01396F0A0EFF
:1050EC0001203A6F040E3927000E3A23060E0B01ED
:1050FC002A250C013B6F000E0B012B210C013C6F80
:10510C00060E3D6F000E3E6FBDEC11F0040E0B0150
:10511C002E250C01636F000E0B012F210C01646F07
:10512C0067EC03F000C043FB87EC12F000C042FBBD
:10513C0087EC12F000C041FB87EC12F000C040FB82
:10514C0087EC12F000C047FB87EC12F000C046FB66
:10515C0087EC12F000C045FB87EC12F000C044FB5A
:10516C000C0E0B012E250C01636F000E0B012F2171
:10517C000C01646F67EC03F000C048FB00C032FB0D
:10518C00000E0B01336F3233329F3233329F000EDD
:10519C00336FFC0E3217FF0E33170D0E2E250C013C
:1051AC00636F000E0B012F210C01646F67EC03F091
:1051BC003F0E001600C049FB0E0E0B012E250C01F4
:1051CC00636F000E0B012F210C01646F67EC03F071
:1051DC0000C04BFB87EC12F000C04AFB87EC12F0CE
:1051EC0000C04DFB87EC12F000C04CFB87EC12F0BA
:1051FC0000C04FFB87EC12F000C04EFB330E006E6C
:10520C00000E016E81CB04F0000E056E9FEC03F0D6
:10521C00D50E00260A0E01220E0E0024E16E000EA1
:10522C000120E26E0E0E0901A45D006E000EA55960
:10523C00016E0B012C51005E2D51015A3251005E52
:10524C003351015A00C0E6FF01C0E6FF000E006EAC
:10525C003351005C02E13251140820E2826B836B03
:10526C00140E325D016E000E3359026E0250835DD6
:10527C0002E10150825D12E2500E82258A6F0B0E04
:10528C0083218B6F87EC12F08ACBE1FF8BCBE2FF93
:10529C0000C0E6FF0B01824B832BE2D74951020A77
:1052AC00D8A45CD1330E006E000E016E81CB04F0DD
:1052BC00000E056E9FEC03F0D50E00260A0E01229F
:1052CC00250E0024E96E000E0120EA6EEE50000A55
:1052DC001FE1330E006E000E016E81CB04F0000E48
:1052EC00056E9FEC03F0D50E00260A0E01220E0E61
:1052FC000024E96E000E0120EA6EEECF01F0EECF35
:10530C0002F0000E021802E1000E011801E103D0B8
:10531C00006A71EF31F05051020A1FE1330E006E3A
:10532C00000E016E81CB04F0000E056E9FEC03F0B5
:10533C00D50E00260A0E0122100E0024E16E000E7E
:10534C000120E26E52CB01F0006A53510026000E90
:10535C00012200C0E6FF01C0E6FF330E006E000E16
:10536C00016E81CB04F0000E056E9FEC03F0D50EA0
:10537C0000260A0E01221A0E0024E16E000E0120F6
:10538C00E26E010E4025006E000E4121016E000EF2
:10539C004221026E000E4321036E00C0E6FF01C0E5
:1053AC00E6FF02C0E6FF03C0E6FF330E006E000E00
:1053BC00016E81CB04F0000E056E9FEC03F0D50E50
:1053CC0000260A0E0122160E0024E16E000E0120AA
:1053DC00E26E340EE66E120EE66E000EE66EE66EB1
:1053EC00330E006E000E016E81CB04F0000E056EC4
:1053FC009FEC03F0D50E00260A0E0122280E002485
:10540C00E16E000E0120E26EE66AE66A330E006E73
:10541C00000E016E81CB04F0000E056E9FEC03F0C4
:10542C00D50E00260A0E01222A0E0024E16E000E73
:10543C000120E26EE66AE66A330E006E000E016E23
:10544C0081CB04F0000E056E9FEC03F0D50E002608
:10545C000A0E01222C0E0024E16E000E0120E26ED9
:10546C00E66AE66A330E006E000E016E81CB04F024
:10547C00000E056E9FEC03F0D50E00260A0E0122DD
:10548C002E0E0024E16E000E0120E26EE66AE66A42
:10549C00120E0C014C6F81CB4DFC10EC09F0330E4D
:1054AC00006E000E016E81CB04F0000E056E9FECB9
:1054BC0003F0D50E00260A0E0122250E0024E16E03
:1054CC00000E0120E26E010EE66E330E006E000E31
:1054DC00016E81CB04F0000E056E9FEC03F0D50E2F
:1054EC0000260A0E01221E0E0024E16E000E012081
:1054FC00E26E030EE66E330E006E000E016E81CB73
:10550C0004F0000E056E9FEC03F0D50E00260A0E7B
:10551C000122160E0024046E000E0120056E04C03C
:10552C00E9FF05C0EAFF010EEE24006E000EEE202E
:10553C00016E000EEE20026E000EEE20036E04C013
:10554C00E1FF05C0E2FF00C0E6FF01C0E6FF02C0BC
:10555C00E6FF03C0E6FF006A71EF31F00B01495121
:10556C00120AD8A42DD1330E006E000E016E81CB21
:10557C0004F0000E056E9FEC03F0D50E00260A0E0B
:10558C000122250E0024E96E000E0120EA6EEE5079
:10559C00040A1FE1330E006E000E016E81CB04F085
:1055AC00000E056E9FEC03F0D50E00260A0E0122AC
:1055BC000E0E0024E96E000E0120EA6EEECF01F013
:1055CC00EECF02F0000E021802E1000E011801E10C
:1055DC0003D0006A71EF31F00B015051020A1FE148
:1055EC00330E006E000E016E81CB04F0000E056EC2
:1055FC009FEC03F0D50E00260A0E0122100E00249B
:10560C00E16E000E0120E26E52CB01F0006A5351A4
:10561C000026000E012200C0E6FF01C0E6FF330E9B
:10562C00006E000E016E81CB04F0000E056E9FEC37
:10563C0003F0D50E00260A0E01221A0E0024E16E8C
:10564C00000E0120E26E010E4025006E000E41217D
:10565C00016E000E4221026E000E4321036E00C04B
:10566C00E6FF01C0E6FF02C0E6FF03C0E6FF330E13
:10567C00006E000E016E81CB04F0000E056E9FECE7
:10568C0003F0D50E00260A0E0122160E0024E16E40
:10569C00000E0120E26E44CBE6FF45CBE6FF46CB85
:1056AC00E6FF47CBE6FF330E006E000E016E81CB9A
:1056BC0004F0000E056E9FEC03F0D50E00260A0ECA
:1056CC000122280E0024E16E000E0120E26EE66A33
:1056DC00E66A330E006E000E016E81CB04F0000EF4
:1056EC00056E9FEC03F0D50E00260A0E01222A0E41
:1056FC000024E16E000E0120E26EE66AE66A330ECB
:10570C00006E000E016E81CB04F0000E056E9FEC56
:10571C0003F0D50E00260A0E01222C0E0024E16E99
:10572C00000E0120E26EE66AE66A330E006E000E91
:10573C00016E81CB04F0000E056E9FEC03F0D50ECC
:10574C0000260A0E01222E0E0024E16E000E01200E
:10575C00E26EE66AE66A100E0C014C6F81CB4DFCD2
:10576C0010EC09F0330E006E000E016E81CB04F0CC
:10577C00000E056E9FEC03F0D50E00260A0E0122DA
:10578C00250E0024E16E000E0120E26E030EE66E83
:10579C00330E006E000E016E81CB04F0000E056E10
:1057AC009FEC03F0D50E00260A0E01221E0E0024DB
:1057BC00E16E000E0120E26EE66A006A71EF31F0D4
:1057CC00010E0B014915016E0150000AD8B4A5D089
:1057DC00330E006E000E016E81CB04F0000E056ED0
:1057EC009FEC03F0D50E00260A0E01221A0E00249F
:1057FC00E16E000E0120E26E010E4025006E000EDF
:10580C004121016E000E4221026E000E4321036EF7
:10581C0000C0E6FF01C0E6FF02C0E6FF03C0E6FFE2
:10582C00330E006E000E016E81CB04F0000E056E7F
:10583C009FEC03F0D50E00260A0E01222E0E00243A
:10584C00E16E000E0120E26EE66AE66A100E0C01B3
:10585C004C6F81CB4DFC10EC09F0330E006E000E3A
:10586C00016E81CB04F0000E056E9FEC03F0D50E9B
:10587C0000260A0E0122250E0024E96E000E0120DE
:10588C00EA6EEE50060A07E0110E4C6F81CB4DFC10
:10589C0010EC09F015D0330E006E000E016E81CBAA
:1058AC0004F0000E056E9FEC03F0D50E00260A0ED8
:1058BC0001221E0E0024E16E000E0120E26EE66A4B
:1058CC00330E006E000E016E81CB04F0000E056EDF
:1058DC009FEC03F0D50E00260A0E0122250E0024A3
:1058EC00E16E000E0120E26EE66A330E006E000ED1
:1058FC00016E81CB04F0000E056E9FEC03F0D50E0B
:10590C0000260A0E0122220E0024E16E000E012058
:10591C00E26EE66A006A71EF31F0040E0B01491574
:10592C00016E0150000A2DE0330E006E000E016E68
:10593C0081CB04F0000E056E9FEC03F0D50E002613
:10594C000A0E0122250E0024E16E000E0120E26EEB
:10595C00E66A330E006E000E016E81CB04F0000E71
:10596C00056E9FEC03F0D50E00260A0E0122220EC6
:10597C000024E16E000E0120E26EE66A006A71EF0F
:10598C0031F0330E006E000E016E81CB04F0000E70
:10599C00056E9FEC03F0D50E00260A0E0122250E93
:1059AC000024E96E000E0120EA6EEE50000A18E1A8
:1059BC00330E006E000E016E81CB04F0000E056EEE
:1059CC009FEC03F0D50E00260A0E0122220E0024B5
:1059DC00E16E000E0120E26EE66A006A71EF31F0B2
:1059EC00010E786F100E4915016E0150000AD8B4E3
:1059FC00E6D3330E006E000E016E81CB04F0000E68
:105A0C00056E9FEC03F0D50E00260A0E0122250E22
:105A1C000024E96E000E0120EA6EEE50010A56E1F8
:105A2C00330E006E000E016E81CB04F0000E056E7D
:105A3C009FEC03F0D50E00260A0E01221A0E00244C
