:04000000C9EF51F003
:1000080000C016F001C015F0E1CF17F0E2CF18F0EC
:100018009EAA25D082EC4FF000C0DAF10101D95137
:10002800000A04E1DA51AA0A01E104D0D951000A10
:1000380001E10BD03C0EE16E040EE26ED951E126CF
:10004800D8B0E22ADAC1E6FFD92BDA51BB0A03E1BC
:10005800010EF76FD96BD9511208D8A0D96BF2A449
:1000680018D003017C4B7D2B7D513D0A02E1090E1E
:100078007C190EE1010E7327000E74237523762375
:10008800010E6427000E6523662367237C6B7D6B56
:10009800F2949EA07CD00301534B542B04010C2BEB
:1000A8000C014351000A0EE10401112B1151030107
:1000B800631908E17F6B010E526F010E0C01436F4B
:1000C8000401116B04010C51C80A45E10201BF513A
:1000D800010A02E1424B432B800E006E800E090A92
:1000E800005C03E1FB0E0101FB5D03E20101FB2B58
:1000F80002D00101FB6B0301702B7051200A03E150
:10010800706B010E716F02010151010A06E1FA0ECE
:100118000301505D02E2502B02D00301506B010134
:10012800FF2BFF513C0A03E1FF6B0201002B020188
:1001380000513C0A02E1006B022B0101DD51010A6A
:10014800D8B4DE2BF851010A04E1C80EF65DD8A038
:10015800F62B04010C6B000E0201431902E1780E24
:10016800421905E1BF6B426B436B010E446F000EF1
:100178000301541902E1280E531904E1010E556FC9
:10018800536B546B630ECF6EC00ECE6E9E9016C02E
:1001980000F015C001F017C0E1FF18C0E2FF110020
:0E01A800ACB202D00000FCD7A4CDADFF120017
:1001B600A4CDC9FFC7B002D00000FCD7C9CF00F05C
:0201C600120025
:1001C800F250026EF29E0500FF6A0150FE6E00506A
:0801D800FD6E02BEF28E120062
:1001E00004C2A0FD05C2A1FD06C2A2FD07C2A3FD77
:1001F0009E96C5869EB620D00201045105110611B7
:10020000071119E00D01A051A111A211A3110CE1D8
:100210009AC8E1FF9BC8E2FF030EE66E98C800F0A3
:1002200099C801F0D1DF08D0010E0D01A05F000ECA
:10023000A15BA25BA35BDED70D01C9CF9FFD9E51E1
:10024000000A02E1C58A01D0C59A9E96C58804C2FB
:10025000A0FD05C2A1FD06C2A2FD07C2A3FD9EB678
:1002600020D00201045105110611071119E00D01FA
:10027000A051A111A211A3110CE19AC8E1FF9BC8E2
:10028000E2FF030EE66E98C800F099C801F09CDF0B
:1002900008D0010E0D01A05F000EA15BA25BA35B65
:0802A000DED79FCD00F0120033
:1002A8009ECDC9FFC7B002D00000FCD7C9CF00F06F
:0202B800120032
:1002BA009E969ECDC9FF04C29FFD05C2A0FD06C23F
:1002CA00A1FD07C2A2FDC7A422D002010451051153
:1002DA00061107111BE00D019F51A011A111A211D6
:1002EA000EE19AC8E1FF9BC8E2FF040EE66E98C8C9
:1002FA0000F099C801F063DF010E006E3BD0010ED9
:10030A000D019F5F000EA05BA15BA25BDCD704C25C
:10031A009FFD05C2A0FD06C2A1FD07C2A2FD9EB6B1
:10032A0022D0020104510511061107111BE00D012B
:10033A009F51A011A111A2110EE19AC8E1FF9BC819
:10034A00E2FF040EE66E98C800F099C801F037DFA4
:10035A00010E006E0FD0010E0D019F5F000EA05B13
:10036A00A15BA25BDCD7C5BC02D0006A03D0C584FE
:06037A00020E006E1200ED
:100380008998400E0D019B11006E52C4E1FF53C4C9
:10039000E2FF00C0E6FF50C400F051C401F014DFDA
:1003A00052C4E1FF53C4E2FF9CCDE6FF50C400F00D
:1003B00051C401F009DF52C4E1FF53C4E2FF9DCDF7
:1003C000E6FF50C400F051C401F0FEDE898812003F
:1003D0000B1E0A1E091E081E082AD8B4092AD8B402
:0803E0000A2AD8B40B2A12000E
:1003E8000450085E0550D8A0053C095E0650D8A008
:1003F800063C0A5E0750D8A0073C0B5E0336070E82
:100408000C6E0334083609360A360B36045003A03E
:100418000ED0085E0550D8A0053C095E0650D8A04D
:10042800063C0A5E0750D8A0073C0B5E0DD0082694
:100438000550D8B0053C09260650D8B0063C0A2617
:100448000750D8B0073C0B2603360C2EDAD70234F7
:10045800083609360A360B36045003A00ED0085E5B
:100468000550D8A0053C095E0650D8A0063C0A5E97
:100478000750D8A0073C0B5E0DD008260550D8B011
:10048800053C09260650D8B0063C0A260750D8B0C5
:10049800073C0B260236070E0C6E02340836093666
:1004A8000A360B36045002A00ED0085E0550D8A0BC
:1004B800053C095E0650D8A0063C0A5E0750D8A045
:1004C800073C0B5E0DD008260550D8B0053C092620
:1004D8000650D8B0063C0A260750D8B0073C0B2671
:1004E80002360C2EDAD70134083609360A360B36AE
:1004F800045002A00ED0085E0550D8A0053C095E45
:100508000650D8A0063C0A5E0750D8A0073C0B5EF0
:100518000DD008260550D8B0053C09260650D8B09D
:10052800063C0A260750D8B0073C0B260136070EB2
:100538000C6E0134083609360A360B36045001A011
:100548000ED0085E0550D8A0053C095E0650D8A01C
:10055800063C0A5E0750D8A0073C0B5E0DD0082663
:100568000550D8B0053C09260650D8B0063C0A26E6
:100578000750D8B0073C0B2601360C2EDAD70034CA
:10058800083609360A360B36045001A00ED0085E2C
:100598000550D8A0053C095E0650D8A0063C0A5E66
:1005A8000750D8A0073C0B5E0DD008260550D8B0E0
:1005B800053C09260650D8B0063C0A260750D8B094
:1005C800073C0B260036070E0C6E00340836093639
:1005D8000A360B36045000A00ED0085E0550D8A08D
:1005E800053C095E0650D8A0063C0A5E0750D8A014
:1005F800073C0B5E0DD008260550D8B0053C0926EF
:100608000650D8B0063C0A260750D8B0073C0B263F
:1006180000360C2EDAD700B00ED00450082605504C
:10062800D8B0053C09260650D8B0063C0A26075023
:08063800D8B0073C0B261200AC
:10064000899852C4E1FF53C4E2FF7A0EE66E50C4AB
:1006500000F051C401F0B8DD52C4E1FF53C4E2FF21
:1006600098CDE6FF50C400F051C401F0ADDD89889B
:02067000120076
:10067200020E0D019B6F98CD9CFD99CD9DFD7FDEF5
:10068200899852C4E1FF53C4E2FF7A0EE66E50C469
:1006920000F051C401F097DD52C4E1FF53C4E2FF00
:1006A2009ACDE6FF50C400F051C401F08CDD898878
:0206B200120034
:1006B400899852C4E1FF53C4E2FF98CDE6FF50C4C9
:1006C40000F051C401F07EDD52C4E1FF53C4E2FFE7
:1006D400E66A50C400F051C401F074DD8988120048
:1006E4008998800E0D019811006E52C4E1FF53C425
:1006F400E2FF00C0E6FF50C400F051C401F062DD27
:1007040052C4E1FF53C4E2FF99CDE6FF50C400F0A8
:0A07140051C401F057DD898812007E
:10071E000D019B6B98CD9CFD99CD9DFD2ADE899890
:10072E0052C4E1FF53C4E2FF3A0EE66E50C400F02D
:10073E0051C401F042DD52C4E1FF53C4E2FFE66A48
:0E074E0050C400F051C401F038DD898812005B
:10075C008998A00E0D019811006E52C4E1FF53C48C
:10076C00E2FF00C0E6FF50C400F051C401F026DDEA
:10077C0052C4E1FF53C4E2FF99CDE6FF50C400F030
:0A078C0051C401F01BDD8988120042
:10079600899852C4E1FF53C4E2FF7A0EE66E50C454
:1007A60000F051C401F00DDD93CD00F094CD01F0C1
:1007B600010E0D01935F000E945B0050011013E0D3
:1007C60052C4E1FF53C4E2FF91CDE9FF92CDEAFFA7
:1007D600EECFE6FF50C400F051C401F0F2DC0D018B
:0A07E600914B922BE1D78988120095
:1007F0000B6A0A6A096A00500402F4CF09F0F3CFC9
:1008000008F001500502F4CF0BF0F3CF0AF00050CE
:100810000502F3500926F4500A22E86A0B2201501F
:100820000402F3500926F4500A22E86A0B2208C099
:1008300000F009C001F00AC002F00BC003F0120082
:100840000B840BAE2BEF04F0010E036E026A016AFB
:0A085000006A0A360232FF0E1200A1
:10085A000D0193519125956F94519221966F010E36
:10086A00955F000E965B100E9B6F91CD9CFD92CD0D
:10087A009DFD81DD120E0D019B6F95CD9CFD96CDE0
:10088A009DFD79DD1F0E0D01986F300E996F25DFE2
:10089A001F0E0D01986F09DF00AA01D0F9D71200C7
:0808AA000AAE029E000E1200CE
:1008B200086A096A100E0C6E0134083609360450B3
:1008C200085E0550D8A0053C095ED8B007D0045098
:1008D20008260550D8B0053C0926D89000360136C6
:0608E2000C2EEAD7120003
:0E08E800026A016A006A086A036A000E1200C2
:1008F6000B820BAE85EF04F003680268016800689E
:080906000A360232FF0E120056
:10090E00086A080E0C6E003408360450085ED8B023
:0E091E0002D00826D89000360C2EF5D7120015
:10092C00AE0E0D01986F190E996F9A6B9CDEAE0E80
:10093C000D019125006E190E9221016E00C091FDE2
:10094C0001C092FD060E9B6F00C09CFD01C09DFD79
:10095C0011DD1F0E0D01986F800E996FBDDE1F0EFD
:10096C000D01986F800E996FF3DE04015851050A42
:10097C0004E05851070A01E006D01C0E0D01986FD7
:10098C000A0E996FE5DE1F0E0D01986F080E996F18
:10099C00A3DE04015851050A04E05851070A01E08E
:1009AC0080D00D01966B976B1C0E986F7DDE0A0E36
:1009BC00001600520AE10D01964B972B030E975D22
:1009CC0002E1E80E965D01E2EFD70D011C0E986F67
:1009DC006BDE00B208D0030E0D01975D02E1E80E4C
:1009EC00965D01E25DD00D011F0E986F080E996F98
:1009FC00AFDE040E0D019125986F000E9221996FB8
:100A0C0088DE00C095FD0D01936B100E935D48E2DE
:100A1C001C0E986F49DE00A23FD00D0195AB3CD067
:100A2C001F0E986F800E996F57DE1F0E0D01986F79
:100A3C00800E996F8DDE1C0E0D01986F0A0E996F4A
:100A4C0087DE1F0E0D01986F080E996F45DE0D01A4
:100A5C00966B976B1C0E986F27DE0A0E00160052D1
:100A6C000AE10D01964B972B030E975D02E1E80E00
:100A7C00965D01E2EFD70D011F0E986F080E996F6E
:100A8C0067DE040E0D019125986F000E9221996F6F
:100A9C0040DE00C095FD01D003D00D01932BB5D7DE
:100AAC0007D00D011F0E986FFFDD00A601D0F9D7FE
:100ABC001D0E0D01986FF8DD060E0016005203E0B6
:100ACC000D01946B03D00D01010E946F94CD00F0C9
:020ADC00120006
:100ADE00220E0C6E086A096A0A6A0B6A0C06D8B4F2
:100AEE001FD0D8900B320A3209320832033202324A
:100AFE0001320032D8A0F2D70C06D8B409D0045077
:100B0E0008260550092206500A2207500B22EAD762
:100B1E00045008260550092206500A2207500B22BF
:020B2E001200B3
:100B30000450000A12E10550000A0FE10650000AB5
:100B40000CE10750000A09E1FF0E006EFF0E016E76
:100B5000FF0E026E7F0E036E98D00C6A07BE0C2A41
:100B60000D6A0B6A0A6A096A086A035002100110CA
:100B70000010D8B484D0035007180E6E0EBE0D1EA0
:100B800007AE0BD0041E051E061E071E042AD8B48D
:100B9000052AD8B4062AD8B4072A03AE0BD0001E03
:100BA000011E021E031E002AD8B4012AD8B4022A4C
:100BB000D8B4032A035007100E6E0EBE1CD014DCEE
:100BC0000CBE36D00DAE5BD0001E011E021E031EF1
:100BD000002AD8B4012AD8B4022AD8B4032A081E9D
:100BE000091E0A1E0B1E082AD8B4092AD8B40A2ADC
:100BF000D8B40B2A44D007AE15D003BE0DD0035095
:100C00000B6E02500A6E0150096E0050086E036AA6
:100C1000026A016A006AD6D7036A026A016A006A38
:100C2000002A000C031E021E011E001E0C8EC7D7D8
:100C3000082AD8B4092AD8B40A2AD8B40B2A0450EE
:100C4000085CD8A4BFD70550095CD8A4BBD7065010
:100C50000A5CD8A4B7D707500B5CD8A4B3D70B6AEB
:100C60000A6A096A086A002AD8B4012AD8B4022A92
:100C7000D8B4032A03AEA6D70E6A0E88FF0C0E6AFC
:0C0C80000CA002D0E8EC01F0000F120004
:100C8C0091CD98FD92CD99FD93CD9AFDECDC94CD50
:060C9C0098FDD0DC1200FF
:100CA2000134083609360450085E0550D8A0053CC8
:100CB200095E003601360F0E0C6E01340836093615
:100CC200045000A006D0085E0550D8A0053C095E7D
:100CD20005D008260550D8B0053C09260036013655
:100CE2000C2EEBD700B006D0045008260550D8B021
:080CF200053C09260000120078
:100CFA000D01846B030E845D0AE284518225E16E44
:100D0A00000E8321E26E200EE66E842BF3D7845107
:100D1A008225E16E000E8321E26EE66A8407845121
:100D2A008225856F000E8321866F0A0E046E81CD9F
:100D3A0000F0E8DD08C000F0300E002685CDE1FFA6
:100D4A0086CDE2FF00C0E6FF0A0E046E81CD00F0F8
:100D5A00D9DD00C081FD0050000A01E102D08407FC
:040D6A00DED71200BE
:100D6E000D01856B050E855D0AE285518325E16EC9
:100D7E00000E8421E26E200EE66E852BF3D7855190
:100D8E008325E16E000E8421E26EE66A85078551A9
:100D9E008325866F000E8421876F0A0E046E000E67
:100DAE00056E81CD00F082CD01F07CDD08C000F033
:100DBE0009C001F0300E002686CDE1FF87CDE2FF9F
:100DCE0000C0E6FF0A0E046E000E056E81CD00F027
:100DDE0082CD01F067DD00C081FD01C082FD000EF5
:100DEE00011802E1000E001801E102D08507CFD7ED
:020DFE001200E1
:100E000081CD02F082CD03F002C000F003C001F0FA
:100E1000024A032A00C0E9FF01C0EAFFEE5201E0E6
:100E2000F3D70D018151025C006E82510358016EAF
:0A0E3000010E005E000E015A1200D0
:100E3A00000E006E0D01841908E10050831905E1C6
:100E4A000050821902E18151000A0EE185CDE1FFCD
:100E5A0086CDE2FF300EE66E010E8525E16E000EAC
:100E6A008621E26EE66AC0D0800E8419006E800E7A
:100E7A00005C08E1000E835D05E1000E825D02E17F
:100E8A00000E815D1AE281CD00F082CD01F083CDA2
:100E9A0002F084CD03F0FF0E046EFF0E056E066E9F
:100EAA00076E18DE00C081FD01C082FD02C083FD0D
:100EBA0003C084FD010E896F01D0896B85CDE1FFE6
:100ECA0086CDE2FFE66A876B0D01800E006E800E0A
:100EDA008419005C08E18351000805E18251000889
:100EEA0002E1815100085CE28751010F886F885145
:100EFA00000815E288518525E16E000E8621E26E12
:100F0A008805006E016A000E015A00508525E96EB7
:100F1A0001508621EA6EEECFE6FF8807E8D70A0E6F
:100F2A00046E000E056E066E076E81CD00F082CD4E
:100F3A0001F083CD02F084CD03F0F5DD08C000F0A6
:100F4A0009C001F00AC002F00BC003F085CDE1FF31
:100F5A0086CDE2FF00C0E6FF85CDE9FF86CDEAFF38
:100F6A0085CDE1FF86CDE2FF300EEE260D01872BFF
:100F7A000A0E046E000E056E066E076E81CD00F035
:100F8A0082CD01F083CD02F084CD03F0CCDD00C028
:100F9A0081FD01C082FD02C083FD03C084FD94D798
:100FAA000D01895321E08751010F886F885100088C
:100FBA0015E288518525E16E000E8621E26E8805CC
:100FCA00006E016A000E015A00508525E96E015033
:100FDA008621EA6EEECFE6FF8807E8D785CDE1FFE6
:0A0FEA0086CDE2FF2D0EE66E120028
:100FF40083CD04F084CD05F081CD02F082CD03F0E1
:1010040085CD00F086CD01F0010E0D01855F000E47
:10101400865B005001100FE004C0E9FF05C0EAFF41
:1010240002C0E1FF03C0E2FFEECFE6FF024A032A5B
:10103400044A052AE5D781CD00F082CD01F01200E3
:10104400020E0D018115016E0150000A05E01C0E0F
:10105400856F000E866F04D0140E856F000E866FA8
:10106400500E8D6F8E6B330E006E000E016E82CDAE
:1010740004F0000E056EF8EC03F0000E00260C0ED2
:1010840001222E0E0024E96E000E0120EA6EEECF3E
:1010940001F0EECF02F0000E006E0250005C02E19F
:1010A4000150000802E2080E8E6F010E8115016ED8
:1010B4000150000AD8A48E81100E8115016E0150D2
:1010C400000AD8A48E89020E8115016E0150000A0F
:1010D40003E0700E8D6F8E83040E8115016E015036
:1010E400000AD8A48E85AF0E986F190E996F330E2F
:1010F400006E000E016E82CD04F0000E056EF8EC59
:1011040003F0000E00260C0E0122040E0024E96EEA
:10111400000E0120EA6EEECF9AFD39EC03F0330E97
:10112400006E000E016E82CD04F0000E056EF8EC28
:1011340003F0000E00240D01916F0C0E0120926F3C
:10114400040E9127000E9223914B922B050E936F60
:10115400000E946FCBEC03F0A40E916F080E926F07
:10116400060E936F000E946FCBEC03F0080E986F8D
:1011740020EC03F00D01986B20EC03F0450E0D01FB
:10118400986F20EC03F00D01986B20EC03F0330E04
:10119400006E000E016E82CD04F0000E056EF8ECB8
:1011A40003F0000E00260C0E01222E0E0024D96E30
:1011B400000E0120DA6EDE500D018525876FDE50AA
:1011C4008621886F140E8727000E882388CD98FD0A
:1011D40020EC03F087CD98FD20EC03F0330E006E75
:1011E400000E016E82CD04F0000E056EF8EC03F0E3
:1011F400000E00260C0E0122200E0026000E0122F5
:10120400010E0024E96E000E0120EA6EEECF98FD77
:1012140020EC03F0330E006E000E016E82CD04F05C
:10122400000E056EF8EC03F0000E00260C0E0122F1
:10123400200E00240D018F6F000E0120906F8FCDC2
:10124400E9FF90CDEAFFEECF98FD20EC03F08FCDBF
:10125400E9FF90CDEAFF010EEE24006E000EEE20B1
:10126400016E8FCDE1FF90CDE2FF00C0E6FF01C02B
:10127400E6FF400E0D01986F20EC03F00D01986B12
:1012840020EC03F0800E0D01986F20EC03F0060EA5
:101294000D01986F20EC03F00D01986B20EC03F026
:1012A4000D01986B20EC03F0540E0D01916F040EA8
:1012B400926F040E936F000E946FCBEC03F0330E19
:1012C400006E000E016E82CD04F0000E056EF8EC87
:1012D40003F0000E0024916F0C0E0120926F040E97
:1012E400936F000E946FCBEC03F0BD0E916F190E4B
:1012F400926F140E936F000E946F2DEC04F0160E83
:101304000D01986F5AEC03F000C08FFD170E0D010C
:10131400986F5AEC03F000C093FDC70E0D01916F56
:10132400190E926F8FCD94FDAFDCD10E0D01986F25
:10133400190E996F330E006E000E016E82CD04F00B
:10134400000E056EF8EC03F0000E00260C0E0122D0
:101354000C0E0026000E0122010E0024E96E000E80
:101364000120EA6EEECF9AFD39EC03F0330E006EE5
:10137400000E016E82CD04F0000E056EF8EC03F051
:10138400000E00260C0E01220C0E0024E96E000E45
:101394000120EA6EEECF98FD20EC03F0330E006ED0
:1013A400000E016E82CD04F0000E056EF8EC03F021
:1013B400000E00260C0E01220A0E0026000E012249
:1013C400010E0024E96E000E0120EA6EEECF98FDB6
:1013D40020EC03F0330E006E000E016E82CD04F09B
:1013E400000E056EF8EC03F0000E00260C0E012230
:1013F4000A0E0024E96E000E0120EA6EEECF98FD7D
:1014040020EC03F0330E006E000E016E82CD04F06A
:10141400000E056EF8EC03F0000E00260C0E0122FF
:10142400160E0026000E0122030E0024E96E000EA3
:101434000120EA6EEECF98FD20EC03F0330E006E2F
:10144400000E016E82CD04F0000E056EF8EC03F080
:10145400000E00260C0E0122160E0026000E01229C
:10146400020E0024E96E000E0120EA6EEECF98FD14
:1014740020EC03F0330E006E000E016E82CD04F0FA
:10148400000E056EF8EC03F0000E00260C0E01228F
:10149400160E0026000E0122010E0024E96E000E35
:1014A4000120EA6EEECF98FD20EC03F0330E006EBF
:1014B400000E016E82CD04F0000E056EF8EC03F010
:1014C400000E00260C0E0122160E0024E96E000EFA
:1014D4000120EA6EEECF98FD20EC03F0330E006E8F
:1014E400000E016E82CD04F0000E056EF8EC03F0E0
:1014F400000E00260C0E01221A0E0026000E0122F8
:10150400030E0024E96E000E0120EA6EEECF98FD72
:1015140020EC03F0330E006E000E016E82CD04F059
:10152400000E056EF8EC03F0000E00260C0E0122EE
:101534001A0E0026000E0122020E0024E96E000E8F
:101544000120EA6EEECF98FD20EC03F0330E006E1E
:10155400000E016E82CD04F0000E056EF8EC03F06F
:10156400000E00260C0E01221A0E0026000E012287
:10157400010E0024E96E000E0120EA6EEECF98FD04
:1015840020EC03F0330E006E000E016E82CD04F0E9
:10159400000E056EF8EC03F0000E00260C0E01227E
:1015A4001A0E0024E96E000E0120EA6EEECF98FDBB
:1015B40020EC03F08DCD98FD20EC03F08ECD98FD4A
:1015C40020EC03F0330E006E000E016E82CD04F0A9
:1015D400000E056EF8EC03F0000E00260C0E01223E
:1015E400120E0026000E0122010E0024E96E000EE8
:1015F4000120EA6EEECF98FD20EC03F0330E006E6E
:10160400000E016E82CD04F0000E056EF8EC03F0BE
:10161400000E00260C0E0122120E0024E96E000EAC
:101624000120EA6EEECF98FD20EC03F00D01986BDB
:1016340020EC03F00D01986B20EC03F00D01986B86
:1016440020EC03F00D01986B20EC03F0020E0D0169
:101654008115016E0150000A51E0020E986F20ECD2
:1016640003F0040E0D01986F20EC03F0330E006EAE
:10167400000E016E82CD04F0000E056EF8EC03F04E
:10168400000E00260C0E0122140E0026000E01226C
:10169400010E0024E96E000E0120EA6EEECF98FDE3
:1016A40020EC03F0330E006E000E016E82CD04F0C8
:1016B400000E056EF8EC03F0000E00260C0E01225D
:1016C400140E0024E96E000E0120EA6EEECF98FDA0
:1016D40020EC03F0010E0D01986F20EC03F0010ED5
:1016E4000D01986F20EC03F0040E0D01986F20ECAF
:1016F40003F0020E0D01986F20EC03F0330E006E20
:10170400000E016E82CD04F0000E056EF8EC03F0BD
:10171400000E00260C0E01222E0E0024E96E000E8F
:101724000120EA6EEECF01F0EECF02F0000E006E63
:101734000250005C02E10150000861E20D018B6B74
:101744008C6B330E006E000E016E82CD04F0000E21
:10175400056EF8EC03F0000E00260C0E01222E0E8E
:101764000024D96E000E0120DA6EDECF01F0DECF48
:1017740002F002508C5D02E101508B5D40E2330EB9
:10178400006E000E016E82CD04F0000E056EF8ECC2
:1017940003F0000E0024046E0C0E0120056E260ECC
:1017A4000424E96E000E0520EA6E8B51EE24026ECD
:1017B4008C51EE20036E000E006E040E016E010EBD
:1017C400005E000E015A0050021601500316310E3D
:1017D4000424E96E000E0520EA6EEECF00F0EECF91
:1017E40001F002500024E96E03500120EA6EEECFAE
:1017F40098FD20EC03F00D018B4B8C2BA2D70D012F
:10180400D10E85258F6F190E8621906F330E006ED1
:10181400000E016E82CD04F0000E056EF8EC03F0AC
:10182400000E00260C0E01222E0E0024026E000E65
:101834000120036E02C0D9FF03C0DAFFDE508F25FA
:10184400006EDE509021016E00C083FD01C084FD56
:1018540002C0E9FF03C0EAFF010EEE14896FEECF68
:101864008AFD000E8A1700C098FD01C099FD9A6B8D
:1018740039EC03F00D0189518325916F8A5184213C
:10188400926F54C493FD55C494FD46EC06F00D01CB
:1018940089518325916F8A518421926F020E912779
:1018A400000E922356C493FD57C494FD46EC06F0F3
:1018B4000D0189518325916F8A518421926F040E01
:1018C4009127000E9223330E006E000E016E82CD1E
:1018D40004F0000E056EF8EC03F0000E00260C0E6A
:1018E400012200C0E9FF01C0EAFFEECF93FD010E23
:1018F4000024E96E000E0120EA6EEECF94FD46EC62
:1019040006F00D0189518325916F8A518421926FCC
:10191400060E9127000E9223330E006E000E016E08
:1019240082CD04F0000E056EF8EC03F0000E0026E4
:101934000C0E0122020E0024E96E000E0120EA6E54
:10194400EECF93FD030E0024E96E000E0120EA6E33
:10195400EECF94FD46EC06F0080E0D018325916F41
:10196400000E8421926F895191278A519223936B9F
:10197400060E946F46EC06F00A0E0D018325916F56
:10198400000E8421926F895191278A519223330E3C
:10199400006E000E016E82CD04F0000E056EF8ECB0
:1019A40003F0000E00260C0E01222E0E0024E96E18
:1019B400000E0120EA6EEECF05F0EECF06F00550E2
:1019C4008525036E06508621046E04C000F0016A6A
:1019D40000C093FD05508525946F46EC06F0D10EAA
:1019E4000D01916F190E926F330E006E000E016E91
:1019F40082CD04F0000E056EF8EC03F0000E002614
:101A04000C0E01222E0E0024D96E000E0120DA6E77
:101A1400DE508525936FDE508621946F0C0E93273C
:101A2400000E9423895193278A5194232DEC04F0BA
:101A3400160E0D01986F5AEC03F000C08FFD170EBF
:101A44000D01986F5AEC03F000C093FDE10E0D01F7
:101A5400916F190E926F8FCD94FD46EC06F0220E15
:101A64000D018525916F000E8621926F330E006E55
:101A7400000E016E82CD04F0000E056EF8EC03F04A
:101A8400000E00260C0E01222E0E0024D96E000E2C
:101A94000120DA6EDE509127DE50922396EC04F09A
:021AA40012002E
:101AA6000D018E6B010E835F000E845B87530DE084
:101AB6008451190802E18351AD0807E28E2BAD0E61
:101AC600835D8C6F190E84598D6F8E5305E0AD0EB4
:101AD600886F190E896F04D083CD88FD84CD89FD6A
:101AE6008251891902E1885181190FE181CD98FD52
:101AF60082CD99FD8FEC03F000C09AFD85CD98FD4F
:101B060086CD99FD39EC03F03CD0100E0D019B6F8C
:101B160081CD9CFD82CD9DFDC0EC01F0120E0D0124
:101B26009B6F8E5305E0AD0E8A6F190E8B6F04D036
:101B360083CD8AFD84CD8BFD8ACD9CFD8BCD9DFD0D
:101B4600C0EC01F0140E0D019B6F85CD9CFD86CD7A
:101B56009DFDC0EC01F01F0E0D01986F100E996FE0
:101B6600AEEC03F01F0E0D01986F200E996F72EC0C
:101B760003F01F0E0D01986F5AEC03F000AA01D076
:101B8600F8D70D018E531AE08151835D006E8251A4
:101B96008459016E8C51005E8D51015A004A012A0A
:101BA6000050852701508623010E8C5D836F000E41
:0E1BB6008D59846F816B826B8E6B87D7120006
:101BC400020E0D019B6F81CD9CFD82CD9DFDC0EC6D
:101BD40001F0899852C4E1FF53C4E2FF7A0EE66E25
:101BE40050C400F051C401F0E4EC00F00D01855143
:101BF400861118E052C4E1FF53C4E2FF83CDE9FF2C
:101C040084CDEAFFEECFE6FF50C400F051C401F0EA
:101C1400E4EC00F00D01834B842B010E855F000E74
:081C2400865BE4D789881200F9
:101C2C00899852C4E1FF53C4E2FF7A0EE66E50C4A9
:101C3C0000F051C401F0E4EC00F052C4E1FF53C4D5
:101C4C00E2FF82CDE6FF50C400F051C401F0E4EC99
:101C5C0000F052C4E1FF53C4E2FF81CDE6FF50C453
:0E1C6C0000F051C401F0E4EC00F08988120091
:101C7A0081CD04F082CD05F004C0E9FF05C0EAFF7A
:101C8A00EE5203E0044A052AF7D704C002F005C061
:101C9A0003F0044A052A83CD00F084CD01F00D013A
:101CAA00834B842B00C0E9FF01C0EAFF02C0E1FFB9
:101CBA0003C0E2FFEECFE6FF02C0E9FF03C0EAFF7E
:101CCA00EE5201E0E2D781CD00F082CD01F01200A0
:101CDA0083CD04F084CD05F081CD02F082CD03F0EE
:101CEA0085CD00F086CD01F0010E0D01855F000E55
:101CFA00865B005001100FE004C0E9FF05C0EAFF4F
:101D0A0002C0E1FF03C0E2FFEECFE6FF024A032A68
:101D1A00044A052AE5D781CD00F082CD01F01200F0
:101D2A0081CD04F082CD05F004C002F005C003F0B5
:101D3A00044A052A83CD00F084CD01F00D01834BBE
:101D4A00842B00C0E9FF01C0EAFF02C0E1FF03C023
:101D5A00E2FFEECFE6FF02C0E9FF03C0EAFFEE5260
:0E1D6A0001E0E2D781CD00F082CD01F0120041
:101D78000CB0FEEF0EF00CA2A6EF0FF00E6A000EEC
:101D8800026415EF0FF0F00E0214D8A4E0EF0EF085
:101D9800023A01380F0B02260138F00B016E0038A9
:101DA8000F0B01260038F00B006E08380F0B0026C9
:101DB8000838F00B086E0E84D89002BEF9EF0EF0CA
:101DC80008360036013602360E2A02BEF9EF0EF04A
:101DD80008360036013602360E2A02BEF9EF0EF03A
:101DE80008360036013602360E2A0E5003649AEF82
:101DF8000FF0035E0BBC08AEA0EF0FF0D880800E8A
:101E080008640030000E002201220222D8A0A0EFB0
:101E18000FF0023201320032034AA6EF0FF0A0EFB2
:101E28000FF001C002F000C001F008C000F0086A1D
:101E3800000E0E8602644CEF0FF0F00E0214D8A4C8
:101E480034EF0FF0023A01380F0B02260138F00B7D
:101E5800016E00380F0B01260038F00B006E0E845F
:101E6800D89002BEF9EF0EF00036013602360E2A7F
:101E780002BEF9EF0EF00036013602360E2A02BE17
:101E8800F9EF0EF00036013602360E2AF9EF0EF0A1
:101E980001C002F000C001F0006A000E0E960E8824
:101EA800026479EF0FF0F00E0214D8A464EF0FF07B
:101EB800023A01380F0B02260138F00B016E0E842E
:101EC800D89002BEF9EF0EF0013602360E2A02BE95
:101ED800F9EF0EF0013602360E2A02BEF9EF0EF0C7
:101EE800013602360E2AF9EF0EF001C002F0016A3F
:101EF800000E0E860264ACEF0FF0F00E0214D8A4A8
:101F080088EF0FF0023A0E84D89002BEF9EF0EF077
:101F180002360E2A02BEF9EF0EF002360E2A02BE73
:101F2800F9EF0EF002360E2AF9EF0EF0010E0C6EE4
:101F380020EC04F0B0EF0FF0020E0C6E55EC04F03C
:101F4800B0EF0FF0040E0C6E7BEC04F0B0EF0FF066
:0A1F5800080E0C6E74EC04F0120089
:101F6200036A046A080E045C22E203C001F06ECD2B
:101F720000F0015004E000360090FF0FFBD7800E06
:101F82000014016E01C002F00150800AD8B48082B0
:101F92000250000AD8B48092000000000000809431
:101FA2000000000000008084032A042ADBD712000C
:101FB2006ECD02F06FCD03F071CD00F072CD01F065
:101FC200010E0D01715F000E725B0050011009E0FD
:101FD20002C0E1FF03C0E2FF70CDE6FF024A032A1E
:0C1FE200EBD76ECD00F06FCD01F01200C7
:101FEE000D0172A110D16ECD81FD6FCD82FD040E5B
:101FFE007025E96E000E7121EA6EEECF03F003C07C
:10200E0000F0000E016E003600900136080E00241E
:10201E00E96E020E0120EA6EEECF83FDEECF84FD57
:10202E007DDE040E7025E96E000E7121EA6EEECF94
:10203E00E0F36ECD81FD6FCD82FD580E836F010EE4
:10204E00846F14DE030E7025E96E000E7121EA6EA8
:10205E00EECF81FD730E826F0D0E836F7DEC06F059
:10206E00030E7025E96E000E7121EA6EEECF82F935
:10207E006ECD81FD6FCD82FD740E836F0D0E846F5C
:10208E00F5DD6ECD81FD6FCD82FD3C0E836F010EB1
:10209E00846FECDD6ECD81FD6FCD82FD050E70255A
:1020AE00E96E000E7121EA6EEECF03F003C000F070
:1020BE00000E016E0036009001363E0E0024E96ED1
:1020CE00010E0120EA6EEECF83FDEECF84FDCEDD54
:1020DE00050E7025E96E000E7121EA6EEECF7BF9CA
:1020EE006ECD81FD6FCD82FD5A0E836F010E846F12
:1020FE00BDDD060E7025E96E000E7121EA6EEECF83
:10210E0081FDEECF82FD730E836F0D0E846FB7ECE3
:10211E0006F0060E7025E96E000E7121EA6EEECF06
:10212E007DFDEECF7EFD7DCDE3F37ECDE4F3E80EB7
:10213E00046E030E056E7DCD00F07ECD01F059ECE0
:10214E0004F000C0E5F3000E016EE80E046E030EFF
:10215E00056EF8EC03F000C07BFD01C07CFD7B51E9
:10216E007D5D006E7C517E59016E640E046E000E14
:10217E00056E59EC04F000C0E1F37BCD02F0000EC9
:10218E00036E02507D5D026E03507E59036E640E27
:10219E000002F3CF79FDF4CF7AFD7951025C006E27
:1021AE007A510358016E0A0E046E000E056E59EC3C
:1021BE0004F000C0E2F37B517D5D026E7951025E48
:1021CE000A0E0002F3CF01F00150025C006E00C057
:1021DE00DFF301C080F9005001240901806F6ECD3C
:1021EE0081FD6FCD82FD740E0D01836F0D0E846F18
:1021FE003DDD6ECD81FD6FCD82FDA50E836F000E90
:10220E00846F34DD05D06ECDE1FF6FCDE2FFE66A5F
:10221E0072A375D0020E7025E96E000E7121EA6E62
:10222E00EECF81FD730E826F0D0E836F7DEC06F087
:10223E00020E7025E96E000E7121EA6EEECF8BF95B
:10224E006ECD81FD6FCD82FD740E836F0D0E846F8A
:10225E000DDD6ECD81FD6FCD82FDA10E836F000E63
:10226E00846F04DD010E7025E96E000E7121EA6E99
:10227E00EECF81FD730E826F0D0E836F7DEC06F037
:10228E00010E7025E96E000E7121EA6EEECF84F913
:10229E007451200A02E1300E746F6ECD81FD6FCD48
:1022AE0082FD740E836F0D0E846FE0DC6ECD81FDAA
:1022BE006FCD82FDA30E836F000E846FD7DC70CDC1
:1022CE00E9FF71CDEAFFEECF81FD730E826F0D0E29
:1022DE00836F7DEC06F070CDE9FF71CDEAFFEECF96
:1022EE0085F97451200A02E1300E746F6ECD81FDB6
:1022FE006FCD82FD740E836F0D0E846FB7DC72A5E9
:10230E0033D06ECD81FD6FCD82FDA70E836F000E93
:10231E00846FACDC800E000A006E800E0201C619BE
:10232E00005C0AE26ECD81FD6FCD82FD300E0D0197
:10233E00836F010E846F9ADC6ECD81FD6FCD82FDB1
:10234E0000EC07F000506E25856F01506F21866FEF
:10235E00C6C281FD000E0201C6BFFF0E0D01826FC7
:0A236E00836F846F1DEC07F012006E
:102378000C6A0E6A0250D8A4D5EF11F001C002F021
:1023880000C001F0006A0E860250D8A4D5EF11F003
:1023980001C002F0016A0E960E880250D8B4E7EF29
:1023A80011F00E50035ED8A4D8A0EDEF11F0D8902C
:1023B80002BEF3EF11F0003601360236032EDCEFD1
:1023C80011F0EDEF11F0010E0C6E74EC04F0F7EF64
:1023D80011F0020E0C6E20EC04F0F7EF11F0040E71
:0823E8000C6E55EC04F012002C
:1023F000899852C4E1FF53C4E2FF3A0EE66E50C41E
:1024000000F051C401F0E4EC00F052C4E1FF53C409
:10241000E2FFE66A50C400F051C401F0E4EC00F0C1
:042420008988120095
:102424000D017151FF0A02E1FF0E701907E09B6B69
:1024340070CD9CFD71CD9DFDC0EC01F0899852C416
:10244400E1FF53C4E2FF3A0EE66E50C400F051C4FB
:1024540001F0E4EC00F072CD00F073CD01F0010E58
:102464000D01725F000E735B0050011015E052C441
:10247400E1FF53C4E2FFE66A50C400F051C401F026
:10248400E4EC00F06ECDE1FF6FCDE2FF00C0E6FFAB
:0C2494000D016E4B6F2BDFD78988120002
:1024A0000D016F51020AD8B497D0330E006E000EA2
:1024B000016E70CD04F0000E056EF8EC03F0000E16
:1024C0000024066E0C0E0120076E2C0E0624E96E09
:1024D000000E0720EA6E010EEE24026E000EEE20C2
:1024E000036E000E006E040E016E010E005E000E03
:1024F000015A00500214046E03500114056E04C00A
:1025000071FD05C072FD280E0624D96E000E07204D
:10251000DA6EDECF01F0DECF02F00550021802E1E4
:102520000150041819E1330E006E000E016E70CDDB
:1025300004F0000E056EF8EC03F0000E00260C0E01
:102540000122300E0024E16E000E0120E26E010E29
:10255000E66E020E006EACD1330E006E000E016E00
:1025600070CD04F0000E056EF8EC03F0000E0024B0
:10257000026E0C0E0120036E310E0224006E000E5E
:102580000320016E2C0E0224D96E000E0320DA6E99
:1025900000C0E9FF01C0EAFFDE50EE24E16EDE502C
:1025A000EE20E26E6ECDE6FF330E006E000E016E81
:1025B00070CD04F0000E056EF8EC03F0000E00265E
:1025C0000C0E01222C0E0024E16E000E0120E26EA2
:1025D00071CDE6FF72CDE6FF6F510008D8B066D12D
:1025E000330E006E000E016E70CD04F0000E056E0D
:1025F000F8EC03F0000E00260C0E01222C0E002435
:10260000E96E000E0120EA6EEECF03F0EECF04F08B
:102610002A0E0024D96E000E0120DA6EDECF01F002
:10262000DECF02F00250045C02E10150035C25E2BF
:10263000330E006E000E016E70CD04F0000E056EBC
:10264000F8EC03F0000E00260C0E01222C0E0024E4
:10265000E96E000E0120EA6E000EEE24716F040E8A
:10266000EE20726F2A0E0024D96E000E0120DA6E61
:10267000DE50715FDE50725B20D0330E006E000EB4
:10268000016E70CD04F0000E056EF8EC03F0000E44
:1026900000260C0E01222C0E0024E96E000E0120F3
:1026A000EA6E2A0E0024D96E000E0120DA6EDE508A
:1026B000EE5C716FDE50EE58726F330E006E000EDE
:1026C000016E70CD04F0000E056EF8EC03F0000E04
:1026D00000260C0E0122100E0024D96E000E0120DF
:1026E000DA6EDECF01F0DECF02F07251025C02E161
:1026F0007151015C18E2330E006E000E016E70CD58
:1027000004F0000E056EF8EC03F0000E00260C0E2F
:102710000122100E0024E96E000E0120EA6EEECFB9
:1027200071FDEECF72FD330E006E000E016E70CDA6
:1027300004F0000E056EF8EC03F0000E00260C0EFF
:1027400001222E0E0024E16E000E0120E26E71CDFA
:10275000E6FF72CDE6FF330E006E000E016E70CD07
:1027600004F0000E056EF8EC03F0000E00260C0ECF
:102770000122260E0024E16E000E0120E26E2A0ED8
:102780000024E96E000E0120EA6EEECFE6FFEECFE8
:10279000E6FF330E006E000E016E70CD04F0000EE9
:1027A000056EF8EC03F0000E00260C0E01222A0E36
:1027B0000024046E000E0120056E04C0E9FF05C070
:1027C000EAFF7151EE24026E7251EE20036E000E8C
:1027D000006E040E016E010E005E000E015A0250E2
:1027E00000160350011604C0E1FF05C0E2FF00C05F
:1027F000E6FF01C0E6FF330E006E000E016E70CDE5
:1028000004F0000E056EF8EC03F0000E00260C0E2E
:1028100001222A0E0024E96E000E0120EA6EEECF9E
:1028200003F0EECF04F02C0E0024D96E000E012030
:10283000DA6EDECF01F0DECF02F00450021802E1C2
:102840000150031816E0330E006E000E016E70CDBD
:1028500004F0000E056EF8EC03F0000E00260C0EDE
:102860000122300E0024E16E000E0120E26E010E06
:10287000E66E330E006E000E016E70CD04F0000E99
:10288000056EF8EC03F0000E00260C0E01221F0E60
:102890000024E16E000E0120E26E030EE66E100EC3
:1028A000816F70CD82FD22EC08F002D0030E006E25
:0228B000120014
:1028B2000B800BAE65EF14F0026A0AAEFF0E026ED9
:0C28C200016E006E0A360232FF0E12009A
:0828CE000B6A0B86FF0E1200DD
:1028D600899852C4E1FF53C4E2FF7A0EE66E50C4F3
:1028E60000F051C401F0E4EC00F071CD00F072CDBF
:1028F60001F0010E0D01715F000E725B00500110B8
:102906001CE052C4E1FF53C4E2FF6ECDF6FF6FCD6B
:10291600F7FF70CDF8FF0900F5CF00F000C0E6FF25
:1029260050C400F051C401F0E4EC00F0010E0D01BA
:0E2936006E27000E6F237023D8D789881200F9
:10294400AF0E0D01816F190E826F6ECD83FD6FCDB9
:1029540084FD060E856F000E866FE2EC0DF0A40E6A
:10296400916F080E926F060E936F000E946FCBEC6E
:1029740003F0000E816F080E826F16EC0EF01C0E31
:102984000D017625796F000E77217A6F000E816F25
:10299400450E826F16EC0EF079CD81FD7ACD82FD65
:1029A40016EC0EF012C481FD13C482FD16EC0EF079
:1029B4000401124B132B0D01816B826B16EC0EF08C
:1029C400110E0D01816F800E826F16EC0EF00D0159
:1029D400816B826B16EC0EF0540E0D01916F040E98
:1029E400926F040E936F000E946FCBEC03F070CDD6
:1029F40091FD71CD92FD040E936F000E946FCBEC9C
:102A040003F0080E7625796F000E77217A6F72CD68
:102A140081FD73CD82FD16EC0EF074CD81FD75CD74
:102A240082FD16EC0EF079CD81FD7ACD82FD16EC97
:102A34000EF00D01816B826B16EC0EF0BD0E0D01D4
:102A4400916F190E926F140E936F000E946F2DEC0C
:102A540004F0160E0D01986F5AEC03F000C07BFDD4
:102A6400170E0D01986F5AEC03F000C093FDC70ECA
:102A74000D01916F190E926F7BCD94FD46EC06F01B
:102A8400010E0D017915786FD90E7625986F190E00
:102A94007721996F9A6B39EC03F0C90E0D01816FA0
:102AA400190E826FD10E836F190E846FD90E76259D
:102AB400856F190E7721866F78518527000E86233E
:102AC400876B53EC0DF0D90E7625916F190E772193
:102AD400926F78519127000E9223080E9127000ED1
:102AE4009223936B110E946F46EC06F07ACD98FD09
:102AF40020EC03F079CD98FD20EC03F0D10E0D010C
:102B0400916F190E926F0C0E7925936F000E7A2136
:102B1400946F78519327000E94232DEC04F0160E35
:102B24000D01986F5AEC03F000C07BFD170E0D01E8
:102B3400986F5AEC03F000C093FDD70E0D01916F0E
:102B4400190E926F7BCD94FD46EC06F02A0E0D0112
:102B54007625916F000E7721926F96EC04F0000EAB
:042B6400016E1200EC
:102B68000D016E51000A03E17E0E6F11016E6E5168
:102B7800010A03E1180E6F11016E6E51020A03E19A
:102B8800B60E6F11016E6E51030A03E1BC0E6F1190
:102B9800016E6E51040A03E1D80E6F11016E6E5179
:102BA800050A03E1EC0E6F11016E6E51060A03E18E
:102BB800EE0E6F11016E6E51070A03E1380E6F11A8
:102BC800016E6E51080A03E1FE0E6F11016E6E511F
:102BD800090A03E1FC0E6F11016E6E510A0A03E146
:102BE800F20E6F11016E6E510B0A03E1720E6F1136
:102BF800016E6E510C0A03E1780E6F11016E6E5171
:102C08000D0A03E1E60E6F11016E6E510E0A03E123
:102C1800040E6F11016E6E510F0AD8B4016A6E511D
:102C2800100A02E1010E016E6E51110A02E1800ED6
:082C3800016E01C000F0120062
:102C400036C2E9FF37C2EAFFEE50000A08E0000E84
:102C50000201371902E1000E361901E005D0020128
:102C6000B20E366F080E376F36C281FD37C282FD55
:102C700000EC07F000C06FFD100E005C23E2700E48
:102C8000816F0D0E826F36C283FD37C284FD6FCD1A
:102C900085FD000E866FFAEC07F0700E816F0D0E49
:102CA000826F6F518127D8B0822BB20E836F080ECE
:102CB000846F6F511008856F866B000E865BFAEC8F
:102CC00007F00ED0700E816F0D0E826F36C283FD3D
:102CD00037C284FD100E856F000E866FFAEC07F088
:042CE000806B1200F3
:102CE4006ECDE1FF6FCDE2FFE66A0D01726B040E5B
:102CF400725D2FE272517025E96E000E7121EA6E49
:102D0400EECF81FD000E826F836F846F000E826FA1
:102D1400836F846F730E856F0D0E866F1DEC07F045
:102D24006ECD81FD6FCD82FD730E836F0D0E846FAA
:102D34003DEC0EF07251030A0AE06ECD81FD6FCDB9
:102D440082FDC20E836F020E846F3DEC0EF0722B77
:042D5400CED71200C4
:102D58000450000A08E10550000A05E1FF0E006E64
:102D68007F0E016E58D00D6A096A086A015000107A
:102D7800D8B4000C015005180A6E0ABE0D1E0B6A65
:102D880005AE05D0041E051E042AD8B4052A01AED6
:102D980005D0001E011E002AD8B4012A01500510D2
:102DA8000A6E0ABE10D051EC06F00BB020D00DAE62
:102DB800000C001E011E002AD8B4012A081E091E94
:102DC800082AD8B4092A000C05AE0DD001BE07D0D8
:102DD8000150096E0050086E016A006AE8D7016A5E
:102DE800006A002A000C011E001E0B2ADDD7082AE3
:102DF800D8B4092A0450085CD8A4D9D70550095C6E
:102E0800D8A4D5D7096A086A002AD8B4012A01AE1D
:082E1800CED70000FF0C1200F0
:102E200072CD01F073CD02F0010E0D01725F000E44
:102E3000735B000E021802E1000E01181FE06ECD58
:102E4000E9FF6FCDEAFF70CDD9FF71CDDAFFEE500B
:102E5000DE180FE06ECDE9FF6FCDEAFF70CDD9FF30
:102E600071CDDAFFDE50EE5C006E016A000E015A91
:102E700007D06E4B6F2B704B712BD2D7006A016A53
:022E800012003E
:102E82006ECD81FD6FCD82FD540E0D01836F040E58
:102E9200846F040E856F000E866F6DEC0EF0706B02
:102EA2007051030821E370516E25026E000E6F21EE
:102EB200036E02C0E9FF03C0EAFFEECF01F08C0E01
:102EC200E96E080EEA6E7051E926D8B0EA2AFF0EC2
:102ED200EE18006E0150001202C0E1FF03C0E2FFD3
:0A2EE20000C0E6FF702BDCD71200E1
:102EEC00025006180E6E086A096A0B6A03500764D2
:102EFC0069EF18F006500A6E068E028E03500B6EA8
:102F0C000750036E000E0B64B9EF17F00B50075E01
:102F1C00D8B45AEF18F0070E076428EF18F0075EC4
:102F2C0000C008F001C000F002C001F0026A074EB8
:102F3C005AEF18F00764FDEF17F0075E00C008F0B9
:102F4C0001C000F0016A074E5AEF18F00764DBEF7E
:102F5C0017F0075E00C008F0006A074E5AEF18F031
:102F6C000764C2EF17F00AC002F005C001F004C0FC
:102F7C0000F0086A86EF19F0030E0764CDEF17F026
:102F8C00075E08380F0B086E074E5AEF18F0D890F2
:102F9C000832074E5AEF18F0D8900832074E5AEF05
:102FAC0018F0D89008325AEF18F0030E0764ECEFC3
:102FBC0017F0075E08380F0B086E0038F00B082668
:102FCC0000380F0B006E074E5AEF18F0D8900032F5
:102FDC000832074E5AEF18F0D89000320832074EDC
:102FEC005AEF18F0D890003208325AEF18F0030E4E
:102FFC00076414EF18F0075E08380F0B086E0038E2
:10300C00F00B082600380F0B006E0138F00B002671
:10301C0001380F0B016E074E5AEF18F0D8900132A1
:10302C0000320832074E5AEF18F0D89001320032B5
:10303C000832074E5AEF18F0D8900132003208329D
:10304C005AEF18F0030E076445EF18F0075E0838C6
:10305C000F0B086E0038F00B082600380F0B006EB3
:10306C000138F00B002601380F0B016E0238F00B03
:10307C00012602380F0B026E074E5AEF18F0D8904B
:10308C000232013200320832074E5AEF18F0D89053
:10309C000232013200320832074E5AEF18F0D89043
:1030AC000232013200320832096A000E0EAE4EEFC7
:1030BC0019F0081E001E011E021E082A0022012201
:1030CC0002224EEF19F00750D8A46FEF18F086EFDC
:1030DC0019F0096A02C00AF0028E068E0750035CD2
:1030EC00076ED8B441EF19F0070E07640FEF19F013
:1030FC00075E0450096E0550046E0650056E066A94
:10310C00074E41EF19F0070E0764E4EF18F0075E65
:10311C000450096E0550046E056A074E41EF19F014
:10312C00070E0764C2EF18F0075E0450096E046ABC
:10313C00074E41EF19F0070E0764A9EF18F00AC00B
:10314C0002F086EF19F0030E0764B4EF18F0075E77
:10315C0009380F0B096E074E41EF19F0D890093260
:10316C00074E41EF19F0D8900932074E41EF19F094
:10317C00D890093241EF19F0030E0764D3EF18F021
:10318C00075E09380F0B096E0438F00B092604385A
:10319C000F0B046E074E41EF19F0D8900432093230
:1031AC00074E41EF19F0D89004320932074E41EF27
:1031BC0019F0D8900432093241EF19F0030E07646C
:1031CC00FBEF18F0075E09380F0B096E0438F00B93
:1031DC00092604380F0B046E0538F00B042605384D
:1031EC000F0B056E074E41EF19F0D89005320432E3
:1031FC000932074E41EF19F0D890053204320932EA
:10320C00074E41EF19F0D89005320432093241EFE4
:10321C0019F0030E07642CEF19F0075E09380F0B39
:10322C00096E0438F00B092604380F0B046E0538B0
:10323C00F00B042605380F0B056E0638F00B05262F
:10324C0006380F0B066E074E41EF19F0D890063278
:10325C00053204320932074E41EF19F0D89006328C
:10326C00053204320932074E41EF19F0D89006327C
:10327C00053204320932086A000E0EAE4EEF19F018
:10328C00091E041E051E061E092A042205220622FA
:10329C000950082604500022055001220650022233
:1032AC000EBE65EF19F0D8A074EF19F0023201329E
:1032BC0000320832033E74EF19F080EF19F0D8B0E9
:1032CC007AEF19F0000E081E001E011E021E082ABD
:1032DC000022012202220A7E7AEF19F0010E0C6EF6
:1032EC00BCEC0EF088EF19F0020E0C6EBCEC0EF07C
:1032FC0088EF19F0040E0C6E7BEC04F088EF19F0DB
:06330C00000E0C6E120021
:1033120048CD4EFD49CD4FFD4ACD50FD4BCD51FD1F
:10332200800E046E510E056E010E066E000E076EC3
:1033320048CD00F049CD01F04ACD02F04BCD03F06B
:1033420098EC05F000C04EFD01C04FFD02C050FDDB
:1033520003C051FD0101F25100240D014E6F010124
:10336200F35101200D014F6F0101F45102200D01B3
:10337200506F0101F55103200D01516F800E4B1961
:10338200006E800E005C08E1000E4A5D05E1000E51
:10339200495D02E1000E485D06E2010E4E5F000E3D
:1033A2004F5B505B515B040E4C255E6F000E4D214E
:1033B2005F6F070E046E000E056E066E076E4ECD31
:1033C20000F04FCD01F050CD02F051CD03F098EC5A
:1033D20005F008C000F009C001F00AC002F00BC0FD
:1033E20003F05ECDE1FF5FCDE2FF00C0E6FFD90E44
:1033F2000D014E255E6F0B0E4F215F6F010E5021A6
:10340200606F000E5121616F5ECD5AFD5FCD5BFD95
:1034120060CD5CFD61CD5DFD5ECD00F05FCD01F064
:1034220060CD02F061CD03F0003600900136023625
:10343200033600360090013602360336B10E046EB2
:103442003A0E056E020E066E000E076E98EC05F03F
:1034520000C06AFD01C06BFD02C06CFD03C06DFDC2
:10346200B10E006E3A0E016E020E026E000E036E77
:103472006ACD04F06BCD05F06CCD06F06DCD07F092
:103482006FEC05F0030E0026000E01220222032239
:10349200040E046E000E056E066E076E98EC05F0C3
:1034A2005ECD62FD5FCD63FD60CD64FD61CD65FDE6
:1034B20000500D01625F0150635B0250645B035078
:1034C200655B62CD5AFD63CD5BFD64CD5CFD65CD70
:1034D2005DFD010E6225006E000E6321016E000E7D
:1034E2006421026E000E6521036EA00E046E0F0EA3
:1034F200056E000E066E076E6FEC05F0090E046E87
:103502004B0E056E160E066E000E076E98EC05F059
:1035120000C066FD01C067FD02C068FD03C069FD11
:10352200B50E006E050E016E000E026E036E66CDC4
:1035320004F067CD05F068CD06F069CD07F06FECB9
:1035420005F0040E046E000E056E066E076E98EC12
:1035520005F01F0E005E000E015A025A035A62CD98
:103562005EFD63CD5FFD64CD60FD65CD61FD005004
:103572000D015E5F01505F5B0250605B0350615B57
:103582005ECD5AFD5FCD5BFD60CD5CFD61CD5DFD25
:10359200500E006E000E016E026E036E5ECD04F0E0
:1035A2005FCD05F060CD06F061CD07F06FEC05F060
:1035B20000C052FD01C053FD02C054FD03C055FDC1
:1035C2008F0E046E090E056E000E066E076E98ECE5
:1035D20005F000C062FD01C063FD02C064FD03C0CE
:1035E20065FD62CD52FD63CD53FD64CD54FD65CDC5
:1035F20055FD8F0E006E090E016E000E026E036EF7
:1036020062CD04F063CD05F064CD06F065CD07F020
:103612006FEC05F0500E046E000E056E066E076E1E
:1036220098EC05F05ECD56FD5FCD57FD60CD58FD9F
:1036320061CD59FD00500D01565F0150575B02509C
:10364200585B0350595B0B0E046E000E056E066E3E
:10365200076E62CD00F063CD01F064CD02F065CD5E
:1036620003F098EC05F000C05EFD01C05FFD02C0F2
:1036720060FD03C061FD5ECD5AFD5FCD5BFD60CD97
:103682005CFD61CD5DFD020E0D016225526F000EE3
:103692006321536F000E6421546F000E6521556F34
:1036A2000C0E006E000E016E026E036E5ECD04F013
:1036B2005FCD05F060CD06F061CD07F06FEC05F04F
:1036C2000050525F0150535B0250545B0350555BF4
:1036D2006ACD00F06BCD01F06CCD02F06DCD03F040
:1036E200310E005E000E015A025A035A640E046E35
:1036F200000E056E066E076E6FEC05F06651002631
:103702006751012268510222695103225E5100264B
:103712005F5101226051022261510322060E4C25A3
:10372200E16E000E4D21E26E00C0E6FF01C0E6FF31
:10373200050E4C25E16E000E4D21E26E52CDE6FFE4
:10374200030E4C25E16E000E4D21E26E56CDE6FFD2
:10375200800E4B19006E800E005C08E1000E4A5D7F
:1037620005E1000E495D02E1000E485D43E248CDED
:1037720000F049CD01F04ACD02F04BCD03F0FF0E2F
:10378200046EFF0E056E066E076E6FEC05F000C04C
:1037920048FD01C049FD02C04AFD03C04BFD800E39
:1037A200046E510E056E010E066E000E076E98EC49
:1037B20005F008C000F009C001F00AC002F00BC019
:1037C20003F000C048FD01C049FD02C04AFD03C02C
:1037D2004BFD800E0D01486F510E496F010E4A6F6D
:1037E200000E4B6F0050485F0150495B02504A5B2C
:1037F20003504B5B800E046E510E056E010E066E79
:10380200000E076E48CD00F049CD01F04ACD02F01E
:103812004BCD03F098EC05F008C000F009C001F0B0
:103822000AC002F00BC003F000C05AFD01C05BFDEC
:1038320002C05CFD03C05DFD100E046E0E0E056E2F
:10384200000E066E000E076E98EC05F000C056FDE5
:1038520001C057FD02C058FD03C059FD020E0D0103
:103862004C25E16E000E4D21E26E00C0E6FF5ACDFE
:1038720056FD5BCD57FD5CCD58FD5DCD59FD020E69
:103882004C25E96E000E4D21EA6EEECF00F0000EDF
:10389200016E026E036E100E046E0E0E056E000EA9
:1038A200066E000E076E6FEC05F05ACD04F05BCD8C
:1038B20005F05CCD06F05DCD07F00050045E0150CE
:1038C200055A0250065A0350075A04C056FD05C055
:1038D20057FD06C058FD07C059FD04C000F005C0E1
:1038E20001F006C002F007C003F03C0E046E000EA9
:1038F200056E000E066E000E076E98EC05F000C015
:1039020056FD01C057FD02C058FD03C059FD010E0E
:103912000D014C25E16E000E4D21E26E00C0E6FF66
:103922003C0E046E000E056E000E066E000E076E53
:103932005ACD00F05BCD01F05CCD02F05DCD03F01D
:1039420098EC05F008C000F009C001F00AC002F0CE
:103952000BC003F000C056FD01C057FD02C058FD68
:1039620003C059FD4CCDE1FF4DCDE2FF00C0E6FFA3
:02397200120041
:103974009BD0B20E0D016E6F080E6F6F706BC80E88
:10398400716F000E726FD9EC0FF00301525346E0D1
:10399400B20E0D01816F080E826F320E836F010E1D
:1039A400846F95EC0EF0B20E816F080E826F00ECFE
:1039B40007F0B20E00246E6F080E01206F6F370EF1
:1039C400706F0C0E716F010E726FF7EC0FF0B20E88
:1039D400816F080E826FAC0E836F000E846F3DEC16
:1039E4000EF0B20E816F080E826F00EC07F0B20E7B
:1039F40000246E6F080E01206F6F600E706F030E4F
:103A0400716F72EC16F0B20E816F080E826F0D0E9C
:103A1400836F010E846F3DEC0EF027D00D01B20EC2
:103A2400816F080E826F620E836F010E846F95ECB6
:103A34000EF0B20E816F080E826F00EC07F0B20E2A
:103A440000246E6F080E01206F6F600E706F030EFE
:103A5400716F72EC16F0B20E816F080E826F920EC7
:103A6400836F010E846F3DEC0EF048CD6EFD20ECAB
:103A740016F025D0B20E6E6F080E6F6F370E706F92
:103A84000C0E716F010E726FF7EC0FF018D0B20EBE
:103A94006E6F080E6F6F370E706F0C0E716F020E23
:103AA400726FF7EC0FF00BD00D014951000AD8B436
:103AB40060D74951010ADEE04951020AE8E01200E8
:083AC400067E76EC17F01200FB
:063ACC000301726B120001
:103AD20048CD02F049CD03F04BCD00F04CCD01F0C2
:103AE200010E0D014B5F000E4C5B0050011009E00E
:103AF20002C0E1FF03C0E2FF4ACDE6FF024A032A09
:0C3B0200EBD748CD00F049CD01F01200D7
:103B0E00F90E0D014B6F000E4C6F020E9B6FD90E0E
:103B1E009C6F190E9D6FC0EC01F0EE0E0D016E6FD5
:103B2E00EA0E6F6F000E706F0C0E716F000E726FDB
:103B3E006BEC14F04851030A0DE149530BE0860E6D
:103B4E00916F040E926F040E936F000E946FCBEC78
:103B5E0003F00AD04A6B040E4A5D06E2986B20EC25
:103B6E0003F00D014A2BF7D74A6B0C0E4A5D06E2A5
:103B7E00986B20EC03F00D014A2BF7D7A40E916F32
:103B8E00080E926F060E936F000E946FCBEC03F03F
:103B9E004A6BCA0E4A5D06E2986B20EC03F00D01EB
:103BAE004A2BF7D7490E6E6FEB0E6F6F000E706FCC
:103BBE00060E716F000E726F6BEC14F048CD98FD0F
:103BCE0020EC03F00D014851030A1AE1495318E1A4
:103BDE00360E986F20EC03F0040E0D01986F20EC5A
:103BEE0003F0F40E0D01916F030E926F040E936F9E
:103BFE00000E946FCBEC03F0060E4B27000E4C23F9
:103C0E004F0E6E6FEB0E6F6F000E706F050E716FB5
:103C1E00000E726F6BEC14F04851030A23E1495306
:103C2E0021E1320E986F20EC03F0040E0D01986F17
:103C3E0020EC03F00D014A6B040E4A5D0FE2860E76
:103C4E00E96E040EEA6E4A51E926D8B0EA2AEECFA2
:103C5E0098FD20EC03F00D014A2BEED7060E4B27F4
:103C6E00000E4C23FF0E986F20EC03F0D30E0D01C7
:103C7E006E6F010E6F6FD30E706F010E716F440E6B
:103C8E00726F000E736F430E746F000E756F4BCD17
:0C3C9E0076FD4CCD77FDA2EC14F0120076
:103CAA000450000A12E10550000A0FE10650000A0A
:103CBA000CE10750000A09E1FF0E006EFF0E016ECB
:103CCA007F0E026EFF0E036EA8D0086A096A0750BB
:103CDA00D8B400EF1FF00350D8B405EF1FF002501C
:103CEA0006180A6E028E068E0E6A02C008F001C01D
:103CFA000CF000C00DF004500D5E0550D8A0053C34
:103D0A000C5E0650D8A0063C085E086A0C6A0D6A6A
:103D1A00D8A097EF1EF0D890023201320032083252
:103D2A00010E0E6E0750035ED8A0A4EF1EF07E0EA1
:103D3A000E240326D8B00AEF1FF0AAEF1EF07E0E5B
:103D4A000E240326D8A00FEF1FF0180E0B6E0D36A7
:103D5A000C3608360036013602360E360450005E3E
:103D6A000550D8A0053C015E0650D8A0063C025E6C
:103D7A0006340E120EA0C5EF1EF00D80D0EF1EF015
:103D8A00045000260550D8B0053C01260650D8B08C
:103D9A00062802260D900B2EACEF1EF0F6EF1EF051
:103DAA00D8900036013602360E360450005E0550B1
:103DBA00D8A0053C015E0650D8A0063C025E063437
:103DCA000E10010B0D26D8B00C2AD8B4082AD8A494
:103DDA00F6EF1EF008320C320D32032AD8B40AEF7D
:103DEA001FF00AAE089E0850026E0C50016E0D506C
:103DFA00006E12EF1FF0010E67EC14F012EF1FF0C5
:103E0A00020E74EC04F012EF1FF0040E7BEC04F0C7
:0C3E1A0012EF1FF0080E20EC04F0120064
:103E26000B6A0C6A0A6A0350D8B45DEF1FF0028E63
:103E36008E0E035E03BE25EF1FF0D8B425EF1FF0EC
:103E460061EF1FF0036C080E035CD8A03CEF1FF077
:103E5600036E013602C001F0026A080E035CD8A0A8
:103E66003CEF1FF00136016A0350D8A4D89046EF04
:103E76001FF00350D8B446EF1FF0D890023201323B
:103E8600032E40EF1FF00BBC01A053EF1FF0D8A08C
:103E960053EF1FF0012AD8B4022A02BE70EF1FF0BA
:103EA6000AAE76EF1FF0021E011E012AD8B4022ABE
:103EB60076EF1FF0026A016A76EF1FF00B800BAEF9
:103EC6007AEF1FF0026A0AAE7AEF1FF0FF0E026E5B
:103ED600016E0A3602327AEF1FF0010E0C6E59ECB3
:103EE60014F07CEF1FF0000E0C6E7CEF1FF0FF0E3F
:0C3EF6000C6E0150006E0250016E1200B4
:103F02000A0E046E85C900F087EC04F000C07AF94D
:103F12000A0E0002F3CF00F000500901855D866FA2
:103F22000A0E046E84C900F087EC04F000C083F925
:103F32000A0E0002F3CF00F00050845D876F0A0E74
:103F4200046E8BC900F087EC04F000C08AF90A0EF7
:103F52000002F3CF00F000508B5D886F0A0E046EF2
:103F620082C900F087EC04F000C089F90A0E000251
:103F7200F3CF00F00050825D7D6F0A0E046E7BC9A4
:103F820000F087EC04F000C07EF90A0E0002F3CFC5
:103F920000F000507B5D7C6F0A0E046E80C900F059
:103FA20087EC04F000C07FF90A0E0002F3CF00F0A4
:103FB2000050805D816F02016551010A44E18096E3
:103FC20000000000000086C96EFD0D016F6BB4ECAD
:103FD20015F000C06EFDB1EC0FF07AC96EFD0D0157
:103FE2006F6BB4EC15F000C06EFDB1EC0FF087C939
:103FF2006EFD0D016F6BB4EC15F000C06EFDB1ECFF
:104002000FF083C96EFD0D016F6BB4EC15F000C0AB
:104012006EFDB1EC0FF088C96EFD7EC36FFDB4EC8E
:1040220015F000C06EFDB1EC0FF08AC96EFD7BC3C6
:104032006FFDB4EC15F000C06EFDB1EC0FF00000A6
:1040420000000000808602016551020A44E1809668
:1040520000000000000081C96EFD0D016F6BB4EC21
:1040620015F000C06EFDB1EC0FF07FC96EFD0D01C1
:104072006F6BB4EC15F000C06EFDB1EC0FF07CC9B3
:104082006EFD0D016F6BB4EC15F000C06EFDB1EC6E
:104092000FF07EC96EFD0D016F6BB4EC15F000C020
:1040A2006EFDB1EC0FF07DC96EFD7EC36FFDB4EC09
:1040B20015F000C06EFDB1EC0FF089C96EFD7BC337
:1040C2006FFDB4EC15F000C06EFDB1EC0FF0000016
:0840D2000000000080861200CE
:1040DA00280E0D014825E96E000E4921EA6EEECF41
:1040EA0003F0EECF04F02C0E4825D96E000E4921BC
:1040FA00DA6EDECF01F0DECF02F00450021802E1E0
:10410A000150031803E1010E006E01D0006A12008B
:10411A0048CD6EFD0D016F6B230E4925E96E000E29
:10412A004A21EA6EEECF70FD50EC12F0020E005EEC
:02413A00120071
:10413C000A6A0350D8A40A800750D8A40A820A50ED
:10414C00D8B401EF21F0030AD8B4BAEF20F00AB0CA
:10415C00B5EF20F006AEFFEF20F0FDEF20F002AE41
:10416C00FDEF20F0FFEF20F00250800B0A6E029E54
:10417C000650800B069E0A18D8B4CBEF20F00A50DC
:10418C00D8B4FDEF20F0FFEF20F00750035CD8B45B
:10419C00D5EF20F0D8A0F1EF20F0F7EF20F006508B
:1041AC00025CD8B4DFEF20F0D8A0F1EF20F0F7EFED
:1041BC0020F00550015CD8B4E9EF20F0D8A0F1EF65
:1041CC0020F0F7EF20F00450005CD8B401EF21F0A0
:1041DC00D8B0F7EF20F00A52D8B4FFEF20F0FDEF83
:1041EC0020F00A52D8B4FDEF20F0FFEF20F0D88079
:0E41FC001200D8901200D880D8841200120051
:10420A00250E0D014825E16E000E4921E26E050ECC
:10421A00E66E1E0E4825E16E000E4921E26E030E7F
:10422A00E66E280E4825E16E000E4921E26EE66A26
:10423A00E66A2A0E4825E16E000E4921E26EE66A18
:10424A00E66A2C0E4825E16E000E4921E26EE66A06
:10425A00E66A110E816F230E4825E96E000E492188
:0C426A00EA6EEECF82FD22EC08F012009C
:104276000D014F6B506B48CD00F049CD01F04ACD92
:1042860002F0010E4827000E49234A2300C0F6FF1C
:1042960001C0F7FF02C0F8FF0900F5CF4DFD000E83
:1042A6004E6F4D514E1114E04DCD6EFD6F6B230ECA
:1042B6004B25E96E000E4C21EA6EEECF70FD50ECF8
:1042C60012F00050020A01E103D04F4B502BD3D716
:0A42D6004FCD00F050CD01F01200B2
:1042E0004CCD01F04DCD02F0010E0D014C5F000EE2
:1042F0004D5B000E021802E1000E01181FE048CDD0
:10430000E9FF49CDEAFF4ACDD9FF4BCDDAFFEE50A8
:10431000DE180FE048CDE9FF49CDEAFF4ACDD9FFCD
:104320004BCDDAFFDE50EE5C006E016A000E015AE2
:1043300007D0484B492B4A4B4B2BD2D7006A016A16
:02434000120069
:104342000D014E6B4F6B48CD02F049CD03F0025088
:104352004A25E96E03504B21EA6EEE50000A49E00D
:1043620002504A25E96E03504B21EA6E4CCDD9FF2B
:104372004DCDDAFFEE50DE1832E102C004F003C088
:1043820005F00250045C006E03500558016E0050A7
:104392004C25E96E01504D21EA6EEE50000A05E10E
:1043A200010E4E6F000E4F6F1AD004504A25E96E6F
:1043B20005504B21EA6E0250045C006E0350055812
:1043C200016E00504C25D96E01504D21DA6EEE502F
:1043D200DE1801E101D003D0044A052AD2D7000E2B
:1043E2004F1902E1010E4E1901E103D0024A032ADC
:0C43F200AED704C000F005C001F01200BE
:1043FE00086A096A000E0762036484EF22F0025015
:10440E0006180A6E075003267E0ED8A015EF22F06E
:10441E00035ED8B089EF22F019EF22F0035ED8A028
:10442E008EEF22F0028E068E02C00EF001C00BF04F
:10443E0000C00DF000500402F4CF0CF00150050244
:10444E00F4CF00F0F3CF08F00402F3500C26F45032
:10445E000822000E00220D500502F3500C26F450D7
:10446E000822000E002202500402F3500826F450D7
:10447E00002202500502016A000E0122F3500026AE
:10448E00F45001220D500602F3500826F45000227B
:10449E00026A000E012202220B500602F350002681
:1044AE00F4500122000E02220E500602F350012695
:1044BE00F450022202BE6CEF22F0083600360136AE
:1044CE0002360306D8B48EEF22F07FEF22F0D880AA
:1044DE00800E08640030000E002201220222D8A0B5
:1044EE007FEF22F0023201320032034A89EF22F0CE
:1044FE000AAE029E000E91EF22F0010E74EC04F053
:10450E0091EF22F0020E7BEC04F091EF22F0040EFC
:06451E0020EC04F0120085
:10452400640E046E63C300F087EC04F000C048FD21
:10453400640E0002F3CF00F0F4CF01F00050030149
:10454400635D0D014B6F01C04CFD000E4C570A0E0C
:10455400046E000E056E4BCD00F04CCD01F0ACECBA
:1045640016F000C049FD0A0E0002F3CF00F000501F
:104574000D014B5D4A6F80960F0E6E6F6F6BB4EC3E
:1045840015F000C06EFDB1EC0FF00F0E0D016E6F53
:104594006F6BB4EC15F000C06EFDB1EC0FF00F0EB4
:1045A4000D016E6F6F6BB4EC15F000C06EFDB1ECD5
:1045B4000FF04ACD6EFD0D016F6BB4EC15F000C029
:1045C4006EFDB1EC0FF049CD6EFD0D016F6BB4ECD7
:1045D40015F000C06EFDB1EC0FF048CD6EFD0D017D
:1045E4006F6BB4EC15F000C06EFDB1EC0FF080867B
:1045F4000400520E0B6E2B0E0C6E000E0D6E0D2E63
:10460400FED70C2EFCD70B2EFAD7000004008096A0
:104614000F0E0D016E6F6F6BB4EC15F000C06EFDE4
:10462400B1EC0FF00F0E0D016E6F6F6BB4EC15F063
:1046340000C06EFDB1EC0FF00F0E0D016E6F6F6BCD
:10464400B4EC15F000C06EFDB1EC0FF00F0E0D01CF
:104654006E6F6F6BB4EC15F000C06EFDB1EC0FF033
:104664000F0E0D016E6F6F6BB4EC15F000C06EFD94
:10467400B1EC0FF00F0E0D016E6F6F6BB4EC15F013
:1046840000C06EFDB1EC0FF080860400150E0B6EB9
:104694004B0E0C6EBE0E0D6E0D2EFED70C2EFCD7DF
:0A46A4000B2EFAD7000004001200EC
:1046AE000050086E0150006E016A026A036A0B6ABE
:1046BE000C6A960E036E0A6A00C001F008C000F084
:0A46CE00086A026ABCEC11F0120049
:1046D8000050086E0150006E0250016E0350026EC9
:1046E800036A0B6A0C6A9E0E036E0A6A02AE89EFB1
:1046F80023F0081E001E011E021E082AD8B4002A34
:10470800D8B4012AD8B4022A0A8E020E0C6EBCEC68
:044718000EF012008D
:10471C008C0E0D01816F080E826F48CD83FD49CD43
:10472C0084FD040E856F000E866F6DEC0EF0FC0E92
:10473C00816F030E826F4ACD83FD4BCD84FD040E39
:10474C00856F000E866F6DEC0EF0000E816F040EFF
:10475C00826F4CCD83FD4DCD84FD040E856F000E14
:10476C00866F6DEC0EF0080E6E6F040E6F6F41ECE1
:04477C0017F0120020
:104780000B6A0C6A086A0350D8B444EF24F002C0E4
:104790000AF0028E9E0E035E03AE34EF24F0036C2B
:1047A000080E035CD8A001EF24F0036E083600C0A9
:1047B00008F001C000F002C001F0026A080E035CBC
:1047C000D8A001EF24F0036E083600C008F001C045
:1047D00000F0016A080E035CD8A001EF24F0036E1C
:1047E000083600C008F0006A080E035CD8A001EF8C
:1047F00024F0036E0836086A0350D8A4D8900DEF51
:1048000024F00350D8B40DEF24F0D89002320132D6
:1048100000320832032E05EF24F00BBC08A01EEF77
:1048200024F0D8A01EEF24F0082AD8B4002AD8B467
:10483000012AD8B4022A02BE48EF24F00AAE44EF9F
:1048400024F0021E011E001E081E082AD8B4002AE9
:10485000D8B4012AD8B4022A44EF24F0026A016ACB
:10486000006A086A44EF24F00B800BAE4FEF24F08F
:10487000026A0AAE4FEF24F0026E016E006E086EFF
:104880000A3602324FEF24F00C6A000E50EF24F08B
:10489000010E0C6E000E59EC14F050EF24F0FF0ED8
:1048A0000250036E0150026E0050016E0850006EFF
:0248B0001200F4
:1048B20048CDE9FF49CDEAFFEE5211E048CDE9FFCC
:1048C20049CDEAFF4ACDD9FF4BCDDAFFEE50DE18D3
:1048D20006E10D01484B492B4A4B4B2BE9D748CDFA
:1048E200E9FF49CDEAFF4ACDD9FF4BCDDAFFDE50D1
:0C48F200EE5C006E016A000E015A12001C
:1048FE000D014A6B3C0E0301EC6F000EED6FEE6F77
:10490E00EF6FF8EC11F000C048FD0050020AD8A479
:10491E002FD10D01496B0F0E495D05E2F8EC11F038
:10492E000D01492BF8D7860E6E6F040E6F6FFF0EBA
:10493E00706FFF0E716F040E726F000E736F12ECBC
:10494E0012F0496B080E495D05E2F8EC11F00D010D
:10495E00492BF8D7496B060E495D13E2F8EC11F0BE
:10496E0000C048FDA40ED96E080EDA6E0D01495135
:10497E00D926D8B0DA2A0050DE1801E025D1492B0D
:10498E00EAD7496BCE0E495D05E2F8EC11F00D0148
:10499E00492BF8D74B6BF8EC11F000C048FDC9D08D
:1049AE00F8EC11F000C048FD0050010A05E1F8ECEA
:1049BE0011F000C04AFD01D007D1D6D0F8EC11F0AD
:1049CE0000C048FD0050040A10E1F00E0D016E6F9C
:1049DE00030E6F6FFF0E706FFF0E716F040E726F0E
:1049EE00000E736F12EC12F001D0EED0BDD0F8ECC9
:1049FE0011F000C048FD040E005C10E3F80E0D012E
:104A0E006E6F030E6F6FFF0E706FFF0E716F040EE1
:104A1E00726F000E736F12EC12F001D0D5D00D0133
:104A2E00040E485F0D0148CD00F04807005203E028
:104A3E00F8EC11F0F7D798D0F8EC11F000C048FD63
:104A4E00040E005C10E3040E0D016E6F040E6F6F0A
:104A5E00FF0E706FFF0E716F040E726F000E736F8C
:104A6E0012EC12F001D0B0D00D01040E485F0D0112
:104A7E0048CD00F04807005203E0F8EC11F0F7D7EC
:104A8E0073D0F8EC11F000C048FD0050040A10E19C
:104A9E004C0E0D016E6F0D0E6F6FFF0E706FFF0ED1
:104AAE00716F040E726F000E736F12EC12F001D064
:104ABE008BD05AD00D01010E4B6F56D0F8EC11F081
:104ACE0000C048FD0050040A24E1EC0E0D016E6F8B
:104ADE00030E6F6FFF0E706FFF0E716F040E726F0D
:104AEE00000E736F12EC12F00301EF51000808E193
:104AFE00EE51000805E1ED51070802E1EC510808FE
:104B0E0007E2080EEC5F070EED5B000EEE5BEF5B4F
:104B1E0001D05AD029D0F8EC11F000C048FD48CD94
:104B2E0000F00D014807005203E0F8EC11F0F7D742
:104B3E001BD00D014851350AD8B432D74851010A5D
:104B4E00D8B43CD74851030AD8B451D74851060AB5
:104B5E00D8B472D74851360A94E04851FF0AAAE0F9
:104B6E004851330AABE0D7D70D014B53D8B413D706
:104B7E000D014A51020A0FE1F40E816F030E826F8E
:104B8E004C0E836F0D0E846F040E856F000E866FB4
:104B9E006DEC0EF016D0F40E6E6F030E6F6F4C0EA2
:104BAE00706F0D0E716F040E726F000E736F10EC3E
:104BBE0017F0000E011802E1000E001802E00D01C0
:0C4BCE004A6B4ACD00F001D0006A1200D2
:104BDA00B50E0D01816F190E826FBB0E836F190E10
:104BEA00846FAF0E856F190E866F876B53EC0DF0CD
:104BFA00B50E816F190E826FA40E836F080E846F33
:0E4C0A00060E856F000E866FE2EC0DF01200B4
:104C18000D01986B5AEC03F000C02EFD010E0D013A
:104C2800986F5AEC03F000C02FFD0D019B6B29CD46
:104C38009CFD2ACD9DFDC0EC01F0899852C4E1FF8E
:104C480053C4E2FF3A0EE66E50C400F051C401F0BE
:104C5800E4EC00F00D012D5318E052C4E1FF53C4F9
:104C6800E2FFE66A50C400F051C401F0E4EC00F041
:104C78002BCDD9FF2CCDDAFF0050DE1801E005D08E
:104C88000D012B4B2C2B2D07E5D70D0189889B6B2C
:104C98002ECD9CFD2FCD9DFDC0EC01F02DCD00F05B
:024CA8001200F8
:104CAA00B6D0540E0D01486F040E496F4A6B040EBC
:104CBA004B6F000E4C6F69EC1DF0010E486F496B8B
:104CCA0087EC1DF073C3E6F374C3E7F375C3E8F327
:104CDA0076C3E9F3030E0201036FACD0050E03019C
:104CEA00E625016E000EE721026E000EE821036E32
:104CFA00000EE921046E7651045C08E17551035CEB
:104D0A0005E17451025C02E17351015C03E2020E97
:104D1A000201036FEFDD0050020A04E1040E0201F2
:104D2A00036F01D087D0030E0D01486FBCC149FD46
:104D3A0087EC1DF073C3E6F374C3E7F375C3E8F3B6
:104D4A0076C3E9F3050E0201036F74D0D3DD00C008
:104D5A0029FD0050060A04E1040E0201036F2ED059
:104D6A000D012951050A2AE173C3E6F374C3E7F377
:104D7A0075C3E8F376C3E9F3060E0201036F540E16
:104D8A000D01816F040E826F860E836F040E846F8D
:104D9A00040E856F000E866F6DEC0EF0F00E486FF4
:104DAA00030E496FF80E4A6F030E4B6F040E4C6FD9
:104DBA00040E4D6FAEDC0101BC6B3CD03BD0010E42
:104DCA000301E625016E000EE721026E000EE821BE
:104DDA00036E000EE921046E0450765D08E103506B
:104DEA00755D05E10250745D02E10150735D0EE3E9
:104DFA00010EEC5F000EED5BEE5BEF5B73C3E6F357
:104E0A0074C3E7F375C3E8F376C3E9F313D0020179
:104E1A000351020AD8B445D70351030AD8B45ED75E
:104E2A000351040AD8B47FD70351050A8FE003510E
:064E3A00060AC5E01200AB
:104E40000D012A51190802E12951AD0808E2AD0E01
:104E5000295F190E2A5B010E295F000E2A5B9B6BEE
:0E4E600029CD9CFD2ACD9DFDC0EC01F0120075
:104E6E00F8EC11F0F8EC11F0F8EC11F000C02AFD9E
:104E7E00F8EC11F000C029FDF8EC11F000C02CFD8B
:104E8E00F8EC11F000C02BFDF8EC11F000C02EFD77
:104E9E00F8EC11F000C02DFDF8EC11F0F8EC11F06B
:104EAE00F8EC11F0F8EC11F02BCD00F02CCD01F058
:104EBE00010E0D012B5F000E2C5B005001100EE059
:104ECE00F8EC11F0005201E0FBD7F8EC11F0F8EC21
:104EDE0011F0F8EC11F0F8EC11F0E6D72DCD00F052
:104EEE002ECD01F0010E0D012D5F000E2E5B005038
:104EFE00011048E0F8EC11F0F8EC11F0F8EC11F0BC
:104F0E0000C032FDF8EC11F000C031FDF8EC11F0EC
:104F1E00F8EC11F0F8EC11F0F8EC11F0F8EC11F0EF
:104F2E00F8EC11F0F8EC11F000C030FDF8EC11F0D7
:104F3E0000C02FFD000E0D01321902E1010E3119D4
:104F4E0011E1F8EC11F000C014F4F8EC11F000C00F
:104F5E0015F4F8EC11F000C016F4F8EC11F000C0E6
:104F6E0017F410D02FCD00F030CD01F0010E0D0151
:104F7E002F5F000E305B0050011003E0F8EC11F0D3
:064F8E00F1D7ACD71200C0
:104F94000D012D6B2E6B2F6B306B0C0E2925E96EDA
:104FA400000E2A21EA6EEECF01F0EECF02F0000EE1
:104FB400021802E1500E011802E0D9EF2DF02B6B1C
:104FC4002C6B800E2C19006E800E005C02E10A0E20
:104FD4002B5D12E28D0E2B25316F090E2C21326FC1
:104FE400F8EC11F031CDE1FF32CDE2FF00C0E6FF75
:104FF4000D012B4B2C2BE5D78D0E486F090E496FF5
:10500400B10E4A6F020E4B6F060E4C6F000E4D6FC1
:1050140070EC21F0000E011802E1000E001806E108
:10502400010E0201C06F020EC16F63D08D0E0D011F
:10503400486F090E496FB90E4A6F020E4B6F050E89
:105044004C6F000E4D6F70EC21F0000E011802E160
:10505400000E001835E10201BF51000A05E1010EFE
:10506400446F020EC16F2BD009019251740A0AE1F8
:105074000201BF51010A06E1456B010E416F020EA8
:10508400C16F1DD0090192516E0A0AE10201BF519C
:10509400010A06E1416B010E456F020EC16F0FD08C
:1050A400090192516C0A0BE10201BF51010A07E1A7
:1050B400010E446F426B436BBF6B020EC16F19D07C
:1050C4008D0E0D01486F090E496F460E4A6F020E90
:1050D4004B6F060E4C6F000E4D6F70EC21F0000EFE
:1050E400011802E1000E001804E10201C16B010E77
:1050F400606F8D0E0D01486F090E496FB90E4A6F2E
:10510400020E4B6F050E4C6F000E4D6F70EC21F0CC
:10511400005001100BE0250E0D012925E96E000E4B
:105124002A21EA6EEE50030A01E01ED00D018D0E15
:10513400486F090E496F460E4A6F020E4B6F060EFA
:105144004C6F000E4D6F70EC21F0005001100BE01D
:10515400250E0D012925E96E000E2A21EA6EEE5076
:10516400030A01E001D002D0D9EF2DF0020E0201B2
:10517400C15D36E22C0E006E010E016EC1C204F058
:10518400000E056EF8EC03F000C02DFD01C02EFDED
:105194000201C151010F006E016A000E01222C0EA2
:1051A400046E010E056EF8EC03F001500D012E5D46
:1051B40002E100502D5D12E28D0E2D25316F090E96
:1051C4002E21326FF8EC11F031CDE1FF32CDE2FF48
:1051D40000C0E6FF0D012D4B2E2BDAD70201C12BA7
:1051E400C151020AD8A4D9EF2DF06051010AD8A404
:1051F400E3D00D012F6B306B486B496B8D0E4A6FFA
:10520400090E4B6F610E4C6F020E4D6FA1EC21F035
:1052140000C02FFD01C030FD2B6B2C6B800E2C19B0
:10522400006E800E005C02E10F0E2B5D2FE2010E7A
:105234002F25006E000E3021016E2B5100262C51BB
:1052440001228D0E0024E96E090E0120EA6EEE5053
:10525400260A01E11BD04D0E2B25E16E020E2C21F6
:10526400E26E010E2F25006E000E3021016E2B51CF
:1052740000262C5101228D0E0024E96E090E012016
:10528400EA6EEECFE6FF2B4B2C2BC8D72FCD48FD73
:1052940030CD49FD8D0E4A6F090E4B6F5C0E4C6F7D
:1052A400020E4D6FA1EC21F000C02FFD01C030FDB6
:1052B4002B6B2C6B800E2C19006E800E005C02E1AF
:1052C400080E2B5D1BE2380E2B25E16E020E2C21FD
:1052D400E26E010E2F25006E000E3021016E2B515F
:1052E40000262C5101228D0E0024E96E090E0120A6
:1052F400EA6EEECFE6FF2B4B2C2BDCD70201606B62
:105304004D0E0D01486F020E496F1A0E4A6F020EC0
:105314004B6F59EC24F0000E011802E1000E001846
:1053240012E1380E0D01486F020E496F290E4A6FC3
:10533400020E4B6F59EC24F0000E011802E1000E2E
:10534400001801E105D00201BF51010A01E006D0B5
:105354000201010EBF6F010E416F2ED0BF6B010E13
:10536400446F0D012B6B2C6B800E2C19006E800E7C
:10537400005C02E10F0E2B5D0AE24D0E2B25E16E5F
:10538400020E2C21E26EE66A2B4B2C2BEDD72B6BF5
:105394002C6B800E2C19006E800E005C02E1080E4E
:1053A4002B5D0AE2380E2B25E16E020E2C21E26EF3
:1053B400E66A2B4B2C2BEDD702014151010AD8A4EC
:1053C400EFD0230E0D012925E96E000E2A21EA6E85
:1053D400EECF03F003C000F0000E016E0036009023
:1053E4000136EB0E0024E96E0B0E0120EA6EEECFBF
:1053F40001F0EECF02F002011751025C02E11651F6
:10540400015C6BE2230E0D012925E96E000E2A21B1
:10541400EA6EEECF03F003C000F0000E016E00361A
:1054240000900136EB0E0024046E0B0E0120056E75
:1054340004C0E9FF05C0EAFFEECF02F0EECF03F0AF
:10544400010E0224006E000E0320016E04C0E1FF71
:1054540005C0E2FF00C0E6FF01C0E6FF240E0224FF
:10546400F66ED60E0320F76E000EF86E000EF822CC
:105474000900F5CF48FD29CD49FD2ACD4AFD8DEC23
:1054840020F00050000A28E1230E2925E96E000EC1
:105494002A21EA6EEECF03F003C000F0000E016E85
:1054A400003600900136EB0E0024026E0B0E012034
:1054B400036E02C0E9FF03C0EAFF010EEE5C006E5A
:1054C400000EEE58016E02C0E1FF03C0E2FF00C00F
:1054D400E6FF01C0E6FF01D074D729CD48FD2ACDEF
:1054E40049FD6DEC20F000525BE0230E2925E96EA6
:1054F400000E2A21EA6EEECF03F003C000F0000E86
:10550400016E003600900136EB0E0024E96E0B0E9E
:105514000120EA6EEECF01F0EECF02F00201175146
:10552400025C02E11651015C3BE329CD48FD2ACD22
:1055340049FD05EC21F0230E2925D96E000E2A2100
:10554400DA6EDECF00F0000E016E330E046E000E34
:10555400056EF8EC03F0000E00260C0E0122250E59
:105564000024E16E000E0120E26EE66A230E292576
:10557400E96E000E2A21EA6EEECF03F003C000F0BC
:10558400000E016E003600900136EB0E0024E16E31
:105594000B0E0120E26EE66AE66A0201416BC16B02
:1055A40002014551010AD8A4EFD0230E0D0129258B
:1055B400E96E000E2A21EA6EEECF03F003C000F07C
:1055C400000E016E003600900136EB0E0024E96EE9
:1055D4000B0E0120EA6EEECF01F0EECF02F00201D5
:1055E4001951025C02E11851015C6BE2230E0D01BA
:1055F4002925E96E000E2A21EA6EEECF03F003C0DE
:1056040000F0000E016E003600900136EB0E00240F
:10561400046E0B0E0120056E04C0E9FF05C0EAFF0D
:10562400EECF02F0EECF03F0010E0224006E000E66
:105634000320016E04C0E1FF05C0E2FF00C0E6FFE5
:1056440001C0E6FFC30E0224F66EE20E0320F76EDD
:10565400000EF86E000EF8220900F5CF48FD29CDA2
:1056640049FD2ACD4AFD8DEC20F00050000A28E1C6
:10567400230E2925E96E000E2A21EA6EEECF03F0EF
:1056840003C000F0000E016E003600900136EB0EF0
:105694000024026E0B0E0120036E02C0E9FF03C05A
:1056A400EAFF010EEE5C006E000EEE58016E02C0C1
:1056B400E1FF03C0E2FF00C0E6FF01C0E6FF01D046
:1056C40074D729CD48FD2ACD49FD6DEC20F0005258
:1056D4005BE0230E2925E96E000E2A21EA6EEECF47
:1056E40003F003C000F0000E016E00360090013696
:1056F400EB0E0024E96E0B0E0120EA6EEECF01F0F2
:10570400EECF02F002011951025C02E11851015C72
:105714003BE329CD48FD2ACD49FD05EC21F0230EBC
:105724002925D96E000E2A21DA6EDECF00F0000E94
:10573400016E330E046E000E056EF8EC03F0000EDD
:1057440000260C0E0122250E0024E16E000E01201D
:10575400E26EE66A230E2925E96E000E2A21EA6E1E
:10576400EECF03F003C000F0000E016E003600908F
:105774000136EB0E0024E16E0B0E0120E26EE66AA8
:10578400E66A0201456BC16B02014451010AD8A4C7
:10579400EFD0230E0D012925E96E000E2A21EA6EB1
:1057A400EECF03F003C000F0000E016E003600904F
:1057B4000136EB0E0024E96E0B0E0120EA6EEECFEB
:1057C40001F0EECF02F002013351025C02E13251EA
:1057D400015C6BE2230E0D012925E96E000E2A21DE
:1057E400EA6EEECF03F003C000F0000E016E003647
:1057F40000900136EB0E0024046E0B0E0120056EA2
:1058040004C0E9FF05C0EAFFEECF02F0EECF03F0DB
:10581400010E0224006E000E0320016E04C0E1FF9D
:1058240005C0E2FF00C0E6FF01C0E6FF680E0224E7
:10583400F66EDD0E0320F76E000EF86E000EF822F1
:105844000900F5CF48FD29CD49FD2ACD4AFD8DEC4F
:1058540020F00050000A28E1230E2925E96E000EED
:105864002A21EA6EEECF03F003C000F0000E016EB1
:10587400003600900136EB0E0024026E0B0E012060
:10588400036E02C0E9FF03C0EAFF010EEE5C006E86
:10589400000EEE58016E02C0E1FF03C0E2FF00C03B
:1058A400E6FF01C0E6FF01D074D729CD48FD2ACD1B
:1058B40049FD6DEC20F000525BE0230E2925E96ED2
:1058C400000E2A21EA6EEECF03F003C000F0000EB2
:1058D400016E003600900136EB0E0024E96E0B0ECB
:1058E4000120EA6EEECF01F0EECF02F00201335157
:1058F400025C02E13251015C3BE329CD48FD2ACD33
:1059040049FD05EC21F0230E2925D96E000E2A212C
:10591400DA6EDECF00F0000E016E330E046E000E60
:10592400056EF8EC03F0000E00260C0E0122250E85
:105934000024E16E000E0120E26EE66A230E2925A2
:10594400E96E000E2A21EA6EEECF03F003C000F0E8
:10595400000E016E003600900136EB0E0024E16E5D
:105964000B0E0120E26EE66AE66A0201446BC16B2B
:105974000201C051010AD8A41AD1230E0D01292510
:10598400E96E000E2A21EA6EEECF03F003C000F0A8
:10599400000E016E003600900136EB0E0024E96E15
:1059A4000B0E0120EA6EEECF01F0EECF02F0000EF6
:1059B400021802E1000E01180CE1AE0E486FEA0E67
:1059C400496F000E4A6F29CD4BFD2ACD4CFD3BECAF
:1059D40021F0230E2925E96E000E2A21EA6EEECF6E
:1059E40003F003C000F0000E016E00360090013693
:1059F400EB0E0024E96E0B0E0120EA6EEECF01F0EF
:105A0400EECF02F002013551025C02E13451015C37
:105A14006BE2230E0D012925E96E000E2A21EA6EA0
:105A2400EECF03F003C000F0000E016E00360090CC
