:040000007CEF43F05E
:020006001200E6
:1000080000C016F001C015F0E1CF17F0E2CF18F0EC
:100018009EAA27D0B2EC41F000C0CFF10101D05127
:10002800000A04E1CF51AA0A01E104D0D051000A24
:1000380001E10BD0B10EE16E060EE26ED051E12661
:10004800D8B0E22ACFC1E6FFD02BCF51BB0A05E1D9
:10005800010E0201176F0101D06BD0511208D8A010
:10006800D06BF2A46FD0194A1A2A1E4A1F2A1A50B6
:100078003D0A02E1090E19185AE103018551010AE6
:100088000BE10101D12BD151B20A05E1D16B03017A
:10009800856B0201546B02D00101D16B1C2A1C50E4
:1000A800200A03E11C6A010E1D6E0101DE51010ADE
:1000B80006E1FA0E0201BE5D02E2BE2B02D0020189
:1000C800BE6B010E01010627000E07230823092332
:1000D800010E03015D27000E5E235F236023196A6A
:1000E8001A6A800E006E800E090A005C03E1FB0E9E
:1000F8000101DD5D03E20101DD2B02D00101DD6BB1
:10010800DF2BDF513C0A02E1DF6BE02BE0513C0AB8
:1001180002E1E06BE12BD451010AD8B4D52B0201DE
:100128001851010A04E1C80E195DD8A0192B1F50F7
:100138000C0A02E1350E1E1804E1010E1B6E1E6A40
:100148001F6AF29416C000F015C001F017C0E1FF55
:0601580018C0E2FF1100D7
:10015E0072C8C9FFC7B002D00000FCD7C9CF00F0EB
:02016E0012007D
:0E017000ACB202D00000FCD772C8ADFF120086
:10017E00F250026EF29E0500FF6A0150FE6E0050B4
:08018E00FD6E02BEF28E1200AC
:100196009E966CC8C9FFC8C16DF8C9C16EF8CAC1C0
:1001A6006FF8CBC170F8C7A422D00101C851C9119C
:1001B600CA11CB111BE008016D516E116F11701140
:1001C6000EE1C8C5E1FFC9C5E2FF040EE66EC6C56D
:1001D60000F0C7C501F0D0DF010E006E3BD0010E66
:1001E60008016D5F000E6E5B6F5B705BDCD7C8C18C
:1001F6006DF8C9C16EF8CAC16FF8CBC170F89EB66A
:1002060022D00101C851C911CA11CB111BE0080146
:100216006D516E116F1170110EE1C8C5E1FFC9C5B0
:10022600E2FF040EE66EC6C500F0C7C501F0A4DF06
:10023600010E006E0FD0010E08016D5F000E6E5BA1
:100246006F5B705BDCD7C5BC02D0006A03D0C58487
:06025600020E006E120012
:10025C006CC8C9FFC7B002D00000FCD7C9CF00F0F2
:02026C0012007E
:10026E00C8C16EF8C9C16FF8CAC170F8CBC171F8B8
:10027E009E96C5869EB620D00101C851C911CA11DD
:10028E00CB1119E008016E516F11701171110CE153
:10029E00C8C5E1FFC9C5E2FF030EE66EC6C500F094
:1002AE00C7C501F065DF08D0010E08016E5F000EB4
:1002BE006F5B705B715BDED70801C9CF6DF86C5157
:1002CE00000A02E1C58A01D0C59A9E96C588C8C1AA
:1002DE006EF8C9C16FF8CAC170F8CBC171F89EB67D
:1002EE0020D00101C851C911CA11CB1119E0080162
:1002FE006E516F11701171110CE1C8C5E1FFC9C5C6
:10030E00E2FF030EE66EC6C500F0C7C501F030DF92
:10031E0008D0010E08016E5F000E6F5B705B715BA3
:08032E00DED76DC800F01200DB
:100336000B1E0A1E091E081E082AD8B4092AD8B49C
:080346000A2AD8B40B2A1200A8
:10034E000450085E0550D8A0053C095E0650D8A0A2
:10035E00063C0A5E0750D8A0073C0B5E0336070E1C
:10036E000C6E0334083609360A360B36045003A0D9
:10037E000ED0085E0550D8A0053C095E0650D8A0E8
:10038E00063C0A5E0750D8A0073C0B5E0DD008262F
:10039E000550D8B0053C09260650D8B0063C0A26B2
:1003AE000750D8B0073C0B2603360C2EDAD7023492
:1003BE00083609360A360B36045003A00ED0085EF6
:1003CE000550D8A0053C095E0650D8A0063C0A5E32
:1003DE000750D8A0073C0B5E0DD008260550D8B0AC
:1003EE00053C09260650D8B0063C0A260750D8B060
:1003FE00073C0B260236070E0C6E02340836093601
:10040E000A360B36045002A00ED0085E0550D8A056
:10041E00053C095E0650D8A0063C0A5E0750D8A0DF
:10042E00073C0B5E0DD008260550D8B0053C0926BA
:10043E000650D8B0063C0A260750D8B0073C0B260B
:10044E0002360C2EDAD70134083609360A360B3648
:10045E00045002A00ED0085E0550D8A0053C095EDF
:10046E000650D8A0063C0A5E0750D8A0073C0B5E8B
:10047E000DD008260550D8B0053C09260650D8B038
:10048E00063C0A260750D8B0073C0B260136070E4D
:10049E000C6E0134083609360A360B36045001A0AC
:1004AE000ED0085E0550D8A0053C095E0650D8A0B7
:1004BE00063C0A5E0750D8A0073C0B5E0DD00826FE
:1004CE000550D8B0053C09260650D8B0063C0A2681
:1004DE000750D8B0073C0B2601360C2EDAD7003465
:1004EE00083609360A360B36045001A00ED0085EC7
:1004FE000550D8A0053C095E0650D8A0063C0A5E01
:10050E000750D8A0073C0B5E0DD008260550D8B07A
:10051E00053C09260650D8B0063C0A260750D8B02E
:10052E00073C0B260036070E0C6E003408360936D3
:10053E000A360B36045000A00ED0085E0550D8A027
:10054E00053C095E0650D8A0063C0A5E0750D8A0AE
:10055E00073C0B5E0DD008260550D8B0053C092689
:10056E000650D8B0063C0A260750D8B0073C0B26DA
:10057E0000360C2EDAD700B00ED0045008260550E7
:10058E00D8B0053C09260650D8B0063C0A260750BE
:08059E00D8B0073C0B26120047
:1005A6008098400E08016911006EC7C6E1FFC8C6F3
:1005B600E2FF00C0E6FFC5C600F0C6C601F0DCDDFE
:1005C600C7C6E1FFC8C6E2FF6AC8E6FFC5C600F0B7
:1005D600C6C601F0D1DDC7C6E1FFC8C6E2FF6BC8DB
:1005E600E6FFC5C600F0C6C601F0C6DD808812006B
:1005F600086A080E0C6E003408360450085ED8B03F
:0E06060002D00826D89000360C2EF5D7120030
:100614008098A00E08016611006EC7C6E1FFC8C627
:10062400E2FF00C0E6FFC5C600F0C6C601F0A5DDC6
:10063400C7C6E1FFC8C6E2FF67C8E6FFC5C600F04B
:0A064400C6C601F09ADD808812009E
:10064E00086A096A100E0C6E013408360936045019
:10065E00085E0550D8A0053C095ED8B007D00450FE
:10066E0008260550D8B0053C0926D890003601362C
:06067E000C2EEAD7120069
:100684000450000A12E10550000A0FE10650000A66
:100694000CE10750000A09E1FF0E006EFF0E016E27
:1006A400FF0E026E7F0E036E97D00C6A07BE0C2AF3
:1006B4000D6A0B6A0A6A096A086A0350021001107B
:1006C4000010D8B484D0035007180E6E0EBE0D1E51
:1006D40007AE0BD0041E051E061E071E042AD8B43E
:1006E400052AD8B4062AD8B4072A03AE0BD0001EB4
:1006F400011E021E031E002AD8B4012AD8B4022AFD
:10070400D8B4032A035007100E6E0EBE1CD01DDE93
:100714000CBE36D00DAE5BD0001E011E021E031EA1
:10072400002AD8B4012AD8B4022AD8B4032A081E4D
:10073400091E0A1E0B1E082AD8B4092AD8B40A2A8C
:10074400D8B40B2A44D007AE15D003BE0DD0035045
:100754000B6E02500A6E0150096E0050086E036A57
:10076400026A016A006AD6D7036A026A016A006AE9
:10077400002A000C031E021E011E001E0C8EC7D789
:10078400082AD8B4092AD8B40A2AD8B40B2A04509F
:10079400085CD8A4BFD70550095CD8A4BBD70650C1
:1007A4000A5CD8A4B7D707500B5CD8A4B3D70B6A9C
:1007B4000A6A096A086A002AD8B4012AD8B4022A43
:1007C400D8B4032A03AEA6D70E6A0E88FF0C0E6AAD
:0A07D4000CA001D0AEDD000F1200F2
:1007DE00220E0C6E086A096A0A6A0B6A0C06D8B4F5
:1007EE001FD0D8900B320A3209320832033202324D
:1007FE0001320032D8A0F2D70C06D8B409D004507A
:10080E0008260550092206500A2207500B22EAD765
:10081E00045008260550092206500A2207500B22C2
:02082E001200B6
:100830008098C7C6E1FFC8C6E2FF66C8E6FFC5C626
:1008400000F0C6C601F09BDCC7C6E1FFC8C6E2FFE8
:10085000E66AC5C600F0C6C601F091DC80881200C9
:100860008098800E08016611006EC7C6E1FFC8C6F9
:10087000E2FF00C0E6FFC5C600F0C6C601F07FDC9F
:10088000C7C6E1FFC8C6E2FF67C8E6FFC5C600F0FD
:0A089000C6C601F074DC8088120077
:10089A00020E0801696F66C86AF867C86BF87EDEDF
:1008AA008098C7C6E1FFC8C6E2FF7A0EE66EC5C6E3
:1008BA0000F0C6C601F05EDCC7C6E1FFC8C6E2FFAB
:1008CA0068C8E6FFC5C600F0C6C601F053DC8088DA
:0208DA0012000A
:1008DC000801696B66C86AF867C86BF85EDE8098B9
:1008EC00C7C6E1FFC8C6E2FF3A0EE66EC5C600F009
:1008FC00C6C601F03EDCC7C6E1FFC8C6E2FFE66A29
:0E090C00C5C600F0C6C601F034DC80881200BB
:10091A008098C7C6E1FFC8C6E2FF7A0EE66EC5C672
:10092A0000F0C6C601F026DCC7C6E1FFC8C6E2FF72
:10093A0066C8E6FFC5C600F0C6C601F01BDC8088A3
:02094A00120099
:10094C0058C804F059C805F004C0E9FF05C0EAFF17
:10095C00EE5203E0044A052AF7D704C002F005C0A2
:10096C0003F0044A052A5AC800F05BC801F00801DC
:10097C005A4B5B2B00C0E9FF01C0EAFF02C0E1FF4C
:10098C0003C0E2FFEECFE6FF02C0E9FF03C0EAFFBF
:10099C00EE5201E0E2D758C800F059C801F012003D
:1009AC0058C804F059C805F004C002F005C003F0A3
:1009BC00044A052A5AC800F05BC801F008015A4BDA
:1009CC005B2B00C0E9FF01C0EAFF02C0E1FF03C0DE
:1009DC00E2FFEECFE6FF02C0E9FF03C0EAFFEE52F2
:0E09EC0001E0E2D758C800F059C801F012002F
:1009FA0008015A5158255C6F5B5159215D6F010EF0
:100A0A005C5F000E5D5B100E696F58C86AF859C8C2
:100A1A006BF8C4DD120E0801696F5CC86AF85DC81C
:100A2A006BF8BCDD1F0E0801666F300E676F13DFAF
:100A3A001F0E0801666FF7DE00AA01D0F9D712006F
:100A4A0008015B6B030E5B5D0AE25B515925E16E9F
:100A5A00000E5A21E26E200EE66E5B2BF3D75B5135
:100A6A005925E16E000E5A21E26EE66A5B075B5178
:100A7A0059255C6F000E5A215D6F0A0E046E58C824
:100A8A0000F0B4DD08C000F0300E00265CC8E1FFBB
:100A9A005DC8E2FF00C0E6FF0A0E046E58C800F007
:100AAA00A5DD00C058F80050000A01E102D05B073A
:040ABA00DED7120071
:100ABE0058C866F859C867F85AC868F8E7DE5BC8C0
:060ACE0066F824DF1200AF
:100AD4000134083609360450085E0550D8A0053C98
:100AE400095E003601360F0E0C6E013408360936E5
:100AF400045000A006D0085E0550D8A0053C095E4D
:100B040005D008260550D8B0053C09260036013624
:100B14000C2EEBD700B006D0045008260550D8B0F0
:080B2400053C09260000120047
:100B2C005AC804F05BC805F058C802F059C803F065
:100B3C005CC800F05DC801F0010E08015C5F000E9E
:100B4C005D5B005001100FE004C0E9FF05C0EAFF37
:100B5C0002C0E1FF03C0E2FFEECFE6FF024A032A28
:100B6C00044A052AE5D758C800F059C801F012000C
:100B7C000801656B010E5A5F000E5B5B5E530DE066
:100B8C005B51190802E15A51AD0807E2652BAD0E15
:100B9C005A5D636F190E5B59646F655305E0AD0EBA
:100BAC005F6F190E606F04D05AC85FF85BC860F8AD
:100BBC005951601902E15F5158190DE158C866F896
:100BCC0059C867F885DE00C068F85CC866F85DC86F
:100BDC0067F85DDE36D0100E0801696F58C86AF8E8
:100BEC0059C86BF8DADC120E0801696F655305E021
:100BFC00AD0E616F190E626F04D05AC861F85BC8F4
:100C0C0062F861C86AF862C86BF8C7DC140E080198
:100C1C00696F5CC86AF85DC86BF8BFDC1F0E080111
:100C2C00666F100E676FF0DC1F0E0801666F200EEA
:100C3C00676F10DE1F0E0801666FF4DD00AA01D08D
:100C4C00F9D7080165531AE058515A5D006E595195
:100C5C005B59016E6351005E6451015A004A012ACE
:100C6C0000505C2701505D23010E635D5A6F000E2E
:0E0C7C0064595B6F586B596B656B8FD7120014
:100C8A00AE0E0801666F190E676F686B01DEAE0E55
:100C9A0008015825006E190E5921016E00C058F836
:100CAA0001C059F8060E696F00C06AF801C06BF8F6
:100CBA0075DC1F0E0801666F800E676FCCDD1F0E94
:100CCA000801666F800E676FA0DC06019951050A5C
:100CDA0004E09951070A01E006D01C0E0801666F6C
:100CEA000A0E676F92DC1F0E0801666F080E676FA7
:100CFA00B2DD06019951050A04E09951070A01E09B
:100D0A0080D008015D6B5E6B1C0E666F8CDD0A0E6F
:100D1A00001600520AE108015D4B5E2B030E5E5D70
:100D2A0002E1E80E5D5D01E2EFD708011C0E666F75
:100D3A007ADD00B208D0030E08015E5D02E1E80E1A
:100D4A005D5D01E25DD008011F0E666F080E676FD8
:100D5A005CDC040E08015825666F000E5921676F86
:100D6A00B8DD00C05CF808015A6B100E5A5D48E203
:100D7A001C0E666F58DD00A23FD008015CAB3CD068
:100D8A001F0E666F800E676F66DD1F0E0801666FA5
:100D9A00800E676F3ADC1C0E0801666F0A0E676FD9
:100DAA0034DC1F0E0801666F080E676F54DD0801F8
:100DBA005D6B5E6B1C0E666F36DD0A0E0016005206
:100DCA000AE108015D4B5E2B030E5E5D02E1E80E4F
:100DDA005D5D01E2EFD708011F0E666F080E676FAF
:100DEA0014DC040E08015825666F000E5921676F3E
:100DFA0070DD00C05CF801D003D008015A2BB5D7CA
:100E0A0007D008011F0E666F0EDD00A601D0F9D7C4
:100E1A001D0E0801666F07DD060E0016005203E07C
:100E2A0008015B6B03D00801010E5B6F5BC800F021
:020E3A001200A4
:100E3C00000E006E08015B1908E100505A1905E11B
:100E4C000050591902E15851000A0EE15CC8E1FF4B
:100E5C005DC8E2FF300EE66E010E5C25E16E000E01
:100E6C005D21E26EE66AC2D0800E5B19006E800EC8
:100E7C00005C08E1000E5A5D05E1000E595D02E1CF
:100E8C00000E585D1AE258C800F059C801F05AC853
:100E9C0002F05BC803F0FF0E046EFF0E056E066ECB
:100EAC00076E97DC00C058F801C059F802C05AF818
:100EBC0003C05BF8010E606F01D0606B5CC8E1FF92
:100ECC005DC8E2FFE66A5E6B0801800E006E800E64
:100EDC005B19005C08E15A51000805E15951000802
:100EEC0002E1585100085EE25E51010F5F6F5F51E5
:100EFC00000815E25F515C25E16E000E5D21E26E8B
:100F0C005F05006E016A000E015A00505C25E96E07
:100F1C0001505D21EA6EEECFE6FF5F07E8D70A0EBF
:100F2C00046E000E056E066E076E58C800F059C8A8
:100F3C0001F05AC802F05BC803F042EC03F008C0A1
:100F4C0000F009C001F00AC002F00BC003F05CC84D
:100F5C00E1FF5DC8E2FF00C0E6FF5CC8E9FF5DC8C9
:100F6C00EAFF5CC8E1FF5DC8E2FF300EEE26080127
:100F7C005E2B0A0E046E000E056E066E076E58C8C8
:100F8C0000F059C801F05AC802F05BC803F042ECFB
:100F9C0003F000C058F801C059F802C05AF803C059
:100FAC005BF892D70801605321E05E51010F5F6F2F
:100FBC005F51000815E25F515C25E16E000E5D216A
:100FCC00E26E5F05006E016A000E015A00505C254E
:100FDC00E96E01505D21EA6EEECFE6FF5F07E8D7C0
:0E0FEC005CC8E1FF5DC8E2FF2D0EE66E12004C
:100FFA008098C7C6E1FFC8C6E2FF7A0EE66EC5C68C
:10100A0000F0C6C601F0BFEC00F05AC800F05BC899
:10101A0001F0010E08015A5F000E5B5B00500110DF
:10102A0014E0C7C6E1FFC8C6E2FF58C8E9FF59C8BD
:10103A00EAFFEECFE6FFC5C600F0C6C601F0BFEC78
:0E104A0000F00801584B592BE0D780881200A7
:10105800020E0801696F58C86AF859C86BF8D3ECD2
:1010680002F08098C7C6E1FFC8C6E2FF7A0EE66EB6
:10107800C5C600F0C6C601F0BFEC00F008015C511F
:101088005D1118E0C7C6E1FFC8C6E2FF5AC8E9FF0C
:101098005BC8EAFFEECFE6FFC5C600F0C6C601F0A2
:1010A800BFEC00F008015A4B5B2B010E5C5F000E91
:0810B8005D5BE4D780881200A3
:1010C00058C802F059C803F002C000F003C001F094
:1010D000024A032A00C0E9FF01C0EAFFEE5201E024
:1010E000F3D708015851025C006E59510358016E44
:0A10F000010E005E000E015A12000E
:1010FA0008015C6B050E5C5D0AE25C515A25E16EE3
:10110A00000E5B21E26E200EE66E5C2BF3D75C517B
:10111A005A25E16E000E5B21E26EE66A5C075C51BD
:10112A005A255D6F000E5B215E6F0A0E046E000E7B
:10113A00056E58C800F059C801F027EC03F008C042
:10114A0000F009C001F0300E00265DC8E1FF5EC85C
:10115A00E2FF00C0E6FF0A0E046E000E056E58C8D4
:10116A0000F059C801F027EC03F000C058F801C09C
:10117A0059F8000E011802E1000E001801E102D030
:06118A005C07CDD7120046
:101190008098C7C6E1FFC8C6E2FF7A0EE66EC5C6F4
:1011A00000F0C6C601F0BFEC00F0C7C6E1FFC8C63C
:1011B000E2FF59C8E6FFC5C600F0C6C601F0BFECA5
:1011C00000F0C7C6E1FFC8C6E2FF58C8E6FFC5C6C3
:0E11D00000F0C6C601F0BFEC00F080881200EF
:1011DE000B6A0A6A096A00500402F4CF09F0F3CFD1
:1011EE0008F001500502F4CF0BF0F3CF0AF00050D7
:1011FE000502F3500926F4500A22E86A0B22015028
:10120E000402F3500926F4500A22E86A0B2208C0A1
:10121E0000F009C001F00AC002F00BC003F012008A
:10122E0008014851FF0A02E1FF0E471907E0696BFA
:10123E0047C86AF848C86BF8D3EC02F08098C7C666
:10124E00E1FFC8C6E2FF3A0EE66EC5C600F0C6C69E
:10125E0001F0BFEC00F049C800F04AC801F0010EE1
:10126E000801495F000E4A5B0050011015E0C7C629
:10127E00E1FFC8C6E2FFE66AC5C600F0C6C601F0C9
:10128E00BFEC00F045C8E1FF46C8E2FF00C0E6FF34
:0C129E000801454B462BDFD7808812006A
:1012AA008098C7C6E1FFC8C6E2FF7A0EE66EC5C6D9
:1012BA0000F0C6C601F0BFEC00F048C800F049C80B
:1012CA0001F0010E0801485F000E495B0050011051
:1012DA001CE0C7C6E1FFC8C6E2FF45C8F6FF46C81C
:1012EA00F7FF47C8F8FF0900F5CF00F000C0E6FF96
:1012FA00C5C600F0C6C601F0BFEC00F0010E080139
:0E130A004527000E46234723D8D780881200BF
:1013180045C858F846C859F8CE0E08015A6F050E48
:101328005B6F040E5C6F000E5D6F96EC05F0476B0B
:101338004751030821E347514525026E000E462117
:10134800036E02C0E9FF03C0EAFFEECF01F0D20E40
:10135800E96E050EEA6E4751E926D8B0EA2AFF0E73
:10136800EE18006E0150001202C0E1FF03C0E2FF58
:0A13780000C0E6FF472BDCD712008F
:1013820049C801F04AC802F0010E0801495F000E87
:101392004A5B000E021802E1000E01181FE045C868
:1013A200E9FF46C8EAFF47C8D9FF48C8DAFFEE504E
:1013B200DE180FE045C8E9FF46C8EAFF47C8D9FF73
:1013C20048C8DAFFDE50EE5C006E016A000E015A78
:1013D20007D0454B462B474B482BD2D7006A016AB0
:0213E2001200F7
:1013E400AF0E0801586F190E596F45C85AF846C810
:1013F4005BF8060E5C6F000E5D6F2CDE930E586F6B
:10140400060E596F060E5A6F000E5B6FF4DD000E68
:10141400586F080E596FBADE1C0E08014D25506F27
:10142400000E4E21516F000E586F450E596FAEDEFF
:1014340050C858F851C859F8A9DE1CC658F81DC63A
:1014440059F8A4DE06011C4B1D2B0801586B596B7F
:101454009DDE110E0801586F800E596F97DE08014A
:10146400586B596B93DECE0E0801586F050E596FF9
:10147400040E5A6F000E5B6FBEDD47C858F848C8AB
:1014840059F8040E5A6F000E5B6FB5DD080E4D253A
:10149400506F000E4E21516F49C858F84AC859F888
:1014A40075DE4BC858F84CC859F870DE50C858F867
:1014B40051C859F86BDE0801586B596B67DEBD0ED5
:1014C4000801586F190E596F140E5A6F000E5B6F96
:1014D400FDEC04F0160E0801666F18EC04F000C071
:1014E40052F8170E0801666F18EC04F000C05AF8A1
:1014F400C70E0801586F190E596F52C85BF85FEC9C
:1015040005F0010E080150154F6FD90E4D25666F79
:10151400190E4E21676F686B4DEC04F0C90E08017B
:10152400586F190E596FD10E5A6F190E5B6FD90E81
:101534004D255C6F190E4E215D6F4F515C27000ED7
:101544005D235E6BBEEC05F0D90E4D25586F190E68
:101554004E21596F4F515827000E5923080E582712
:10156400000E59235A6B110E5B6F5FEC05F051C8E6
:1015740066F88DEC04F050C866F88DEC04F0D10EDA
:101584000801586F190E596F0C0E50255A6F000E32
:1015940051215B6F4F515A27000E5B23FDEC04F081
:1015A400160E0801666F18EC04F000C052F8170E0E
:1015B4000801666F18EC04F000C05AF8D70E080151
:1015C400586F190E596F52C85BF85FEC05F02A0E7C
:1015D40008014D25586F000E4E21596F45EC06F059
:0215E4001200F3
:1015E6000F0E08014515016E01C045F80A0E015C93
:1015F60004E3370E4525006E03D0300E4525006EF8
:021606001200D0
:101608000801496B4A6B8098C7C6E1FFC8C6E2FF6C
:101618007A0EE66EC5C600F0C6C601F0BFEC00F053
:1016280045C800F046C801F047C802F0010E08019D
:101638004527000E4623472300C0F6FF01C0F7FFE9
:1016480002C0F8FF0900F5CF00F000C048F80052CA
:1016580010E0C7C6E1FFC8C6E2FF48C8E6FFC5C636
:1016680000F0C6C601F0BFEC00F00801494B4A2B58
:0E167800D7D7808849C800F04AC801F0120098
:101686008098C7C6E1FFC8C6E2FF3A0EE66EC5C639
:1016960000F0C6C601F0BFEC00F0C7C6E1FFC8C641
:1016A600E2FFE66AC5C600F0C6C601F0BFEC00F070
:0416B6008088120016
:1016BA0008014551390806E3300E455D03E3010E82
:0816CA00006E01D0006A12005D
:1016D200036A046A080E045C22E203C001F045C8F2
:1016E20000F0015004E000360090FF0FFBD7800E9F
:1016F2000014016E01C002F00150800AD8B4808249
:101702000250000AD8B480920000000000008094C9
:101712000000000000008084032A042ADBD71200A4
:1017220045C8E1FF46C8E2FFE66A0801496B040EBC
:10173200495D2FE249514725E96E000E4821EA6EC4
:10174200EECF58F8000E596F5A6F5B6F000E596F4B
:101752005A6F5B6F4A0E5C6F080E5D6F1EEC07F0EE
:1017620045C858F846C859F84A0E5A6F080E5B6FBA
:10177200A6EC04F04951030A0AE045C858F846C8E5
:1017820059F8780E5A6F000E5B6FA6EC04F0492BE5
:04179200CED712009C
:1017960076C0E9FF77C0EAFFEE50000A08E0000EC7
:1017A6000001771902E1000E761901E005D000016B
:1017B600F20E766F040E776F76C058F877C059F838
:1017C6007CDC00C046F8100E005C23E2470E586F22
:1017D600080E596F76C05AF877C05BF846C85CF8B1
:1017E600000E5D6F96EC05F0470E586F080E596FA8
:1017F60046515827D8B0592BF20E5A6F040E5B6F1C
:10180600465110085C6F5D6B000E5D5B96EC05F053
:101816000ED0470E586F080E596F76C05AF877C02B
:101826005BF8100E5C6F000E5D6F96EC05F0576B63
:0218360012009E
:1018380045C802F046C803F048C800F049C801F09E
:10184800010E0801485F000E495B0050011009E0D5
:1018580002C0E1FF03C0E2FF47C8E6FF024A032ACD
:0C186800EBD745C800F046C801F01200A4
:10187400080149A118D145C858F846C859F8040EBA
:101884004725E96E000E4821EA6EEECF03F003C04F
:1018940000F0000E016E003600900136130E002495
:1018A400E96E010E0120EA6EEECF5AF8EECF5BF836
:1018B400D6EC04F0040E4725E96E000E4821EA6ECA
:1018C400EECFBAF545C858F846C859F8B50E5A6F60
:1018D400010E5B6FA6EC04F0030E4725E96E000EC3
:1018E4004821EA6EEECF58F84A0E596F080E5A6F27
:1018F40025EC05F0030E4725E96E000E4821EA6E3B
:10190400EECFD1F645C858F846C859F84B0E5A6F71
:10191400080E5B6FA6EC04F045C858F846C859F8A1
:10192400990E5A6F010E5B6FA6EC04F045C858F887
:1019340046C859F8050E4725E96E000E4821EA6E9F
:10194400EECF03F003C000F0000E016E00360090ED
:1019540001369B0E0024E96E010E0120EA6EEECFE3
:101964005AF8EECF5BF8A6EC04F0050E4725E96EB5
:10197400000E4821EA6EEECFD2F645C858F846C8A4
:1019840059F8B70E5A6F010E5B6FA6EC04F0060E01
:101994004725E96E000E4821EA6EEECF58F8EECFE7
:1019A40059F84A0E5A6F080E5B6F7DEC08F0060E6C
:1019B4004725E96E000E4821EA6EEECF54F8EECFCB
:1019C40055F854C8BDF555C8BEF5E80E046E030EAF
:1019D400056E54C800F055C801F027EC03F000C0B0
:1019E400BFF5000E016EE80E046E030E056EEFECFB
:1019F40008F000C052F801C053F85251545D006E13
:101A040053515559016E640E046E000E056E27EC99
:101A140003F000C0BBF552C802F0000E036E025082
:101A2400545D026E03505559036E640E0002F3CFE9
:101A340050F8F4CF51F85051025C006E51510358E4
:101A4400016E0A0E046E000E056E27EC03F000C052
:101A5400BCF55251545D026E5051025E0A0E0002F2
:101A6400F3CF01F00150025C006E00C0F1F401C03C
:101A7400CBF6005001240601CB6F45C858F846C880
:101A840059F84B0E08015A6F080E5B6FA6EC04F070
:101A940045C858F846C859F8250E5A6F010E5B6FB1
:101AA400A6EC04F005D045C8E1FF46C8E2FFE66AAB
:101AB40049A37AD0020E4725E96E000E4821EA6E4A
:101AC400EECF58F84A0E596F080E5A6F25EC05F000
:101AD400020E4725E96E000E4821EA6EEECFD0F6DD
:101AE40045C858F846C859F84B0E5A6F080E5B6F34
:101AF400A6EC04F045C858F846C859F8210E5A6FA8
:101B0400010E5B6FA6EC04F0010E4725E96E000E92
:101B14004821EA6EEECF58F84A0E596F080E5A6FF4
:101B240025EC05F0010E4725E96E000E4821EA6E0A
:101B3400EECFDAF64B51200A02E1300E4B6F45C866
:101B440058F846C859F84B0E5A6F080E5B6FA6EC4E
:101B540004F045C858F846C859F8230E5A6F010EC8
:101B64005B6FA6EC04F047C8E9FF48C8EAFFEECF74
:101B740058F84A0E596F080E5A6F25EC05F047C8FD
:101B8400E9FF48C8EAFFEECFD6F64B51200A02E13E
:101B9400300E4B6F45C858F846C859F84B0E5A6F6B
:101BA400080E5B6FA6EC04F049A535D045C858F87B
:101BB40046C859F8270E5A6F010E5B6FA6EC04F065
:101BC400800E000A006E800E0201C119005C0BE257
:101BD40045C858F846C859F8970E08015A6F010EBF
:101BE4005B6FA6EC04F045C858F846C859F860EC99
:101BF40008F0005045255C6F015046215D6FC1C25D
:101C040058F8000E0201C1BFFF0E0801596F5A6F48
:081C14005B6F1EEC07F01200EB
:101C1C000450000A08E10550000A05E1FF0E006EB1
:101C2C007F0E016E58D00D6A096A086A01500010C7
:101C3C00D8B4000C015005180A6E0ABE0D1E0B6AB2
:101C4C0005AE05D0041E051E042AD8B4052A01AE23
:101C5C0005D0001E011E002AD8B4012A015005101F
:101C6C000A6E0ABE10D06AEC05F00BB020D00DAE97
:101C7C00000C001E011E002AD8B4012A081E091EE1
:101C8C00082AD8B4092A000C05AE0DD001BE07D025
:101C9C000150096E0050086E016A006AE8D7016AAB
:101CAC00006A002A000C011E001E0B2ADDD7082A30
:101CBC00D8B4092A0450085CD8A4D9D70550095CBB
:101CCC00D8A4D5D7096A086A002AD8B4012A01AE6B
:081CDC00CED70000FF0C12003E
:101CE40008014551000A03E17E0E4611016E45517B
:101CF400010A03E1180E4611016E4551020A03E17F
:101D0400B60E4611016E4551030A03E1BC0E46119D
:101D1400016E4551040A03E1D80E4611016E455186
:101D2400050A03E1EC0E4611016E4551060A03E172
:101D3400EE0E4611016E4551070A03E1380E4611B5
:101D4400016E4551080A03E1FE0E4611016E45512C
:101D5400090A03E1FC0E4611016E45510A0A03E12A
:101D6400F20E4611016E45510B0A03E1720E461143
:101D7400016E45510C0A03E1780E4611016E45517E
:101D84000D0A03E1E60E4611016E45510E0A03E108
:101D9400040E4611016E45510F0AD8B4016A45512B
:101DA400100A02E1010E016E4551110A02E1800E92
:081DB400016E01C000F01200F5
:101DBC001FC8E9FF20C8EAFFEE5211E01FC8E9FF77
:101DCC0020C8EAFF21C8D9FF22C8DAFFEE50DE187E
:101DDC0006E108011F4B202B214B222BE9D71FC8F2
:101DEC00E9FF20C8EAFF21C8D9FF22C8DAFFDE507C
:0C1DFC00EE5C006E016A000E015A12003D
:101E08001FC8E9FF20C8EAFFEECF21F8000E08013D
:101E1800226F000E226F000E221902E1200E2119F6
:101E280007E0000E221902E1090E211901E003D092
:101E38001F4B202BE5D7236B246B256B266B000EDD
:101E4800221902E12D0E211905E1254B262B1F4BE6
:101E5800202B08D0000E221902E12B0E211902E1D5
:101E68001F4B202B1FC8E9FF20C8EAFFEECF21F83F
:101E7800000E226F000E226F21C845F81ADC0052AE
:101E880019E023C800F024C801F00A0E046E000E01
:101E9800056EEFEC08F0300E215D026E000E22593F
:101EA800036E02500024236F03500120246F1F4B40
:101EB800202BD8D72551261108E023510008006EA1
:101EC80024C801F0000E015604D023C800F024C82D
:041ED80001F0120003
:081EDC00020E0301986F1200D1
:101EE40021C845F808014533459F4533459F45338F
:101EF400459F4533459FF3EC0AF01FC8E1FF20C816
:101F0400E2FF00C0E6FF1F4B202B21C845F8F3EC8D
:101F14000AF01FC8E1FF20C8E2FF00C0E6FF1F4B24
:101F2400202B1FC8E1FF20C8E2FF2E0EE66E120030
:101F34001FC825F820C826F821C827F822C828F881
:101F4400800E046E510E056E010E066E000E076EB5
:101F54001FC800F020C801F021C802F022C803F015
:101F640042EC03F000C025F801C026F802C027F8AF
:101F740003C028F80101D65100240801256F01018E
:101F8400D75101200801266F0101D8510220080110
:101F9400276F0101D95103200801286F800E2219EF
:101FA400006E800E005C08E1000E215D05E1000E6C
:101FB400205D02E1000E1F5D06E2010E255F000EAA
:101FC400265B275B285B040E2325356F000E242136
:101FD400366F070E046E000E056E066E076E25C87A
:101FE40000F026C801F027C802F028C803F042EC2C
:101FF40003F008C000F009C001F00AC002F00BC0F1
:1020040003F035C8E1FF36C8E2FF00C0E6FFD90E91
:1020140008012525356F0B0E2621366F010E272169
:10202400376F000E2821386F35C831F836C832F8BA
:1020340037C833F838C834F835C800F036C801F06A
:1020440037C802F038C803F0003600900136023673
:10205400033600360090013602360336B10E046EA4
:102064003A0E056E020E066E000E076E42EC03F089
:1020740000C041F801C042F802C043F803C044F86C
:10208400B10E006E3A0E016E020E026E000E036E69
:1020940041C804F042C805F043C806F044C807F03C
:1020A400EFEC03F0030E0026000E012202220322AD
:1020B400040E046E000E056E066E076E42EC03F00D
:1020C40035C839F836C83AF837C83BF838C83CF848
:1020D40000500801395F01503A5B02503B5B0350EA
:1020E4003C5B39C831F83AC832F83BC833F83CC8CD
:1020F40034F8010E3925006E000E3A21016E000EEF
:102104003B21026E000E3C21036EA00E046E0F0EE6
:10211400056E000E066E076EEFEC03F0090E046EFA
:102124004B0E056E160E066E000E076E42EC03F0A3
:1021340000C03DF801C03EF802C03FF803C040F8BB
:10214400B50E006E050E016E000E026E036E3DC8E4
:1021540004F03EC805F03FC806F040C807F0EFECB5
:1021640003F0040E046E000E056E066E076E42EC5C
:1021740003F01F0E005E000E015A025A035A39C8BA
:1021840035F83AC836F83BC837F83CC838F8005038
:102194000801355F0150365B0250375B0350385BF2
:1021A40035C831F836C832F837C833F838C834F887
:1021B400500E006E000E016E026E036E35C804F000
:1021C40036C805F037C806F038C807F0EFEC03F05E
:1021D40000C029F801C02AF802C02BF803C02CF86B
:1021E4008F0E046E090E056E000E066E076E42EC2D
:1021F40003F000C039F801C03AF802C03BF803C04C
:102204003CF839C829F83AC82AF83BC82BF83CC826
:102214002CF88F0E006E090E016E000E026E036E16
:1022240039C804F03AC805F03BC806F03CC807F0CA
:10223400EFEC03F0500E046E000E056E066E076E92
:1022440042EC03F035C82DF836C82EF837C82FF8FD
:1022540038C830F8005008012D5F01502E5B025041
:102264002F5B0350305B0B0E046E000E056E066E82
:10227400076E39C800F03AC801F03BC802F03CC808
:1022840003F042EC03F000C035F801C036F802C098
:1022940037F803C038F835C831F836C832F837C8CB
:1022A40033F838C834F8020E08013925296F000EB6
:1022B4003A212A6F000E3B212B6F000E3C212C6F1C
:1022C4000C0E006E000E016E026E036E35C804F033
:1022D40036C805F037C806F038C807F0EFEC03F04D
:1022E4000050295F01502A5B02502B5B03502C5B8A
:1022F40041C800F042C801F043C802F044C803F0EA
:10230400310E005E000E015A025A035A640E046E26
:10231400000E056E066E076EEFEC03F03D510026CD
:102324003E5101223F5102224051032235510026E1
:10233400365101223751022238510322060E232539
:10234400E16E000E2421E26E00C0E6FF01C0E6FF4C
:10235400050E2325E16E000E2421E26E29C8E6FF56
:10236400030E2325E16E000E2421E26E2DC8E6FF44
:10237400800E2219006E800E005C08E1000E215DC3
:1023840005E1000E205D02E1000E1F5D43E21FC85F
:1023940000F020C801F021C802F022C803F0FF0EAB
:1023A400046EFF0E056E066E076EEFEC03F000C0C0
:1023B4001FF801C020F802C021F803C022F8800EE3
:1023C400046E510E056E010E066E000E076E42EC91
:1023D40003F008C000F009C001F00AC002F00BC00D
:1023E40003F000C01FF801C020F802C021F803C0A8
:1023F40022F8800E08011F6F510E206F010E216F0D
:10240400000E226F00501F5F0150205B0250215BC1
:102414000350225B800E046E510E056E010E066E93
:10242400000E076E1FC800F020C801F021C802F09A
:1024340022C803F042EC03F008C000F009C001F028
:102444000AC002F00BC003F000C031F801C032F83A
:1024540002C033F803C034F8100E046E0E0E056E7D
:10246400000E066E000E076E42EC03F000C02DF85D
:1024740001C02EF802C02FF803C030F8020E080184
:102484002325E16E000E2421E26E00C0E6FF31C870
:102494002DF832C82EF833C82FF834C830F8020E9D
:1024A4002325E96E000E2421EA6EEECF00F0000E23
:1024B400016E026E036E100E046E0E0E056E000E9B
:1024C400066E000E076EEFEC03F031C804F032C85C
:1024D40005F033C806F034C807F00050045E01501C
:1024E400055A0250065A0350075A04C02DF805C075
:1024F4002EF806C02FF807C030F804C000F005C05D
:1025040001F006C002F007C003F03C0E046E000E9A
:10251400056E000E066E000E076E42EC03F000C05E
:102524002DF801C02EF802C02FF803C030F8010EB8
:1025340008012325E16E000E2421E26E00C0E6FFAF
:102544003C0E046E000E056E000E066E000E076E45
:1025540031C800F032C801F033C802F034C803F0C7
:1025640042EC03F008C000F009C001F00AC002F018
:102574000BC003F000C02DF801C02EF802C02FF8E4
:1025840003C030F823C8E1FF24C8E2FF00C0E6FF1F
:02259400120033
:10259600640E046E22C200F0FBEC02F000C01FF8CD
:1025A600640E0002F3CF00F0F4CF01F000500201F8
:1025B600225D0801226F01C023F8000E23570A0E80
:1025C600046E000E056E22C800F023C801F00EEC62
:1025D6000EF000C020F80A0E0002F3CF00F0005003
:1025E6000801225D216F80960F0E456F466B72ECD7
:1025F6000EF000C045F869EC0BF00F0E0801456FB0
:10260600466B72EC0EF000C045F869EC0BF00F0E4D
:102616000801456F466B72EC0EF000C045F869EC98
:102626000BF021C845F80801466B72EC0EF000C0AD
:1026360045F869EC0BF020C845F80801466B72ECCA
:102646000EF000C045F869EC0BF01FC845F808010C
:10265600466B72EC0EF000C045F869EC0BF0808614
:102666000400520E0B6E2B0E0C6E000E0D6E0D2E10
:10267600FED70C2EFCD70B2EFAD70000040080964E
:102686000F0E0801456F466B72EC0EF000C045F860
:1026960069EC0BF00F0E0801456F466B72EC0EF0FD
:1026A60000C045F869EC0BF00F0E0801456F466B4C
:1026B60072EC0EF000C045F869EC0BF00F0E080145
:1026C600456F466B72EC0EF000C045F869EC0BF0F6
:1026D6000F0E0801456F466B72EC0EF000C045F810
:1026E60069EC0BF00F0E0801456F466B72EC0EF0AD
:1026F60000C045F869EC0BF080860400150E0B6EE1
:102706004B0E0C6EBE0E0D6E0D2EFED70C2EFCD78C
:0A2716000B2EFAD700000400120099
:10272000D20E0801586F050E596F1FC85AF820C8FD
:102730005BF8040E5C6F000E5D6F96EC05F0D70E33
:10274000586F050E596F21C85AF822C85BF8040E5D
:102750005C6F000E5D6F96EC05F0080E586F060E6C
:10276000596F23C85AF824C85BF8040E5C6F000E3A
:102770005D6F96EC05F00C0E456F060E466F8CEC07
:0427800009F012004A
:1027840043EC0BF00050470A10E143EC0BF000500F
:10279400450A0BE143EC0BF00050540A06E143EC0C
:1027A4000BF00050200A01E102D0006A3FD008017A
:1027B400256B266B2451265D02E12351255D2FE212
:1027C40021C8E9FF22C8EAFFEE50EE1028E043ECEE
:1027D4000BF01FC8E1FF20C8E2FF00C0E6FF21C8DC
:1027E400E9FF22C8EAFF010EEE5C006E000EEE580F
:1027F400016E21C8E1FF22C8E2FF00C0E6FF01C06C
:10280400E6FF1FC8E9FF20C8EAFF200EEE5C01E2E4
:1028140006D00801254B262B1F4B202BCBD71FC8D6
:0E282400E1FF20C8E2FFE66A010E006E12001E
:102832000801216B3C0E06019A6F000E9B6F9C6F84
:102842009D6F43EC0BF000C01FF80050020AD8A4A1
:102852002FD10801206B0F0E205D05E243EC0BF037
:102862000801202BF8D78F0E456F060E466FFF0E1C
:10287200476FFF0E486F040E496F000E4A6F17EC48
:1028820009F0206B080E205D05E243EC0BF0080115
:10289200202BF8D7206B060E205D13E243EC0BF0E1
:1028A20000C01FF8930ED96E060EDA6E0801205191
:1028B200D926D8B0DA2A0050DE1801E025D1202B23
:1028C200EAD7206BCE0E205D05E243EC0BF0080147
:1028D200202BF8D7226B43EC0BF000C01FF8C9D0B5
:1028E20043EC0BF000C01FF80050010A05E143EC75
:1028F2000BF000C021F801D007D1D6D043EC0BF089
:1029020000C01FF80050040A10E19E0E0801456F36
:10291200060E466FFF0E476FFF0E486F040E496F9B
:10292200000E4A6F17EC09F001D0EED0BDD043EC97
:102932000BF000C01FF8040E005C10E3A80E0801A3
:10294200456F060E466FFF0E476FFF0E486F040E6F
:10295200496F000E4A6F17EC09F001D0D5D008017B
:10296200040E1F5F08011FC800F01F07005203E09A
:1029720043EC0BF0F7D798D043EC0BF000C01FF8F4
:10298200040E005C10E3AC0E0801456F060E466FA4
:10299200FF0E476FFF0E486F040E496F000E4A6F1D
:1029A20017EC09F001D0B0D00801040E1F5F080136
:1029B2001FC800F01F07005203E043EC0BF0F7D7EB
:1029C20073D043EC0BF000C01FF80050040A10E172
:1029D200230E0801456F080E466FFF0E476FFF0E6C
:1029E200486F040E496F000E4A6F17EC09F001D0D0
:1029F2008BD05AD00801010E226F56D043EC0BF057
:102A020000C01FF80050040A24E19A0E0801456F25
:102A1200060E466FFF0E476FFF0E486F040E496F9A
:102A2200000E4A6F17EC09F006019D51000808E1FB
:102A32009C51000805E19B51070802E19A510808E0
:102A420007E2080E9A5F070E9B5B000E9C5B9D5B84
:102A520001D05AD029D043EC0BF000C01FF81FC898
:102A620000F008011F07005203E043EC0BF0F7D718
:102A72001BD008011F51350AD8B432D71F51010AA1
:102A8200D8B43CD71F51030AD8B451D71F51060AF4
:102A9200D8B472D71F51360A94E01F51FF0AAAE038
:102AA2001F51330AABE0D7D708012253D8B413D74A
:102AB20008012151020A0FE1A20E586F060E596F4A
:102AC200230E5A6F080E5B6F040E5C6F000E5D6F73
:102AD20096EC05F016D0A20E456F060E466F230E39
:102AE200476F080E486F040E496F000E4A6FC1EC23
:102AF20009F0000E011802E1000E001802E00801C0
:0C2B0200216B21C800F001D0006A120015
:102B0E00A6A202D00000FCD7A69C20C8AAFF1FC810
:102B1E00A9FF21C8A8FFA69EA684F2CF00F0F29EC0
:102B2E00550EA76EAA0EA76EA68200BE02D0F29E0A
:102B3E0001D0F28EA694A1B802D00000FCD7A198C5
:022B4E00120073
:102B50000A0E046ED6C600F0FBEC02F000C0D7F6F9
:102B60000A0E0002F3CF00F000500601D65DD86FC8
:102B70000A0E046EDAC600F0FBEC02F000C0DBF6D1
:102B80000A0E0002F3CF00F00050DA5DD96F0A0E92
:102B9000046ED0C600F0FBEC02F000C0D5F60A0EC1
:102BA0000002F3CF00F00050D05DCF6F0A0E046E2C
:102BB000D1C600F0FBEC02F000C0CEF60A0E000217
:102BC000F3CF00F00050D15DD46F0A0E046ED2C670
:102BD00000F0FBEC02F000C0D3F60A0E0002F3CFC7
:102BE00000F00050D25DCD6F0A0E046ECBC600F02F
:102BF000FBEC02F000C0CCF60A0E0002F3CF00F0AE
:102C00000050CB5DCA6F02011C51010A44E180965D
:102C1000000000000000D8C645F80801466B72ECC1
:102C20000EF000C045F869EC0BF0D7C645F8080176
:102C3000466B72EC0EF000C045F869EC0BF0D9C69B
:102C400045F80801466B72EC0EF000C045F869ECDF
:102C50000BF0DBC645F80801466B72EC0EF000C0C5
:102C600045F869EC0BF0CFC645F81EC246F872EC89
:102C70000EF000C045F869EC0BF0D5C645F81DC252
:102C800046F872EC0EF000C045F869EC0BF000005D
:102C900000000000808602011C51020A44E1809677
:102CA000000000000000CAC645F80801466B72EC3F
:102CB0000EF000C045F869EC0BF0CCC645F80801F1
:102CC000466B72EC0EF000C045F869EC0BF0CDC617
:102CD00045F80801466B72EC0EF000C045F869EC4F
:102CE0000BF0D3C645F80801466B72EC0EF000C03D
:102CF00045F869EC0BF0D4C645F81EC246F872ECF4
:102D00000EF000C045F869EC0BF0CEC645F81DC2C8
:102D100046F872EC0EF000C045F869EC0BF00000CC
:082D2000000000008086120093
:0A2D2800809A010E0201076F1200ED
:102D32009B0E0801456FBB0E466F000E476F04ECF9
:102D42000BF000C022F801C023F81F51300F666F4C
:102D52008DEC04F00801224B232BEF0E456FBB0EC6
:102D6200466F000E476F04EC0BF000502227015013
:102D72002323216B020E215D45E2630E456FBF0ED8
:102D8200466F000E476F04EC0BF0005022270150F3
:102D92002323215120190CE1B20E456FBE0E466F5E
:102DA200000E476F04EC0BF0005022270150232342
:102DB200D50E456FC00E466F000E476F04EC0BF048
:102DC2000050222701502323030E006E000E016ED5
:102DD20021C804F0000E056EEFEC08F0700E00241E
:102DE200E96E000E0120EA6EEECF45F8EECF46F80E
:102DF200EECF47F804EC0BF00050222701502323BA
:102E0200212BB8D7120E456FBE0E466F000E476FCC
:102E120004EC0BF0225100262351012200C022F8BB
:062E220001C023F81200BC
:102E28009ED0F20E0801456F040E466F476BC80E20
:102E3800486F000E496F1CEC0CF0030159515A11F0
:102E48005B115C1146E0F20E0801586F040E596FD1
:102E58002C0E5A6F010E5B6FD6EC04F0F20E586F11
:102E6800040E596F60EC08F0F20E0024456F040E52
:102E78000120466FDC0E476F060E486F010E496F42
:102E88003AEC0CF0F20E586F040E596F360E5A6F6A
:102E9800010E5B6FA6EC04F0F20E586F040E596F2A
:102EA80060EC08F0F20E0024456F040E0120466F16
:102EB8001F0E476F020E486F91EC0BF0F20E586F21
:102EC800040E596F840E5A6F000E5B6FA6EC04F067
:102ED80027D00801F20E586F040E596F220E5A6F50
:102EE800000E5B6FD6EC04F0F20E586F040E596FAB
:102EF80060EC08F0F20E0024456F040E0120466FC6
:102F08001F0E476F020E486F91EC0BF0F20E586FD0
:102F1800040E596F520E5A6F000E5B6FA6EC04F048
:102F28001FC845F8CBEC0BF025D0F20E456F040E08
:102F3800466FDC0E476F060E486F010E496F3AEC7C
:102F48000CF018D0F20E456F040E466FDC0E476F7A
:102F5800060E486F020E496F3AEC0CF00BD00801D0
:102F68002051000AD8B45DD72051010ADEE0205173
:062F7800020AE8E012006D
:102F7E000801226B236B8098C7C6E1FFC8C6E2FF2B
:102F8E007A0EE66EC5C600F0C6C601F0BFEC00F0C4
:102F9E001FC800F020C801F008011F4B202B00C0F5
:102FAE00E9FF01C0EAFFEECF00F000C021F80052A9
:102FBE0010E0C7C6E1FFC8C6E2FF21C8E6FFC5C6DE
:102FCE0000F0C6C601F0BFEC00F00801224B232B27
:0E2FDE00DFD7808822C800F023C801F012005F
:102FEC00F90E0801226F000E236F020E696FD90EC5
:102FFC006A6F190E6B6FD3EC02F0E20E0801456F8D
:10300C00BD0E466F000E476F0C0E486F000E496FD9
:10301C0055EC09F01F51030A0DE120530BE08F0E04
:10302C00586F060E596F040E5A6F000E5B6FFDEC55
:10303C0007F00AD0216B040E215D06E2666B8DEC65
:10304C0004F00801212BF7D7216B0C0E215D06E251
:10305C00666B8DEC04F00801212BF7D7930E586F9B
:10306C00060E596F060E5A6F000E5B6FFDEC07F0E3
:10307C00216BCA0E215D06E2666B8DEC04F0080133
:10308C00212BF7D7580E456FC00E466F000E476FB9
:10309C00060E486F000E496F55EC09F01FC866F814
:1030AC008DEC04F008011F51030A1AE1205318E1BA
:1030BC00360E666F8DEC04F0040E0801666F8DEC15
:1030CC0004F0A20E0801586F060E596F040E5A6FC9
:1030DC00000E5B6FFDEC07F0060E2227000E23237B
:1030EC00630E456FC00E466F000E476F050E486F9E
:1030FC00000E496F55EC09F01F51030A23E12053D0
:10310C0021E1320E666F8DEC04F0040E0801666F3F
:10311C008DEC04F00801216B040E215D0FE28F0E83
:10312C00E96E060EEA6E2151E926D8B0EA2AEECFF6
:10313C0066F88DEC04F00801212BEED7060E222741
:10314C00000E2323FF0E666F8DEC04F0C20E0801F7
:10315C00456F010E466FC20E476F010E486F440E4D
:10316C00496F000E4A6F430E4B6F000E4C6F22C816
:0C317C004DF823C84EF8F2EC09F01200E8
:10318800B50E0801586F190E596FBB0E5A6F190EFC
:103198005B6FAF0E5C6F190E5D6F5E6BBEEC05F07A
:1031A800B50E586F190E596F930E5A6F060E5B6F56
:0E31B800060E5C6F000E5D6F2CEC08F012002E
:1031C60007014851190802E14751AD0804E2AE0E65
:1031D600475F190E485B0801696B47C76AF848C71D
:0831E6006BF8D3EC02F01200BB
:1031EE0043EC0BF043EC0BF043EC0BF000C048F754
:1031FE0043EC0BF000C047F743EC0BF000C04AF76E
:10320E0043EC0BF000C049F743EC0BF000C04CF759
:10321E0043EC0BF000C04BF743EC0BF043EC0BF020
:10322E0043EC0BF043EC0BF049C700F04AC701F03A
:10323E00010E0701495F000E4A5B005001100EE0BF
:10324E0043EC0BF0005201E0FBD743EC0BF043ECE8
:10325E000BF043EC0BF043EC0BF0E6D74BC700F052
:10326E004CC701F0010E07014B5F000E4C5B005086
:10327E00011048E043EC0BF043EC0BF043EC0BF089
:10328E0000C050F743EC0BF000C04FF743EC0BF0CF
:10329E0043EC0BF043EC0BF043EC0BF043EC0BF078
:1032AE0043EC0BF043EC0BF000C04EF743EC0BF08D
:1032BE0000C04DF7000E0701501902E1010E4F1923
:1032CE0011E143EC0BF000C0C2F543EC0BF000C073
:1032DE00C3F543EC0BF000C0C4F543EC0BF000C09B
:1032EE00C5F510D04DC700F04EC701F0010E070115
:1032FE004D5F000E4E5B0050011003E043EC0BF0EF
:06330E00F1D7ACD712005C
:10331400B9D0CE0E0801456F050E466F476B040EFB
:10332400486F000E496F1CEC0CF0010E1F6F206BF0
:103334005BDE06C1CAF507C1CBF508C1CCF509C1EE
:10334400CDF5030E0101CE6FB0D0050E0501CA25DF
:10335400016E000ECB21026E000ECC21036E000E16
:10336400CD21046E01010951045C08E10851035C9C
:1033740005E10751025C02E10651015C02E2020E22
:10338400CE6F19EC14F00050020A04E1040E01019E
:10339400CE6F01D08AD0030E08011F6FCCC120F874
:1033A40023DE06C1CAF507C1CBF508C1CCF509C1B6
:1033B400CDF5050E0101CE6F78D019EC14F000C0E4
:1033C40047F70050060A04E1040E0101CE6F2FD026
:1033D40007014751050A2BE106C1CAF507C1CBF520
:1033E40008C1CCF509C1CDF5060E0101CE6FCE0E94
:1033F4000801586F050E596F8F0E5A6F060E5B6FDA
:10340400040E5C6F000E5D6F96EC05F09E0E1F6F50
:10341400060E206FA80E216F060E226FAC0E236FCE
:10342400060E246F90EC13F00101CC6B3ED03DD01E
:10343400010E0501CA25016E000ECB21026E000E9D
:10344400CC21036E000ECD21046E04500101095DF0
:1034540008E10350085D05E10250075D02E10150F7
:10346400065D0FE3010E06019A5F000E9B5B9C5BF9
:103474009D5B06C1CAF507C1CBF508C1CCF509C1EE
:10348400CDF513D00101CE51020AD8B442D7CE51A2
:10349400030AD8B45AD7CE51040AD8B47CD7CE5133
:0C34A400050A8BE0CE51060AC3E01200BE
:1034B00007014C51270A02E1110E4B193AE1000EA7
:1034C0004E1902E1090E4D1934E1556B090E555D97
:1034D00013E2560E6A6F070E6B6F55516A27D8B00C
:1034E0006B2B43EC0BF06AC7E1FF6BC7E2FF00C038
:1034F000E6FF0701552BEAD75651490A1AE1575101
:10350000440A17E15851450A14E159514E0A11E194
:103510005A51540A0EE15B51490A0BE15C51460ACB
:1035200008E15D51590A05E15E51210A02E1CBEC47
:1035300012F0000E07014C1902E17B0E4B19D8A4C2
:10354000A6D0000E4E1902E1300E4D19D8A49BD022
:1035500043EC0BF000C0C3F443EC0BF000C063F489
:1035600043EC0BF043EC0BF000C03EF40701556B4D
:10357000240E555D05E243EC0BF00701552BF8D7FF
:1035800043EC0BF000C054F743EC0BF000C053F7D2
:1035900043EC0BF000C052F743EC0BF000C051F7C6
:1035A00051C76AF752C76BF753C76CF754C76DF72B
:1035B000800E07016A5F7E0E6B5BAA0E6C5B830E4A
:1035C0006D5B6AC75DF36BC75EF36CC75FF36DC776
:1035D00060F36AC759F36BC75AF36CC75BF36DC7E7
:1035E0005CF3F20E0001766F040E776F1C6A1D6AA1
:1035F00098C300F0000E030198BFFF0E016E026E2B
:10360000036E100E046E0E0E056E000E066E000E9A
:10361000076EEFEC03F0005007016A2508011F6FE9
:10362000015007016B210801206F025007016C2136
:103630000801216F035007016D210801226FDC0E84
:10364000236F060E246F9AEC0FF0196A1A6A6EEC5B
:103650000FF01B5211E0010E08011F6FBFC220F8CE
:1036600014EC17F0020E1F6FC0C220F814EC17F014
:103670001B6A0001764B772B196A1A6A1E6A1F6A49
:10368000A8EC15F003D0006A016A04D003D0006AE8
:06369000016A00D01200E7
:103696000801666B18EC04F000C04CF7010E080137
:1036A600666F18EC04F000C04DF70801696B47C758
:1036B6006AF848C76BF8D3EC02F08098C7C6E1FFFA
:1036C600C8C6E2FF3A0EE66EC5C600F0C6C601F0F1
:1036D600BFEC00F007014B5318E0C7C6E1FFC8C6B0
:1036E600E2FFE66AC5C600F0C6C601F0BFEC00F010
:1036F60049C7D9FF4AC7DAFF0050DE1801E005D0F6
:103706000701494B4A2B4B07E5D780880801696BAF
:103716004CC76AF84DC76BF8D3EC02F04BC700F004
:0237260012008F
:1037280008011C6B1D6B000E07014C1902E1500EBD
:103738004B1904E0006A016A0BEF34F0990E080196
:103748001F6F070E206F4D0E216F070E226F800E20
:10375800236F000E246FC2EC13F00050000A04E13E
:10376800006A016A0BEF34F0990E0801456F070EE5
:10377800466F550E476F020E486F060E496F000ED2
:103788004A6FC1EC09F0000E011802E1000E0018A2
:10379800D8A446EF2DF00701A051730AD8A47FEFF3
:1037A80022F0D00E0801456FBB0E466F000E476F22
:1037B80004EC0BF000C01CF801C01DF8BB0E456FEF
:1037C800BD0E466F000E476F04EC0BF000501C272F
:1037D80001501D2302015451000A3DE1600E080109
:1037E800456FBE0E466F000E476F04EC0BF000509D
:1037F8001C2701501D23750E456FBD0E466F000E28
:10380800476F04EC0BF000501C2701501D234B0E92
:103818001F6F020E206FBFEC17F000501C270150DD
:103828001D230B0E456FB70E466F000E476F04EC55
:103838000BF000501C2701501D232E0E456FC00EA3
:10384800466F000E476F04EC0BF000501C27015028
:103858001D237DEF22F0010E02015C6FC80E0801E6
:10386800456FBD0E466F000E476F04EC0BF000501D
:103878001C2701501D23010E1F6FBFC220F899ECB1
:1038880016F000501C2701501D23EE0E456FBD0E8B
:10389800466F000E476F04EC0BF000501C270150D8
:1038A8001D234D0E456FBD0E466F000E476F04EC8D
:1038B8000BF000501C2701501D23670E1F6F020ECE
:1038C800206FBFEC17F000501C2701501D23790E04
:1038D800456FB60E466F000E476F04EC0BF00050B4
:1038E8001C2701501D23040E456FC00E466F000EA5
:1038F800476F04EC0BF000501C2701501D23060EE7
:10390800456FBE0E466F000E476F04EC0BF000507B
:103918001C2701501D23610E456FBD0E466F000E1A
:10392800476F04EC0BF000501C2701501D235E0E5E
:103938001F6F020E206FBFEC17F000501C270150BC
:103948001D23530E456FB90E466F000E476F04ECEA
:103958000BF000501C2701501D230B0E456FC00EA5
:10396800466F000E476F04EC0BF000501C27015007
:103978001D230201BF51010AD8A480D0E40E08011A
:10398800456FBE0E466F000E476F04EC0BF00050FB
:103998001C2701501D234C0E456FB50E466F000EB7
:1039A800476F04EC0BF000501C2701501D23010E3B
:1039B8001A6F000E1B6F800E1B19006E800E005CC4
:1039C80002E1050E1A5D4DE2480E456FBF0E466FC7
:1039D800000E476F04EC0BF000501C2701501D230C
:1039E800000E1B1904E102015D5108011A190CE1CE
:1039F800DA0E456FBE0E466F000E476F04EC0BF0F3
:103A080000501C2701501D23D10E456FC00E466F74
:103A1800000E476F04EC0BF000501C2701501D23CB
:103A2800010E1A5D006E000E1B59016E030E046E26
:103A3800000E056EEFEC08F03F0E0024E96E020E52
:103A48000120EA6EEECF45F8EECF46F8EECF47F804
:103A580004EC0BF000501C2701501D231A4B1B2BA4
:103A6800AAD7FA0E456FBD0E466F000E476F04ECDD
:103A78000BF000501C2701501D2303D0010E02013A
:103A88005D6F02015D51010AD8A449D18A0E08016F
:103A9800456FBE0E466F000E476F04EC0BF00050EA
:103AA8001C2701501D23890E456FBD0E466F000E61
:103AB800476F04EC0BF000501C2701501D232B0E00
:103AC8001F6F020E206FBFEC17F000501C2701502B
:103AD8001D230201BF51010A0DE1300E0801456F97
:103AE800B60E466F000E476F04EC0BF000501C2713
:103AF80001501D230201BF51010A0EE1FD0E08010C
:103B0800456FBF0E466F000E476F04EC0BF0005078
:103B18001C2701501D230DD00801700E456FC00EE3
:103B2800466F000E476F04EC0BF000501C27015045
:103B38001D23A80E456FBE0E466F000E476F04EC9E
:103B48000BF000501C2701501D23390E456FBD0E88
:103B5800466F000E476F04EC0BF000501C27015015
:103B68001D23270E1F6F020E206FBFEC17F00050A9
:103B78001C2701501D230201BF51010A0DE12E0E21
:103B88000801456FBA0E466F000E476F04EC0BF044
:103B980000501C2701501D230201BF51010A0EE1EC
:103BA800510E0801456FC00E466F000E476F04ECBA
:103BB8000BF000501C2701501D230DD00801740E76
:103BC800456FC00E466F000E476F04EC0BF00050B7
:103BD8001C2701501D239E0E456FBE0E466F000E1A
:103BE800476F04EC0BF000501C2701501D23350EC5
:103BF800456FBC0E466F000E476F04EC0BF000508B
:103C08001C2701501D23230E1F6F020E206FBFECCF
:103C180017F000501C2701501D230201BF51010A53
:103C28000DE1090E0801456FBB0E466F000E476F88
:103C380004EC0BF000501C2701501D230201BF515A
:103C4800010A0EE14A0E0801456FC00E466F000ECC
:103C5800476F04EC0BF000501C2701501D230DD0BA
:103C680008016C0E456FC00E466F000E476F04ECDE
:103C78000BF000501C2701501D23940E456FBE0EFB
:103C8800466F000E476F04EC0BF000501C270150E4
:103C98001D23210E456FBC0E466F000E476F04ECC6
:103CA8000BF000501C2701501D232F0E1F6F020E12
:103CB800206FBFEC17F000501C2701501D23020194
:103CC800BF51010A0DE1540E0801456FB70E466F4A
:103CD800000E476F04EC0BF000501C2701501D2309
:103CE8000201BF51010A0EE1EF0E0801456FBF0E38
:103CF800466F000E476F04EC0BF000501C27015074
:103D08001D230DD00801680E456FC00E466F000ECA
:103D1800476F04EC0BF000501C2701501D230201D3
:103D28005D51020AD8A449D1750E0801456FBF0E2E
:103D3800466F000E476F04EC0BF000501C27015033
:103D48001D230201BF51010A23E1490E0801456FF5
:103D5800BC0E466F000E476F04EC0BF000501C279A
:103D680001501D233B0E1F6F020E206FBFEC17F092
:103D780000501C2701501D230A0E456FB90E466FCF
:103D8800000E476F04EC0BF000501C2701501D2358
:103D98000201BF51010A0EE1E80E0801456FBF0E8E
:103DA800466F000E476F04EC0BF000501C270150C3
:103DB8001D230DD008017B0E456FC00E466F000E07
:103DC800476F04EC0BF000501C2701501D233F0ED9
:103DD800456FBF0E466F000E476F04EC0BF00050A6
:103DE8001C2701501D230201BF51010A23E15D0E6A
:103DF8000801456FBC0E466F000E476F04EC0BF0D0
:103E080000501C2701501D23370E1F6F020E206F14
:103E1800BFEC17F000501C2701501D23780E456F8A
:103E2800B80E466F000E476F04EC0BF000501C27CD
:103E380001501D230201BF51010A0EE1270E08019E
:103E4800456FC00E466F000E476F04EC0BF0005034
:103E58001C2701501D230DD00801780E456FC00E98
:103E6800466F000E476F04EC0BF000501C27015002
:103E78001D23510E456FBF0E466F000E476F04ECB1
:103E88000BF000501C2701501D230201BF51010AED
:103E980023E1E90E0801456FBC0E466F000E476F1F
:103EA80004EC0BF000501C2701501D23330E1F6F2C
:103EB800020E206FBFEC17F000501C2701501D2385
:103EC8002F0E456FB80E466F000E476F04EC0BF0CF
:103ED80000501C2701501D230201BF51010A0EE1A9
:103EE800120E0801456FC00E466F000E476F04ECB6
:103EF8000BF000501C2701501D230DD00801BA0EED
:103F0800456FC00E466F000E476F04EC0BF0005073
:103F18001C2701501D23A20E456FBF0E466F000ED1
:103F2800476F04EC0BF000501C2701501D230201C1
:103F3800BF51010A23E1D50E0801456FBC0E466F3B
:103F4800000E476F04EC0BF000501C2701501D2396
:103F5800460E1F6F030E206FBFEC17F000501C2792
:103F680001501D23E60E456FB70E466F000E476FD2
:103F780004EC0BF000501C2701501D230201BF5117
:103F8800010A0EE1190E0801456FC00E466F000EBA
:103F9800476F04EC0BF000501C2701501D230DD077
:103FA8000801B40E456FC00E466F000E476F04EC53
:103FB8000BF000501C2701501D2302015D51030A1C
:103FC800D8A449D1990E0801456FBF0E466F000E5F
:103FD800476F04EC0BF000501C2701501D23020111
:103FE800BF51010A23E1FD0E0801456FBC0E466F63
:103FF800000E476F04EC0BF000501C2701501D23E6
:10400800DB0E1F6F040E206FBFEC17F000501C274B
:1040180001501D23C10E456FB80E466F000E476F45
:1040280004EC0BF000501C2701501D230201BF5166
:10403800010A0EE1200E0801456FC00E466F000E02
:10404800476F04EC0BF000501C2701501D230DD0C6
:104058000801C00E456FC00E466F000E476F04EC96
:104068000BF000501C2701501D23900E456FBF0E0A
:10407800466F000E476F04EC0BF000501C270150F0
:104088001D230201BF51010A23E1250E0801456FD6
:10409800BD0E466F000E476F04EC0BF000501C2756
:1040A80001501D23DF0E1F6F040E206FBFEC17F0A9
:1040B80000501C2701501D23C20E456FB60E466FD7
:1040C800000E476F04EC0BF000501C2701501D2315
:1040D8000201BF51010A0EE1E10E0801456FBF0E52
:1040E800466F000E476F04EC0BF000501C27015080
:1040F8001D230DD00801AB0E456FC00E466F000E94
:10410800476F04EC0BF000501C2701501D237E0E56
:10411800456FBF0E466F000E476F04EC0BF0005062
:104128001C2701501D230201BF51010A23E1110E72
:104138000801456FBD0E466F000E476F04EC0BF08B
:1041480000501C2701501D23E30E1F6F040E206F23
:10415800BFEC17F000501C2701501D239D0E456F22
:10416800B70E466F000E476F04EC0BF000501C278B
:1041780001501D230201BF51010A0EE1F60E08018C
:10418800456FBF0E466F000E476F04EC0BF00050F2
:104198001C2701501D230DD00801A20E456FC00E2B
:1041A800466F000E476F04EC0BF000501C270150BF
:1041B8001D23090E456FBF0E466F000E476F04ECB6
:1041C8000BF000501C2701501D230201BF51010AAA
:1041D80023E1850E0801456FBC0E466F000E476F40
:1041E80004EC0BF000501C2701501D23CF0E1F6F4D
:1041F800040E206FBFEC17F000501C2701501D2340
:10420800C00E456FBA0E466F000E476F04EC0BF0F8
:1042180000501C2701501D230201BF51010A0EE165
:10422800350E0801456FC00E466F000E476F04EC4F
:104238000BF000501C2701501D230DD00801AE0EB5
:10424800456FC00E466F000E476F04EC0BF0005030
:104258001C2701501D2302015D51040AD8A449D12D
:10426800F70E0801456FBE0E466F000E476F04EC4F
:104278000BF000501C2701501D230201BF51010AF9
:1042880023E1710E0801456FBC0E466F000E476FA3
:1042980004EC0BF000501C2701501D23D30E1F6F98
:1042A800040E206FBFEC17F000501C2701501D238F
:1042B800520E456FBB0E466F000E476F04EC0BF0B5
:1042C80000501C2701501D230201BF51010A0EE1B5
:1042D8003C0E0801456FC00E466F000E476F04EC98
:1042E8000BF000501C2701501D230DD008019F0E14
:1042F800456FC00E466F000E476F04EC0BF0005080
:104308001C2701501D231B0E456FBF0E466F000E64
:10431800476F04EC0BF000501C2701501D230201CD
:10432800BF51010A23E1990E0801456FBC0E466F83
:10433800000E476F04EC0BF000501C2701501D23A2
:10434800D70E1F6F040E206FBFEC17F000501C270C
:1043580001501D23770E456FBA0E466F000E476F4A
:1043680004EC0BF000501C2701501D230201BF5123
:10437800010A0EE1430E0801456FC00E466F000E9C
:10438800476F04EC0BF000501C2701501D230DD083
:104398000801CC0E456FC00E466F000E476F04EC47
:1043A8000BF000501C2701501D23EE0E456FBE0E6A
:1043B800466F000E476F04EC0BF000501C270150AD
:1043C8001D230201BF51010A23E1C10E0801456FF7
:1043D800BC0E466F000E476F04EC0BF000501C2714
:1043E80001501D237D0E1F6F030E206FBFEC17F0C9
:1043F80000501C2701501D23E50E456FB90E466F6E
:10440800000E476F04EC0BF000501C2701501D23D1
:104418000201BF51010A0EE1DA0E0801456FBF0E15
:10442800466F000E476F04EC0BF000501C2701503C
:104438001D230DD00801990E456FC00E466F000E62
:10444800476F04EC0BF000501C2701501D23120E7F
:10445800456FBF0E466F000E476F04EC0BF000501F
:104468001C2701501D230201BF51010A23E1AD0E93
:104478000801456FBC0E466F000E476F04EC0BF049
:1044880000501C2701501D23810E1F6F030E206F43
:10449800BFEC17F000501C2701501D239C0E456FE0
:1044A800B90E466F000E476F04EC0BF000501C2746
:1044B80001501D230201BF51010A0EE1D30E08016C
:1044C800456FBF0E466F000E476F04EC0BF00050AF
:1044D8001C2701501D230DD00801A50E456FC00EE5
:1044E800466F000E476F04EC0BF000501C2701507C
:1044F8001D2344EF2DF0AAEF2CF0300E0701A25D2A
:10450800006E00C0BFF2670E08011F6F000E206F1B
:1045180000C021F887EC15F0050E0B6E0F0E0C6E1F
:10452800F10E0D6E0D2EFED70C2EFCD70B2EFAD7E2
:1045380094EC16F003EC00F0DBEF2CF00201BF5115
:10454800010AD8A405EF2AF0310E2B5D31E32B5177
:1045580039082EE3300E2C5D2BE32C51390828E363
:10456800300E2D5D25E32D51390822E3010E080197
:104578001F6F000E206F300E02012B5D0801216FA6
:10458800640E2103F3CF21F8300E02012C5D006E7A
:104598000A0E0002F3CF00F0005008012127300E68
:1045A80002012D5D006E00500801212787EC15F0EF
:1045B800310E02012B5D23E2310E2C5D20E32C51DC
:1045C80039081DE3300E2D5D1AE32D51390817E324
:1045D800010E08011F6F000E206F300E02012C5DC6
:1045E8000801216F0A0E2103F3CF21F8300E0201D2
:1045F8002D5D006E00500801212787EC15F0310E63
:1046080002012B5D15E2310E2C5D12E2300E2D5D9C
:104618000FE32D5139080CE3010E08011F6F000E3E
:10462800206F300E02012D5D0801216F87EC15F017
:10463800310E0201275D31E3275139082EE3300E90
:10464800285D2BE32851390828E3300E295D25E33E
:104658002951390822E3020E08011F6F000E206F4E
:10466800300E0201275D0801216F640E2103F3CF8C
:1046780021F8300E0201285D006E0A0E0002F3CF09
:1046880000F0005008012127300E0201295D006E5C
:1046980000500801212787EC15F0310E0201275D33
:1046A80023E2310E285D20E3285139081DE3300E3E
:1046B800295D1AE32951390817E3020E08011F6F13
:1046C800000E206F300E0201285D0801216F0A0ECE
:1046D8002103F3CF21F8300E0201295D006E00504E
:1046E8000801212787EC15F0310E0201275D15E23C
:1046F800310E285D12E2300E295D0FE32951390889
:104708000CE3020E08011F6F000E206F300E02012D
:10471800295D0801216F87EC15F0310E0201235D38
:1047280031E3235139082EE3300E245D2BE3245165
:10473800390828E3300E255D25E32551390822E3A1
:10474800030E08011F6F000E206F300E0201235D5B
:104758000801216F640E2103F3CF21F8300E020106
:10476800245D006E0A0E0002F3CF00F0005008012D
:104778002127300E0201255D006E00500801212717
:1047880087EC15F0310E0201235D23E2310E245D22
:1047980020E3245139081DE3300E255D1AE3255125
:1047A800390817E3030E08011F6F000E206F300E43
:1047B8000201245D0801216F0A0E2103F3CF21F8BD
:1047C800300E0201255D006E00500801212787EC9C
:1047D80015F0310E0201235D15E2310E245D12E25F
:1047E800300E255D0FE3255139080CE3030E08014F
:1047F8001F6F000E206F300E0201255D0801216F2A
:1048080087EC15F0310E02012F5D31E32F51390885
:104818002EE3300E305D2BE33051390828E3300E9B
:10482800315D25E33151390822E3040E08011F6F79
:10483800000E206F300E02012F5D0801216F640EFB
:104848002103F3CF21F8300E0201305D006E0A0E0D
:104858000002F3CF00F0005008012127300E0201BA
:10486800315D006E00500801212787EC15F0310EEC
:1048780002012F5D23E2310E305D20E3305139080B
:104888001DE3300E315D1AE33151390817E3040E88
:1048980008011F6F000E206F300E0201305D080105
:1048A800216F0A0E2103F3CF21F8300E0201315D8A
:1048B800006E00500801212787EC15F0310E020127
:1048C8002F5D15E2310E305D12E2300E315D0FE3DF
:1048D800315139080CE3040E08011F6F000E206FD8
:1048E800300E0201315D0801216F87EC15F0310EA1
:1048F8000401DB5D31E3DB5139082EE3300EDC5D6A
:104908002BE3DC51390828E3300EDD5D25E3DD516A
:10491800390822E3050E08011F6F000E206F300EC4
:104928000401DB5D0801216F640E2103F3CF21F838
:10493800300E0401DC5D006E0A0E0002F3CF00F0B9
:10494800005008012127300E0401DD5D006E005083
:104958000801212787EC15F0310E0401DB5D23E205
:10496800310EDC5D20E3DC5139081DE3300EDD5DDE
:104978001AE3DD51390817E3050E08011F6F000E11
:10498800206F300E0401DC5D0801216F0A0E21033F
:10499800F3CF21F8300E0401DD5D006E00500801F0
:1049A800212787EC15F0310E0401DB5D15E2310E8D
:1049B800DC5D12E2300EDD5D0FE3DD5139080CE3FA
:1049C800050E08011F6F000E206F300E0401DD5D1B
:1049D8000801216F87EC15F0310E0401DF5D31E32A
:1049E800DF5139082EE3300EE05D2BE3E051390842
:1049F80028E3300EE15D25E3E151390822E3060E94
:104A080008011F6F000E206F300E0401DF5D0801E2
:104A1800216F640E2103F3CF21F8300E0401E05D0D
:104A2800006E0A0E0002F3CF00F0005008012127A3
:104A3800300E0401E15D006E00500801212787EC6B
:104A480015F0310E0401DF5D23E2310EE05D20E355
:104A5800E05139081DE3300EE15D1AE3E1513908F0
:104A680017E3060E08011F6F000E206F300E0401B9
:104A7800E05D0801216F0A0E2103F3CF21F8300E03
:104A88000401E15D006E00500801212787EC15F054
:104A9800310E0401DF5D15E2310EE05D12E2300EE9
:104AA800E15D0FE3E15139080CE3060E08011F6FC1
:104AB800000E206F300E0401E15D0801216F87ECC4
:104AC80015F0310E0401E35D31E3E35139082EE3BB
:104AD800300EE45D2BE3E451390828E3300EE55D40
:104AE80025E3E551390822E3070E08011F6F000E80
:104AF800206F300E0401E35D0801216F640E21036D
:104B0800F3CF21F8300E0401E45D006E0A0E0002B6
:104B1800F3CF00F0005008012127300E0401E55DB5
:104B2800006E00500801212787EC15F0310E0401B2
:104B3800E35D23E2310EE45D20E3E45139081DE32F
:104B4800300EE55D1AE3E551390817E3070E080151
:104B58001F6F000E206F300E0401E45D0801216F05
:104B68000A0E2103F3CF21F8300E0401E55D006E33
:104B780000500801212787EC15F0310E0401E35D90
:104B880015E2310EE45D12E2300EE55D0FE3E5510A
:104B980039080CE3070E08011F6F000E206F300E56
:104BA8000401E55D0801216F87EC15F0310E040161
:104BB800CF5D31E3CF5139082EE3300ED05D2BE3C2
:104BC800D051390828E3300ED15D25E3D151390899
:104BD80022E3080E08011F6F000E206F300E04013B
:104BE800CF5D0801216F640E2103F3CF21F8300E49
:104BF8000401D05D006E0A0E0002F3CF00F00050F1
:104C080008012127300E0401D15D006E0050080113
:104C1800212787EC15F0310E0401CF5D23E2310E18
:104C2800D05D20E3D05139081DE3300ED15D1AE381
:104C3800D151390817E3080E08011F6F000E206FC5
:104C4800300E0401D05D0801216F0A0E2103F3CF55
:104C580021F8300E0401D15D006E005008012127B3
:104C680087EC15F0310E0401CF5D15E2310ED05DF1
:104C780012E2300ED15D0FE3D15139080CE3080E72
:104C880008011F6F000E206F300E0401D15D08016E
:104C9800216F87EC15F0310E02013B5D31E33B518A
:104CA80039082EE3300E3C5D2BE33C51390828E3EC
:104CB800300E3D5D25E33D51390822E3090E080118
:104CC8001F6F000E206F300E02013B5D0801216F3F
:104CD800640E2103F3CF21F8300E02013C5D006E13
:104CE8000A0E0002F3CF00F0005008012127300E11
:104CF80002013D5D006E00500801212787EC15F088
:104D0800310E02013B5D23E2310E3C5D20E33C5154
:104D180039081DE3300E3D5D1AE33D51390817E3AC
:104D2800090E08011F6F000E206F300E02013C5D56
:104D38000801216F0A0E2103F3CF21F8300E02017A
:104D48003D5D006E00500801212787EC15F0310EFB
:104D580002013B5D15E2310E3C5D12E2300E3D5D15
:104D68000FE33D5139080CE3090E08011F6F000ECF
:104D7800206F300E02013D5D0801216F87EC15F0B0
:104D8800310E0201375D31E3375139082EE3300E19
:104D9800385D2BE33851390828E3300E395D25E3B7
:104DA8003951390822E30A0E08011F6F000E206FDF
:104DB800300E0201375D0801216F640E2103F3CF25
:104DC80021F8300E0201385D006E0A0E0002F3CFA2
:104DD80000F0005008012127300E0201395D006EF5
:104DE80000500801212787EC15F0310E0201375DCC
:104DF80023E2310E385D20E3385139081DE3300EC7
:104E0800395D1AE33951390817E30A0E08011F6F93
:104E1800000E206F300E0201385D0801216F0A0E66
:104E28002103F3CF21F8300E0201395D006E0050E6
:104E38000801212787EC15F0310E0201375D15E2D4
:104E4800310E385D12E2300E395D0FE33951390801
:104E58000CE30A0E08011F6F000E206F300E0201CE
:104E6800395D0801216F87EC15F0310E0201335DC1
:104E780031E3335139082EE3300E345D2BE33451DE
:104E8800390828E3300E355D25E33551390822E32A
:104E98000B0E08011F6F000E206F300E0201335DEC
:104EA8000801216F640E2103F3CF21F8300E0201AF
:104EB800345D006E0A0E0002F3CF00F000500801C6
:104EC8002127300E0201355D006E005008012127B0
:104ED80087EC15F0310E0201335D23E2310E345DAB
:104EE80020E3345139081DE3300E355D1AE335519E
:104EF800390817E30B0E08011F6F000E206F300EE4
:104F08000201345D0801216F0A0E2103F3CF21F855
:104F1800300E0201355D006E00500801212787EC34
:104F280015F0310E0201335D15E2310E345D12E2E7
:104F3800300E355D0FE3355139080CE30B0E0801CF
:104F48001F6F000E206F300E0201355D0801216FC2
:104F580087EC15F0310E0301465D31E346513908FF
:104F68002EE3300E475D2BE34751390828E3300E16
:104F7800485D25E34851390822E30C0E08011F6FEC
:104F8800000E206F300E0301465D0801216F640E8C
:104F98002103F3CF21F8300E0301475D006E0A0E9E
:104FA8000002F3CF00F0005008012127300E030162
:104FB800485D006E00500801212787EC15F0310E7E
:104FC8000301465D23E2310E475D20E3475139086E
:104FD8001DE3300E485D1AE34851390817E30C0EFB
:104FE80008011F6F000E206F300E0301475D080196
:104FF800216F0A0E2103F3CF21F8300E0301485D1B
:10500800006E00500801212787EC15F0310E0301CE
:10501800465D15E2310E475D12E2300E485D0FE342
:10502800485139080CE30C0E08011F6F000E206F61
:10503800300E0301485D0801216F87EC15F0310E31
:105048000401D35D31E3D35139082EE3300ED45D2A
:105058002BE3D451390828E3300ED55D25E3D5512B
:10506800390822E30D0E08011F6F000E206F300E65
:105078000401D35D0801216F640E2103F3CF21F8E9
:10508800300E0401D45D006E0A0E0002F3CF00F06A
:10509800005008012127300E0401D55D006E005034
:1050A8000801212787EC15F0310E0401D35D23E2B6
:1050B800310ED45D20E3D45139081DE3300ED55D9F
:1050C8001AE3D551390817E30D0E08011F6F000EBA
:1050D800206F300E0401D45D0801216F0A0E2103F0
:1050E800F3CF21F8300E0401D55D006E00500801A1
:1050F800212787EC15F0310E0401D35D15E2310E3E
:10510800D45D12E2300ED55D0FE3D55139080CE3BA
:105118000D0E08011F6F000E206F300E0401D55DC3
:105128000801216F87EC15F0310E0401D75D31E3DA
:10513800D75139082EE3300ED85D2BE3D851390802
:1051480028E3300ED95D25E3D951390822E30E0E44
:1051580008011F6F000E206F300E0401D75D080193
:10516800216F640E2103F3CF21F8300E0401D85DBE
:10517800006E0A0E0002F3CF00F00050080121274C
:10518800300E0401D95D006E00500801212787EC1C
:1051980015F0310E0401D75D23E2310ED85D20E30E
:1051A800D85139081DE3300ED95D1AE3D9513908B1
:1051B80017E30E0E08011F6F000E206F300E04015A
:1051C800D85D0801216F0A0E2103F3CF21F8300EB4
:1051D8000401D95D006E00500801212787EC15F005
:1051E800310E0401D75D15E2310ED85D12E2300EA2
:1051F800D95D0FE3D95139080CE30E0E08011F6F72
:10520800000E206F300E0401D95D0801216F87EC74
:1052180015F0310E03017D5D31E37D5139082EE330
:10522800300E7E5D2BE37E51390828E3300E7F5D1A
:1052380025E37F51390822E30F0E08011F6F000E86
:10524800206F300E03017D5D0801216F640E21037C
:10525800F3CF21F8300E03017E5D006E0A0E0002C6
:10526800F3CF00F0005008012127300E03017F5DC5
:10527800006E00500801212787EC15F0310E03015C
:105288007D5D23E2310E7E5D20E37E5139081DE30A
:10529800300E7F5D1AE37F51390817E30F0E0801BE
:1052A8001F6F000E206F300E03017E5D0801216F15
:1052B8000A0E2103F3CF21F8300E03017F5D006E43
:1052C80000500801212787EC15F0310E03017D5DA0
:1052D80015E2310E7E5D12E2300E7F5D0FE37F51E5
:1052E80039080CE30F0E08011F6F000E206F300EF7
:1052F80003017F5D0801216F87EC15F0310E030172
:10530800815D31E3815139082EE3300E825D2BE354
:105318008251390828E3300E835D25E3835139082B
:1053280022E3100E08011F6F000E206F300E0301DC
:10533800815D0801216F640E2103F3CF21F8300E3F
:105348000301825D006E0A0E0002F3CF00F00050E8
:1053580008012127300E0301835D006E005008010B
:10536800212787EC15F0310E0301815D23E2310E10
:10537800825D20E3825139081DE3300E835D1AE314
:105388008351390817E3100E08011F6F000E206FB4
:10539800300E0301825D0801216F0A0E2103F3CF4D
:1053A80021F8300E0301835D006E005008012127AB
:1053B80087EC15F0310E0301815D15E2310E825D37
:1053C80012E2300E835D0FE3835139080CE3100EAF
:1053D80008011F6F000E206F300E0301835D080166
:1053E800216F87EC15F0050E0B6E0F0E0C6EF10E8B
:1053F8000D6E0D2EFED70C2EFCD70B2EFAD794EC83
:1054080016F0D5D20201BF51010A53E15D51010ADC
:1054180011E1A20E08011F6F070E206F04EC0FF0B8
:1054280000C0EDF600C058F82B0E596F020E5A6FE7
:1054380025EC05F002015D51020A11E1A20E0801F6
:105448001F6F070E206F04EC0FF000C0EDF600C0D0
:1054580058F83B0E596F020E5A6F25EC05F0020101
:105468005D51030A11E1A20E08011F6F070E206F9C
:1054780004EC0FF000C0EDF600C058F8DB0E596FD1
:10548800040E5A6F25EC05F002015D51040A11E182
:10549800A20E08011F6F070E206F04EC0FF000C06A
:1054A800EDF600C058F8D30E596F040E5A6F25EC6C
:1054B80005F07DD20201BF51010A53E15D51010A95
:1054C80011E1A20E08011F6F070E206F04EC0FF008
:1054D80000C0EDF600C058F8270E596F020E5A6F3B
:1054E80025EC05F002015D51020A11E1A20E080146
:1054F8001F6F070E206F04EC0FF000C0EDF600C020
:1055080058F8370E596F020E5A6F25EC05F0020154
:105518005D51030A11E1A20E08011F6F070E206FEB
:1055280004EC0FF000C0EDF600C058F8DF0E596F1C
:10553800040E5A6F25EC05F002015D51040A11E1D1
:10554800A20E08011F6F070E206F04EC0FF000C0B9
:10555800EDF600C058F8D70E596F040E5A6F25ECB7
:1055680005F025D20201BF51010A53E15D51010A3C
:1055780011E1A20E08011F6F070E206F04EC0FF057
:1055880000C0EDF600C058F8230E596F020E5A6F8E
:1055980025EC05F002015D51020A11E1A20E080195
:1055A8001F6F070E206F04EC0FF000C0EDF600C06F
:1055B80058F8330E596F020E5A6F25EC05F00201A8
:1055C8005D51030A11E1A20E08011F6F070E206F3B
:1055D80004EC0FF000C0EDF600C058F8E30E596F68
:1055E800040E5A6F25EC05F002015D51040A11E121
:1055F800A20E08011F6F070E206F04EC0FF000C009
:10560800EDF600C058F87D0E596F030E5A6F25EC61
:1056180005F0CDD10201BF51010A53E15D51010AE4
:1056280011E1A20E08011F6F070E206F04EC0FF0A6
:1056380000C0EDF600C058F82F0E596F020E5A6FD1
:1056480025EC05F002015D51020A11E1A20E0801E4
:105658001F6F070E206F04EC0FF000C0EDF600C0BE
:1056680058F8460E596F030E5A6F25EC05F00201E3
:105678005D51030A11E1A20E08011F6F070E206F8A
:1056880004EC0FF000C0EDF600C058F8CF0E596FCB
:10569800040E5A6F25EC05F002015D51040A11E170
:1056A800A20E08011F6F070E206F04EC0FF000C058
:1056B800EDF600C058F8810E596F030E5A6F25ECAD
:1056C80005F075D1A2C774F3A3C775F3A4C776F321
:1056D800A5C777F3A6C778F3A7C779F3A8C77AF35E
:1056E800A9C77BF303017C6BE40E08011F6F060E4C
:1056F800206F740E216F030E226FDEEC0EF0000E89
:10570800011802E1000E00182FE1010E0301856F58
:10571800010E0201546F08011C6B1D6B92C345F802
:1057280093C346F894C347F804EC0BF000501C27C9
:1057380001501D2395C345F896C346F897C347F80B
:1057480004EC0BF000501C2701501D238FC345F8B3
:1057580090C346F891C347F804EC0BF000501C279F
:1057680001501D2307EF34F022D1A2C767F2A3C767
:1057780068F2A4C769F2A5C76AF2A6C76BF2A7C701
:105788006CF2A8C76DF2A9C76EF202016F6B0FD158
:105798000201A2C75EF2A3C75FF2A4C760F2A5C761
:1057A80061F2A6C762F2A7C763F2A8C764F2A9C7E5
:1057B80065F2666BFCD0E40E08011F6F060E206FC1
:1057C800670E216F020E226FDEEC0EF0000E01183C
:1057D80002E1000E001811E1E40E0801586F060EF0
:1057E800596F5E0E5A6F020E5B6FD6EC04F000C064
:1057F800EEF601C0EFF60201546B140E08011F6F9C
:10580800000E206FE4C621F887EC15F0150E08018C
:105818001F6F000E206FE5C621F887EC15F0160EF5
:1058280008011F6F000E206FE6C621F887EC15F0FF
:10583800170E08011F6F000E206FE7C621F887ECCE
:1058480015F0180E08011F6F000E206FE8C621F82A
:1058580087EC15F0190E08011F6F000E206FE9C6BE
:1058680021F887EC15F01A0E08011F6F000E206F43
:10587800EAC621F887EC15F01B0E08011F6F000E11
:10588800206FEBC621F887EC15F01C0E08011F6F7E
:10589800000E206FECC621F887EC15F0670E0801A2
:1058A800586F020E596F860E5A6F030E5B6FD6EC57
:1058B80004F05E0E586F020E596F6B0E5A6F030E8E
:1058C8005B6FD6EC04F0050E0B6E0F0E0C6EF10E2E
:1058D8000D6E0D2EFED70C2EFCD70B2EFAD767D0E7
:1058E8000201BF51010A0DE1A20E08011F6F070E48
:1058F800206F04EC0FF000C05DF20050010F0201B0
:105908005D6F03EC00F053D0A20E08011F6F070E65
:10591800206F04EC0FF000C0C1F20B0E005E00C057
:10592800C1F2660E1F6F000E206F00C021F887ECD1
:1059380015F0050E0B6E0F0E0C6EF10E0D6E0D2E82
:10594800FED70C2EFCD70B2EFAD731D00701A05169
:10595800310AD8B481EF22F0A051720AD8B4A2EF6C
:1059680022F0A0516E0AD8B44DD5A0516F0AD8B410
:10597800A1D5A051700AD8B4F5D5A051710AD8B4F0
:1059880049D6A051760AD8B49DD6A051780AD8B481
:10599800ECD6A051790AD8B4FBD6A051770AD8B46E
:1059A8000AD7A051750A9CE0A051740AADE092C3D1
:1059B80045F893C346F894C347F804EC0BF000503D
:1059C8001C2701501D2302015451000A0DE153C345
:1059D80045F854C346F855C347F804EC0BF000509B
:1059E8001C2701501D2340D002015D51010A0CE122
:1059F80056C345F857C346F858C347F804EC0BF0AC
:105A080000501C2701501D2302015D51020A0CE1C0
:105A180050C345F851C346F852C347F804EC0BF09D
:105A280000501C2701501D2302015D51030A0CE19F
:105A38004AC345F84BC346F84CC347F804EC0BF08F
